{
	"contracts/Counter.sol": {
		"Counter": {
			"abi": [
				{
					"inputs": [
						{
							"internalType": "uint256",
							"name": "x",
							"type": "uint256"
						}
					],
					"name": "add",
					"outputs": [],
					"stateMutability": "nonpayable",
					"type": "function"
				},
				{
					"inputs": [],
					"name": "count",
					"outputs": [
						{
							"internalType": "uint256",
							"name": "",
							"type": "uint256"
						}
					],
					"stateMutability": "view",
					"type": "function"
				},
				{
					"inputs": [],
					"name": "get",
					"outputs": [
						{
							"internalType": "uint256",
							"name": "",
							"type": "uint256"
						}
					],
					"stateMutability": "view",
					"type": "function"
				}
			],
			"devdoc": {
				"kind": "dev",
				"methods": {},
				"version": 1
			},
			"evm": {
				"assembly": "    /* \"contracts/Counter.sol\":57:245  contract Counter{... */\n  mstore(0x40, 0x80)\n  callvalue\n  dup1\n  iszero\n  tag_1\n  jumpi\n  revert(0x00, 0x00)\ntag_1:\n  pop\n  dataSize(sub_0)\n  dup1\n  dataOffset(sub_0)\n  0x00\n  codecopy\n  0x00\n  return\nstop\n\nsub_0: assembly {\n        /* \"contracts/Counter.sol\":57:245  contract Counter{... */\n      mstore(0x40, 0x80)\n      callvalue\n      dup1\n      iszero\n      tag_1\n      jumpi\n      revert(0x00, 0x00)\n    tag_1:\n      pop\n      jumpi(tag_2, lt(calldatasize, 0x04))\n      shr(0xe0, calldataload(0x00))\n      dup1\n      0x06661abd\n      eq\n      tag_3\n      jumpi\n      dup1\n      0x1003e2d2\n      eq\n      tag_4\n      jumpi\n      dup1\n      0x6d4ce63c\n      eq\n      tag_5\n      jumpi\n    tag_2:\n      revert(0x00, 0x00)\n        /* \"contracts/Counter.sol\":80:100  uint256 public count */\n    tag_3:\n      tag_6\n      sload(0x00)\n      dup2\n      jump\n    tag_6:\n      mload(0x40)\n        /* \"#utility.yul\":160:185   */\n      swap1\n      dup2\n      mstore\n        /* \"#utility.yul\":148:150   */\n      0x20\n        /* \"#utility.yul\":133:151   */\n      add\n        /* \"contracts/Counter.sol\":80:100  uint256 public count */\n      mload(0x40)\n      dup1\n      swap2\n      sub\n      swap1\n      return\n        /* \"contracts/Counter.sol\":186:243  function add(uint256 x)public {... */\n    tag_4:\n      tag_10\n      tag_11\n      calldatasize\n      0x04\n      tag_12\n      jump\t// in\n    tag_11:\n      tag_13\n      jump\t// in\n    tag_10:\n      stop\n        /* \"contracts/Counter.sol\":107:180  function get() public view returns (uint256){... */\n    tag_5:\n        /* \"contracts/Counter.sol\":143:150  uint256 */\n      0x00\n        /* \"contracts/Counter.sol\":168:173  count */\n      sload\n        /* \"contracts/Counter.sol\":107:180  function get() public view returns (uint256){... */\n      jump(tag_6)\n        /* \"contracts/Counter.sol\":186:243  function add(uint256 x)public {... */\n    tag_13:\n        /* \"contracts/Counter.sol\":235:236  x */\n      dup1\n        /* \"contracts/Counter.sol\":226:231  count */\n      0x00\n      0x00\n        /* \"contracts/Counter.sol\":226:236  count += x */\n      dup3\n      dup3\n      sload\n      tag_18\n      swap2\n      swap1\n      tag_19\n      jump\t// in\n    tag_18:\n      swap1\n      swap2\n      sstore\n      pop\n      pop\n      pop\n        /* \"contracts/Counter.sol\":186:243  function add(uint256 x)public {... */\n      jump\t// out\n        /* \"#utility.yul\":196:376   */\n    tag_12:\n        /* \"#utility.yul\":255:261   */\n      0x00\n        /* \"#utility.yul\":308:310   */\n      0x20\n        /* \"#utility.yul\":296:305   */\n      dup3\n        /* \"#utility.yul\":287:294   */\n      dup5\n        /* \"#utility.yul\":283:306   */\n      sub\n        /* \"#utility.yul\":279:311   */\n      slt\n        /* \"#utility.yul\":276:328   */\n      iszero\n      tag_24\n      jumpi\n        /* \"#utility.yul\":324:325   */\n      0x00\n        /* \"#utility.yul\":321:322   */\n      0x00\n        /* \"#utility.yul\":314:326   */\n      revert\n        /* \"#utility.yul\":276:328   */\n    tag_24:\n      pop\n        /* \"#utility.yul\":347:370   */\n      calldataload\n      swap2\n        /* \"#utility.yul\":196:376   */\n      swap1\n      pop\n      jump\t// out\n        /* \"#utility.yul\":381:603   */\n    tag_19:\n        /* \"#utility.yul\":446:455   */\n      dup1\n      dup3\n      add\n        /* \"#utility.yul\":467:477   */\n      dup1\n      dup3\n      gt\n        /* \"#utility.yul\":464:597   */\n      iszero\n      tag_26\n      jumpi\n        /* \"#utility.yul\":519:529   */\n      0x4e487b71\n        /* \"#utility.yul\":514:517   */\n      0xe0\n        /* \"#utility.yul\":510:530   */\n      shl\n        /* \"#utility.yul\":507:508   */\n      0x00\n        /* \"#utility.yul\":500:531   */\n      mstore\n        /* \"#utility.yul\":554:558   */\n      0x11\n        /* \"#utility.yul\":551:552   */\n      0x04\n        /* \"#utility.yul\":544:559   */\n      mstore\n        /* \"#utility.yul\":582:586   */\n      0x24\n        /* \"#utility.yul\":579:580   */\n      0x00\n        /* \"#utility.yul\":572:587   */\n      revert\n        /* \"#utility.yul\":464:597   */\n    tag_26:\n        /* \"#utility.yul\":381:603   */\n      swap3\n      swap2\n      pop\n      pop\n      jump\t// out\n\n    auxdata: 0xa2646970667358221220380706b4aaab40187645e07e7d06b29b2439ac54e836a1136b441d59d714140164736f6c634300081f0033\n}\n",
				"bytecode": {
					"linkReferences": {},
					"object": "6080604052348015600e575f5ffd5b5060f48061001b5f395ff3fe6080604052348015600e575f5ffd5b5060043610603a575f3560e01c806306661abd14603e5780631003e2d21460575780636d4ce63c146068575b5f5ffd5b60455f5481565b60405190815260200160405180910390f35b606660623660046084565b606e565b005b5f546045565b805f5f828254607c9190609a565b909155505050565b5f602082840312156093575f5ffd5b5035919050565b8082018082111560b857634e487b7160e01b5f52601160045260245ffd5b9291505056fea2646970667358221220380706b4aaab40187645e07e7d06b29b2439ac54e836a1136b441d59d714140164736f6c634300081f0033",
					"opcodes": "PUSH1 0x80 PUSH1 0x40 MSTORE CALLVALUE DUP1 ISZERO PUSH1 0xE JUMPI PUSH0 PUSH0 REVERT JUMPDEST POP PUSH1 0xF4 DUP1 PUSH2 0x1B PUSH0 CODECOPY PUSH0 RETURN INVALID PUSH1 0x80 PUSH1 0x40 MSTORE CALLVALUE DUP1 ISZERO PUSH1 0xE JUMPI PUSH0 PUSH0 REVERT JUMPDEST POP PUSH1 0x4 CALLDATASIZE LT PUSH1 0x3A JUMPI PUSH0 CALLDATALOAD PUSH1 0xE0 SHR DUP1 PUSH4 0x6661ABD EQ PUSH1 0x3E JUMPI DUP1 PUSH4 0x1003E2D2 EQ PUSH1 0x57 JUMPI DUP1 PUSH4 0x6D4CE63C EQ PUSH1 0x68 JUMPI JUMPDEST PUSH0 PUSH0 REVERT JUMPDEST PUSH1 0x45 PUSH0 SLOAD DUP2 JUMP JUMPDEST PUSH1 0x40 MLOAD SWAP1 DUP2 MSTORE PUSH1 0x20 ADD PUSH1 0x40 MLOAD DUP1 SWAP2 SUB SWAP1 RETURN JUMPDEST PUSH1 0x66 PUSH1 0x62 CALLDATASIZE PUSH1 0x4 PUSH1 0x84 JUMP JUMPDEST PUSH1 0x6E JUMP JUMPDEST STOP JUMPDEST PUSH0 SLOAD PUSH1 0x45 JUMP JUMPDEST DUP1 PUSH0 PUSH0 DUP3 DUP3 SLOAD PUSH1 0x7C SWAP2 SWAP1 PUSH1 0x9A JUMP JUMPDEST SWAP1 SWAP2 SSTORE POP POP POP JUMP JUMPDEST PUSH0 PUSH1 0x20 DUP3 DUP5 SUB SLT ISZERO PUSH1 0x93 JUMPI PUSH0 PUSH0 REVERT JUMPDEST POP CALLDATALOAD SWAP2 SWAP1 POP JUMP JUMPDEST DUP1 DUP3 ADD DUP1 DUP3 GT ISZERO PUSH1 0xB8 JUMPI PUSH4 0x4E487B71 PUSH1 0xE0 SHL PUSH0 MSTORE PUSH1 0x11 PUSH1 0x4 MSTORE PUSH1 0x24 PUSH0 REVERT JUMPDEST SWAP3 SWAP2 POP POP JUMP INVALID LOG2 PUSH5 0x6970667358 0x22 SLT KECCAK256 CODESIZE SMOD MOD 0xB4 0xAA 0xAB BLOCKHASH XOR PUSH23 0x45E07E7D06B29B2439AC54E836A1136B441D59D7141401 PUSH5 0x736F6C6343 STOP ADDMOD 0x1F STOP CALLER "
				},
				"gasEstimates": {
					"creation": {
						"codeDepositCost": "48800",
						"executionCost": "97",
						"totalCost": "48897"
					},
					"external": {
						"add(uint256)": "24519",
						"count()": "2259",
						"get()": "2300"
					}
				},
				"methodIdentifiers": {
					"add(uint256)": "1003e2d2",
					"count()": "06661abd",
					"get()": "6d4ce63c"
				}
			},
			"storageLayout": {
				"storage": [
					{
						"astId": 3,
						"contract": "contracts/Counter.sol:Counter",
						"label": "count",
						"offset": 0,
						"slot": "0",
						"type": "t_uint256"
					}
				],
				"types": {
					"t_uint256": {
						"encoding": "inplace",
						"label": "uint256",
						"numberOfBytes": "32"
					}
				}
			},
			"userdoc": {
				"kind": "user",
				"methods": {},
				"version": 1
			}
		}
	}
}