{
	"contracts/TokenBankV2.sol": {
		"ExtendedERC20": {
			"abi": [
				{
					"inputs": [],
					"stateMutability": "nonpayable",
					"type": "constructor"
				},
				{
					"anonymous": false,
					"inputs": [
						{
							"indexed": true,
							"internalType": "address",
							"name": "owner",
							"type": "address"
						},
						{
							"indexed": true,
							"internalType": "address",
							"name": "spender",
							"type": "address"
						},
						{
							"indexed": false,
							"internalType": "uint256",
							"name": "value",
							"type": "uint256"
						}
					],
					"name": "Approval",
					"type": "event"
				},
				{
					"anonymous": false,
					"inputs": [
						{
							"indexed": true,
							"internalType": "address",
							"name": "from",
							"type": "address"
						},
						{
							"indexed": true,
							"internalType": "address",
							"name": "to",
							"type": "address"
						},
						{
							"indexed": false,
							"internalType": "uint256",
							"name": "value",
							"type": "uint256"
						}
					],
					"name": "Transfer",
					"type": "event"
				},
				{
					"inputs": [
						{
							"internalType": "address",
							"name": "_owner",
							"type": "address"
						},
						{
							"internalType": "address",
							"name": "_spender",
							"type": "address"
						}
					],
					"name": "allowance",
					"outputs": [
						{
							"internalType": "uint256",
							"name": "remaining",
							"type": "uint256"
						}
					],
					"stateMutability": "view",
					"type": "function"
				},
				{
					"inputs": [
						{
							"internalType": "address",
							"name": "_spender",
							"type": "address"
						},
						{
							"internalType": "uint256",
							"name": "_value",
							"type": "uint256"
						}
					],
					"name": "approve",
					"outputs": [
						{
							"internalType": "bool",
							"name": "success",
							"type": "bool"
						}
					],
					"stateMutability": "nonpayable",
					"type": "function"
				},
				{
					"inputs": [
						{
							"internalType": "address",
							"name": "_owner",
							"type": "address"
						}
					],
					"name": "balanceOf",
					"outputs": [
						{
							"internalType": "uint256",
							"name": "balance",
							"type": "uint256"
						}
					],
					"stateMutability": "view",
					"type": "function"
				},
				{
					"inputs": [],
					"name": "decimals",
					"outputs": [
						{
							"internalType": "uint8",
							"name": "",
							"type": "uint8"
						}
					],
					"stateMutability": "view",
					"type": "function"
				},
				{
					"inputs": [],
					"name": "name",
					"outputs": [
						{
							"internalType": "string",
							"name": "",
							"type": "string"
						}
					],
					"stateMutability": "view",
					"type": "function"
				},
				{
					"inputs": [],
					"name": "symbol",
					"outputs": [
						{
							"internalType": "string",
							"name": "",
							"type": "string"
						}
					],
					"stateMutability": "view",
					"type": "function"
				},
				{
					"inputs": [],
					"name": "totalSupply",
					"outputs": [
						{
							"internalType": "uint256",
							"name": "",
							"type": "uint256"
						}
					],
					"stateMutability": "view",
					"type": "function"
				},
				{
					"inputs": [
						{
							"internalType": "address",
							"name": "_to",
							"type": "address"
						},
						{
							"internalType": "uint256",
							"name": "_value",
							"type": "uint256"
						}
					],
					"name": "transfer",
					"outputs": [
						{
							"internalType": "bool",
							"name": "success",
							"type": "bool"
						}
					],
					"stateMutability": "nonpayable",
					"type": "function"
				},
				{
					"inputs": [
						{
							"internalType": "address",
							"name": "_from",
							"type": "address"
						},
						{
							"internalType": "address",
							"name": "_to",
							"type": "address"
						},
						{
							"internalType": "uint256",
							"name": "_value",
							"type": "uint256"
						}
					],
					"name": "transferFrom",
					"outputs": [
						{
							"internalType": "bool",
							"name": "success",
							"type": "bool"
						}
					],
					"stateMutability": "nonpayable",
					"type": "function"
				},
				{
					"inputs": [
						{
							"internalType": "address",
							"name": "to",
							"type": "address"
						},
						{
							"internalType": "uint256",
							"name": "amount",
							"type": "uint256"
						}
					],
					"name": "transferWithCallBack",
					"outputs": [
						{
							"internalType": "bool",
							"name": "success",
							"type": "bool"
						}
					],
					"stateMutability": "nonpayable",
					"type": "function"
				}
			],
			"devdoc": {
				"kind": "dev",
				"methods": {},
				"version": 1
			},
			"evm": {
				"assembly": "    /* \"contracts/TokenBankV2.sol\":615:3570  contract ExtendedERC20 {... */\n  mstore(0x40, 0x80)\n    /* \"contracts/TokenBankV2.sol\":1033:1270  constructor() {... */\n  callvalue\n  dup1\n  iszero\n  tag_1\n  jumpi\n  revert(0x00, 0x00)\ntag_1:\n  pop\n    /* \"contracts/TokenBankV2.sol\":1057:1079  name = \"ExtendedERC20\" */\n  0x40\n  dup1\n  mload\n  dup1\n  dup3\n  add\n  swap1\n  swap2\n  mstore\n  0x0d\n  dup2\n  mstore\n  shl(0x9c, 0x0457874656e646564455243323)\n  0x20\n  dup3\n  add\n  mstore\n  0x00\n  swap1\n  tag_4\n  swap1\n  dup3\n  tag_5\n  jump\t// in\ntag_4:\n  pop\n    /* \"contracts/TokenBankV2.sol\":1089:1106  symbol = \"EERC20\" */\n  0x40\n  dup1\n  mload\n  dup1\n  dup3\n  add\n  swap1\n  swap2\n  mstore\n  0x06\n  dup2\n  mstore\n  shl(0xd4, 0x045455243323)\n  0x20\n  dup3\n  add\n  mstore\n    /* \"contracts/TokenBankV2.sol\":1089:1095  symbol */\n  0x01\n  swap1\n    /* \"contracts/TokenBankV2.sol\":1089:1106  symbol = \"EERC20\" */\n  tag_6\n  swap1\n    /* \"contracts/TokenBankV2.sol\":1089:1095  symbol */\n  dup3\n    /* \"contracts/TokenBankV2.sol\":1089:1106  symbol = \"EERC20\" */\n  tag_5\n  jump\t// in\ntag_6:\n  pop\n    /* \"contracts/TokenBankV2.sol\":1116:1124  decimals */\n  0x02\n    /* \"contracts/TokenBankV2.sol\":1116:1129  decimals = 18 */\n  dup1\n  sload\n  not(0xff)\n  and\n    /* \"contracts/TokenBankV2.sol\":1127:1129  18 */\n  0x12\n    /* \"contracts/TokenBankV2.sol\":1116:1129  decimals = 18 */\n  swap1\n  dup2\n  or\n  swap1\n  swap2\n  sstore\n    /* \"contracts/TokenBankV2.sol\":1165:1186  10**uint256(decimals) */\n  tag_7\n  swap1\n    /* \"contracts/TokenBankV2.sol\":1165:1167  10 */\n  0x0a\n    /* \"contracts/TokenBankV2.sol\":1165:1186  10**uint256(decimals) */\n  tag_8\n  jump\t// in\ntag_7:\n    /* \"contracts/TokenBankV2.sol\":1153:1186  100000000 * 10**uint256(decimals) */\n  tag_9\n  swap1\n    /* \"contracts/TokenBankV2.sol\":1153:1162  100000000 */\n  0x05f5e100\n    /* \"contracts/TokenBankV2.sol\":1153:1186  100000000 * 10**uint256(decimals) */\n  tag_10\n  jump\t// in\ntag_9:\n    /* \"contracts/TokenBankV2.sol\":1139:1150  totalSupply */\n  0x03\n    /* \"contracts/TokenBankV2.sol\":1139:1186  totalSupply = 100000000 * 10**uint256(decimals) */\n  dup2\n  swap1\n  sstore\n    /* \"contracts/TokenBankV2.sol\":1236:1246  msg.sender */\n  caller\n    /* \"contracts/TokenBankV2.sol\":1227:1247  balances[msg.sender] */\n  0x00\n  swap1\n  dup2\n  mstore\n    /* \"contracts/TokenBankV2.sol\":1227:1235  balances */\n  0x04\n    /* \"contracts/TokenBankV2.sol\":1227:1247  balances[msg.sender] */\n  0x20\n  mstore\n  0x40\n  swap1\n  keccak256\n    /* \"contracts/TokenBankV2.sol\":1227:1261  balances[msg.sender] = totalSupply */\n  sstore\n    /* \"contracts/TokenBankV2.sol\":615:3570  contract ExtendedERC20 {... */\n  jump(tag_20)\n    /* \"#utility.yul\":14:141   */\ntag_12:\n    /* \"#utility.yul\":75:85   */\n  0x4e487b71\n    /* \"#utility.yul\":70:73   */\n  0xe0\n    /* \"#utility.yul\":66:86   */\n  shl\n    /* \"#utility.yul\":63:64   */\n  0x00\n    /* \"#utility.yul\":56:87   */\n  mstore\n    /* \"#utility.yul\":106:110   */\n  0x41\n    /* \"#utility.yul\":103:104   */\n  0x04\n    /* \"#utility.yul\":96:111   */\n  mstore\n    /* \"#utility.yul\":130:134   */\n  0x24\n    /* \"#utility.yul\":127:128   */\n  0x00\n    /* \"#utility.yul\":120:135   */\n  revert\n    /* \"#utility.yul\":146:526   */\ntag_13:\n    /* \"#utility.yul\":225:226   */\n  0x01\n    /* \"#utility.yul\":221:233   */\n  dup2\n  dup2\n  shr\n  swap1\n    /* \"#utility.yul\":268:280   */\n  dup3\n  and\n  dup1\n    /* \"#utility.yul\":289:350   */\n  tag_23\n  jumpi\n    /* \"#utility.yul\":343:347   */\n  0x7f\n    /* \"#utility.yul\":335:341   */\n  dup3\n    /* \"#utility.yul\":331:348   */\n  and\n    /* \"#utility.yul\":321:348   */\n  swap2\n  pop\n    /* \"#utility.yul\":289:350   */\ntag_23:\n    /* \"#utility.yul\":396:398   */\n  0x20\n    /* \"#utility.yul\":388:394   */\n  dup3\n    /* \"#utility.yul\":385:399   */\n  lt\n    /* \"#utility.yul\":365:383   */\n  dup2\n    /* \"#utility.yul\":362:400   */\n  sub\n    /* \"#utility.yul\":359:520   */\n  tag_24\n  jumpi\n    /* \"#utility.yul\":442:452   */\n  0x4e487b71\n    /* \"#utility.yul\":437:440   */\n  0xe0\n    /* \"#utility.yul\":433:453   */\n  shl\n    /* \"#utility.yul\":430:431   */\n  0x00\n    /* \"#utility.yul\":423:454   */\n  mstore\n    /* \"#utility.yul\":477:481   */\n  0x22\n    /* \"#utility.yul\":474:475   */\n  0x04\n    /* \"#utility.yul\":467:482   */\n  mstore\n    /* \"#utility.yul\":505:509   */\n  0x24\n    /* \"#utility.yul\":502:503   */\n  0x00\n    /* \"#utility.yul\":495:510   */\n  revert\n    /* \"#utility.yul\":359:520   */\ntag_24:\n  pop\n    /* \"#utility.yul\":146:526   */\n  swap2\n  swap1\n  pop\n  jump\t// out\n    /* \"#utility.yul\":657:1175   */\ntag_15:\n    /* \"#utility.yul\":759:761   */\n  0x1f\n    /* \"#utility.yul\":754:757   */\n  dup3\n    /* \"#utility.yul\":751:762   */\n  gt\n    /* \"#utility.yul\":748:1169   */\n  iszero\n  tag_27\n  jumpi\n    /* \"#utility.yul\":795:800   */\n  dup1\n    /* \"#utility.yul\":792:793   */\n  0x00\n    /* \"#utility.yul\":785:801   */\n  mstore\n    /* \"#utility.yul\":839:843   */\n  0x20\n    /* \"#utility.yul\":836:837   */\n  0x00\n    /* \"#utility.yul\":826:844   */\n  keccak256\n    /* \"#utility.yul\":909:911   */\n  0x1f\n    /* \"#utility.yul\":897:907   */\n  dup5\n    /* \"#utility.yul\":893:912   */\n  add\n    /* \"#utility.yul\":890:891   */\n  0x05\n    /* \"#utility.yul\":886:913   */\n  shr\n    /* \"#utility.yul\":880:884   */\n  dup2\n    /* \"#utility.yul\":876:914   */\n  add\n    /* \"#utility.yul\":945:949   */\n  0x20\n    /* \"#utility.yul\":933:943   */\n  dup6\n    /* \"#utility.yul\":930:950   */\n  lt\n    /* \"#utility.yul\":927:974   */\n  iszero\n  tag_28\n  jumpi\n  pop\n    /* \"#utility.yul\":968:972   */\n  dup1\n    /* \"#utility.yul\":927:974   */\ntag_28:\n    /* \"#utility.yul\":1023:1025   */\n  0x1f\n    /* \"#utility.yul\":1018:1021   */\n  dup5\n    /* \"#utility.yul\":1014:1026   */\n  add\n    /* \"#utility.yul\":1011:1012   */\n  0x05\n    /* \"#utility.yul\":1007:1027   */\n  shr\n    /* \"#utility.yul\":1001:1005   */\n  dup3\n    /* \"#utility.yul\":997:1028   */\n  add\n    /* \"#utility.yul\":987:1028   */\n  swap2\n  pop\n    /* \"#utility.yul\":1078:1159   */\ntag_29:\n    /* \"#utility.yul\":1096:1098   */\n  dup2\n    /* \"#utility.yul\":1089:1094   */\n  dup2\n    /* \"#utility.yul\":1086:1099   */\n  lt\n    /* \"#utility.yul\":1078:1159   */\n  iszero\n  tag_31\n  jumpi\n    /* \"#utility.yul\":1155:1156   */\n  0x00\n    /* \"#utility.yul\":1141:1157   */\n  dup2\n  sstore\n    /* \"#utility.yul\":1122:1123   */\n  0x01\n    /* \"#utility.yul\":1111:1124   */\n  add\n    /* \"#utility.yul\":1078:1159   */\n  jump(tag_29)\ntag_31:\n    /* \"#utility.yul\":1082:1085   */\n  pop\n  pop\n    /* \"#utility.yul\":748:1169   */\ntag_27:\n    /* \"#utility.yul\":657:1175   */\n  pop\n  pop\n  pop\n  jump\t// out\n    /* \"#utility.yul\":1351:2650   */\ntag_5:\n    /* \"#utility.yul\":1471:1481   */\n  dup2\n  mload\n  sub(shl(0x40, 0x01), 0x01)\n    /* \"#utility.yul\":1493:1523   */\n  dup2\n  gt\n    /* \"#utility.yul\":1490:1546   */\n  iszero\n  tag_35\n  jumpi\n    /* \"#utility.yul\":1526:1544   */\n  tag_35\n  tag_12\n  jump\t// in\ntag_35:\n    /* \"#utility.yul\":1555:1652   */\n  tag_36\n    /* \"#utility.yul\":1645:1651   */\n  dup2\n    /* \"#utility.yul\":1605:1643   */\n  tag_37\n    /* \"#utility.yul\":1637:1641   */\n  dup5\n    /* \"#utility.yul\":1631:1642   */\n  sload\n    /* \"#utility.yul\":1605:1643   */\n  tag_13\n  jump\t// in\ntag_37:\n    /* \"#utility.yul\":1599:1603   */\n  dup5\n    /* \"#utility.yul\":1555:1652   */\n  tag_15\n  jump\t// in\ntag_36:\n    /* \"#utility.yul\":1701:1705   */\n  0x20\n    /* \"#utility.yul\":1732:1734   */\n  0x1f\n    /* \"#utility.yul\":1721:1735   */\n  dup3\n  gt\n    /* \"#utility.yul\":1749:1750   */\n  0x01\n    /* \"#utility.yul\":1744:2393   */\n  dup2\n  eq\n  tag_39\n  jumpi\n    /* \"#utility.yul\":2437:2438   */\n  0x00\n    /* \"#utility.yul\":2454:2460   */\n  dup4\n    /* \"#utility.yul\":2451:2540   */\n  iszero\n  tag_40\n  jumpi\n  pop\n    /* \"#utility.yul\":2506:2525   */\n  dup5\n  dup3\n  add\n    /* \"#utility.yul\":2500:2526   */\n  mload\n    /* \"#utility.yul\":2451:2540   */\ntag_40:\n  not(0x00)\n    /* \"#utility.yul\":1308:1309   */\n  0x03\n    /* \"#utility.yul\":1304:1315   */\n  dup6\n  swap1\n  shl\n    /* \"#utility.yul\":1300:1324   */\n  shr\n    /* \"#utility.yul\":1296:1325   */\n  not\n    /* \"#utility.yul\":1286:1326   */\n  and\n    /* \"#utility.yul\":1332:1333   */\n  0x01\n    /* \"#utility.yul\":1328:1339   */\n  dup5\n  swap1\n  shl\n    /* \"#utility.yul\":1283:1340   */\n  or\n    /* \"#utility.yul\":2553:2634   */\n  dup5\n  sstore\n    /* \"#utility.yul\":1714:2644   */\n  jump(tag_31)\n    /* \"#utility.yul\":1744:2393   */\ntag_39:\n    /* \"#utility.yul\":604:605   */\n  0x00\n    /* \"#utility.yul\":597:611   */\n  dup5\n  dup2\n  mstore\n    /* \"#utility.yul\":641:645   */\n  0x20\n    /* \"#utility.yul\":628:646   */\n  dup2\n  keccak256\n  not(0x1f)\n    /* \"#utility.yul\":1780:1800   */\n  dup6\n  and\n  swap2\n    /* \"#utility.yul\":1898:2120   */\ntag_43:\n    /* \"#utility.yul\":1912:1919   */\n  dup3\n    /* \"#utility.yul\":1909:1910   */\n  dup2\n    /* \"#utility.yul\":1906:1920   */\n  lt\n    /* \"#utility.yul\":1898:2120   */\n  iszero\n  tag_45\n  jumpi\n    /* \"#utility.yul\":1994:2013   */\n  dup8\n  dup6\n  add\n    /* \"#utility.yul\":1988:2014   */\n  mload\n    /* \"#utility.yul\":1973:2015   */\n  dup3\n  sstore\n    /* \"#utility.yul\":2101:2105   */\n  0x20\n    /* \"#utility.yul\":2086:2106   */\n  swap5\n  dup6\n  add\n  swap5\n    /* \"#utility.yul\":2054:2055   */\n  0x01\n    /* \"#utility.yul\":2042:2056   */\n  swap1\n  swap3\n  add\n  swap2\n    /* \"#utility.yul\":1928:1940   */\n  add\n    /* \"#utility.yul\":1898:2120   */\n  jump(tag_43)\ntag_45:\n    /* \"#utility.yul\":1902:1905   */\n  pop\n    /* \"#utility.yul\":2148:2154   */\n  dup5\n    /* \"#utility.yul\":2139:2146   */\n  dup3\n    /* \"#utility.yul\":2136:2155   */\n  lt\n    /* \"#utility.yul\":2133:2334   */\n  iszero\n  tag_46\n  jumpi\n    /* \"#utility.yul\":2209:2228   */\n  dup7\n  dup5\n  add\n    /* \"#utility.yul\":2203:2229   */\n  mload\n  not(0x00)\n    /* \"#utility.yul\":2292:2293   */\n  0x03\n    /* \"#utility.yul\":2288:2302   */\n  dup8\n  swap1\n  shl\n    /* \"#utility.yul\":2304:2307   */\n  0xf8\n    /* \"#utility.yul\":2284:2308   */\n  and\n    /* \"#utility.yul\":2280:2317   */\n  shr\n    /* \"#utility.yul\":2276:2318   */\n  not\n    /* \"#utility.yul\":2261:2319   */\n  and\n    /* \"#utility.yul\":2246:2320   */\n  dup2\n  sstore\n    /* \"#utility.yul\":2133:2334   */\ntag_46:\n  pop\n  pop\n  pop\n  pop\n    /* \"#utility.yul\":2380:2381   */\n  0x01\n    /* \"#utility.yul\":2364:2378   */\n  swap1\n  dup2\n  shl\n    /* \"#utility.yul\":2360:2382   */\n  add\n    /* \"#utility.yul\":2347:2383   */\n  swap1\n  sstore\n  pop\n    /* \"#utility.yul\":1351:2650   */\n  jump\t// out\n    /* \"#utility.yul\":2655:2782   */\ntag_17:\n    /* \"#utility.yul\":2716:2726   */\n  0x4e487b71\n    /* \"#utility.yul\":2711:2714   */\n  0xe0\n    /* \"#utility.yul\":2707:2727   */\n  shl\n    /* \"#utility.yul\":2704:2705   */\n  0x00\n    /* \"#utility.yul\":2697:2728   */\n  mstore\n    /* \"#utility.yul\":2747:2751   */\n  0x11\n    /* \"#utility.yul\":2744:2745   */\n  0x04\n    /* \"#utility.yul\":2737:2752   */\n  mstore\n    /* \"#utility.yul\":2771:2775   */\n  0x24\n    /* \"#utility.yul\":2768:2769   */\n  0x00\n    /* \"#utility.yul\":2761:2776   */\n  revert\n    /* \"#utility.yul\":2787:3162   */\ntag_18:\n    /* \"#utility.yul\":2875:2876   */\n  0x01\n    /* \"#utility.yul\":2893:2898   */\n  dup2\n    /* \"#utility.yul\":2907:3156   */\ntag_49:\n    /* \"#utility.yul\":2928:2929   */\n  0x01\n    /* \"#utility.yul\":2918:2926   */\n  dup5\n    /* \"#utility.yul\":2915:2930   */\n  gt\n    /* \"#utility.yul\":2907:3156   */\n  iszero\n  tag_51\n  jumpi\n    /* \"#utility.yul\":2978:2982   */\n  dup1\n    /* \"#utility.yul\":2973:2976   */\n  dup6\n    /* \"#utility.yul\":2969:2983   */\n  div\n    /* \"#utility.yul\":2963:2967   */\n  dup2\n    /* \"#utility.yul\":2960:2984   */\n  gt\n    /* \"#utility.yul\":2957:3007   */\n  iszero\n  tag_53\n  jumpi\n    /* \"#utility.yul\":2987:3005   */\n  tag_53\n  tag_17\n  jump\t// in\ntag_53:\n    /* \"#utility.yul\":3037:3038   */\n  0x01\n    /* \"#utility.yul\":3027:3035   */\n  dup5\n    /* \"#utility.yul\":3023:3039   */\n  and\n    /* \"#utility.yul\":3020:3069   */\n  iszero\n  tag_54\n  jumpi\n    /* \"#utility.yul\":3051:3067   */\n  swap1\n  dup2\n  mul\n  swap1\n    /* \"#utility.yul\":3020:3069   */\ntag_54:\n    /* \"#utility.yul\":3134:3135   */\n  0x01\n    /* \"#utility.yul\":3130:3146   */\n  swap4\n  swap1\n  swap4\n  shr\n  swap3\n    /* \"#utility.yul\":3090:3105   */\n  dup1\n  mul\n    /* \"#utility.yul\":2907:3156   */\n  jump(tag_49)\ntag_51:\n    /* \"#utility.yul\":2787:3162   */\n  swap4\n  pop\n  swap4\n  swap2\n  pop\n  pop\n  jump\t// out\n    /* \"#utility.yul\":3167:4069   */\ntag_19:\n    /* \"#utility.yul\":3216:3221   */\n  0x00\n    /* \"#utility.yul\":3246:3254   */\n  dup3\n    /* \"#utility.yul\":3236:3316   */\n  tag_56\n  jumpi\n  pop\n    /* \"#utility.yul\":3287:3288   */\n  0x01\n    /* \"#utility.yul\":3301:3306   */\n  jump(tag_55)\n    /* \"#utility.yul\":3236:3316   */\ntag_56:\n    /* \"#utility.yul\":3335:3339   */\n  dup2\n    /* \"#utility.yul\":3325:3401   */\n  tag_57\n  jumpi\n  pop\n    /* \"#utility.yul\":3372:3373   */\n  0x00\n    /* \"#utility.yul\":3386:3391   */\n  jump(tag_55)\n    /* \"#utility.yul\":3325:3401   */\ntag_57:\n    /* \"#utility.yul\":3417:3421   */\n  dup2\n    /* \"#utility.yul\":3435:3436   */\n  0x01\n    /* \"#utility.yul\":3430:3489   */\n  dup2\n  eq\n  tag_59\n  jumpi\n    /* \"#utility.yul\":3503:3504   */\n  0x02\n    /* \"#utility.yul\":3498:3672   */\n  dup2\n  eq\n  tag_60\n  jumpi\n    /* \"#utility.yul\":3410:3672   */\n  jump(tag_58)\n    /* \"#utility.yul\":3430:3489   */\ntag_59:\n    /* \"#utility.yul\":3460:3461   */\n  0x01\n    /* \"#utility.yul\":3451:3461   */\n  swap2\n  pop\n    /* \"#utility.yul\":3474:3479   */\n  pop\n  jump(tag_55)\n    /* \"#utility.yul\":3498:3672   */\ntag_60:\n    /* \"#utility.yul\":3535:3538   */\n  0xff\n    /* \"#utility.yul\":3525:3533   */\n  dup5\n    /* \"#utility.yul\":3522:3539   */\n  gt\n    /* \"#utility.yul\":3519:3562   */\n  iszero\n  tag_62\n  jumpi\n    /* \"#utility.yul\":3542:3560   */\n  tag_62\n  tag_17\n  jump\t// in\ntag_62:\n  pop\n  pop\n    /* \"#utility.yul\":3598:3599   */\n  0x01\n    /* \"#utility.yul\":3584:3600   */\n  dup3\n  shl\n    /* \"#utility.yul\":3657:3662   */\n  jump(tag_55)\n    /* \"#utility.yul\":3410:3672   */\ntag_58:\n  pop\n    /* \"#utility.yul\":3756:3758   */\n  0x20\n    /* \"#utility.yul\":3746:3754   */\n  dup4\n    /* \"#utility.yul\":3743:3759   */\n  lt\n    /* \"#utility.yul\":3737:3740   */\n  0x0133\n    /* \"#utility.yul\":3731:3735   */\n  dup4\n    /* \"#utility.yul\":3728:3741   */\n  lt\n    /* \"#utility.yul\":3724:3760   */\n  and\n    /* \"#utility.yul\":3718:3720   */\n  0x4e\n    /* \"#utility.yul\":3708:3716   */\n  dup5\n    /* \"#utility.yul\":3705:3721   */\n  lt\n    /* \"#utility.yul\":3700:3702   */\n  0x0b\n    /* \"#utility.yul\":3694:3698   */\n  dup5\n    /* \"#utility.yul\":3691:3703   */\n  lt\n    /* \"#utility.yul\":3687:3722   */\n  and\n    /* \"#utility.yul\":3684:3761   */\n  or\n    /* \"#utility.yul\":3681:3884   */\n  iszero\n  tag_63\n  jumpi\n  pop\n    /* \"#utility.yul\":3793:3812   */\n  dup2\n  dup2\n  exp\n    /* \"#utility.yul\":3869:3874   */\n  jump(tag_55)\n    /* \"#utility.yul\":3681:3884   */\ntag_63:\n    /* \"#utility.yul\":3916:3958   */\n  tag_64\n  not(0x00)\n    /* \"#utility.yul\":3941:3949   */\n  dup5\n    /* \"#utility.yul\":3935:3939   */\n  dup5\n    /* \"#utility.yul\":3916:3958   */\n  tag_18\n  jump\t// in\ntag_64:\n    /* \"#utility.yul\":3994:4000   */\n  dup1\n    /* \"#utility.yul\":3990:3991   */\n  0x00\n    /* \"#utility.yul\":3986:3992   */\n  not\n    /* \"#utility.yul\":3982:4001   */\n  div\n    /* \"#utility.yul\":3973:3980   */\n  dup3\n    /* \"#utility.yul\":3970:4002   */\n  gt\n    /* \"#utility.yul\":3967:4025   */\n  iszero\n  tag_66\n  jumpi\n    /* \"#utility.yul\":4005:4023   */\n  tag_66\n  tag_17\n  jump\t// in\ntag_66:\n    /* \"#utility.yul\":4043:4063   */\n  mul\n  swap1\n  pop\n    /* \"#utility.yul\":3167:4069   */\ntag_55:\n  swap3\n  swap2\n  pop\n  pop\n  jump\t// out\n    /* \"#utility.yul\":4074:4205   */\ntag_8:\n    /* \"#utility.yul\":4134:4139   */\n  0x00\n    /* \"#utility.yul\":4163:4199   */\n  tag_68\n    /* \"#utility.yul\":4190:4198   */\n  dup4\n    /* \"#utility.yul\":4184:4188   */\n  dup4\n    /* \"#utility.yul\":4163:4199   */\n  tag_19\n  jump\t// in\ntag_68:\n    /* \"#utility.yul\":4154:4199   */\n  swap4\n    /* \"#utility.yul\":4074:4205   */\n  swap3\n  pop\n  pop\n  pop\n  jump\t// out\n    /* \"#utility.yul\":4210:4378   */\ntag_10:\n    /* \"#utility.yul\":4283:4292   */\n  dup1\n  dup3\n  mul\n    /* \"#utility.yul\":4314:4323   */\n  dup2\n  iszero\n    /* \"#utility.yul\":4331:4346   */\n  dup3\n  dup3\n  div\n    /* \"#utility.yul\":4325:4347   */\n  dup5\n  eq\n    /* \"#utility.yul\":4311:4348   */\n  or\n    /* \"#utility.yul\":4301:4372   */\n  tag_55\n  jumpi\n    /* \"#utility.yul\":4352:4370   */\n  tag_55\n  tag_17\n  jump\t// in\n    /* \"#utility.yul\":4210:4378   */\ntag_20:\n    /* \"contracts/TokenBankV2.sol\":615:3570  contract ExtendedERC20 {... */\n  dataSize(sub_0)\n  dup1\n  dataOffset(sub_0)\n  0x00\n  codecopy\n  0x00\n  return\nstop\n\nsub_0: assembly {\n        /* \"contracts/TokenBankV2.sol\":615:3570  contract ExtendedERC20 {... */\n      mstore(0x40, 0x80)\n      callvalue\n      dup1\n      iszero\n      tag_1\n      jumpi\n      revert(0x00, 0x00)\n    tag_1:\n      pop\n      jumpi(tag_2, lt(calldatasize, 0x04))\n      shr(0xe0, calldataload(0x00))\n      dup1\n      0x473e711b\n      gt\n      tag_13\n      jumpi\n      dup1\n      0x473e711b\n      eq\n      tag_8\n      jumpi\n      dup1\n      0x70a08231\n      eq\n      tag_9\n      jumpi\n      dup1\n      0x95d89b41\n      eq\n      tag_10\n      jumpi\n      dup1\n      0xa9059cbb\n      eq\n      tag_11\n      jumpi\n      dup1\n      0xdd62ed3e\n      eq\n      tag_12\n      jumpi\n      revert(0x00, 0x00)\n    tag_13:\n      dup1\n      0x06fdde03\n      eq\n      tag_3\n      jumpi\n      dup1\n      0x095ea7b3\n      eq\n      tag_4\n      jumpi\n      dup1\n      0x18160ddd\n      eq\n      tag_5\n      jumpi\n      dup1\n      0x23b872dd\n      eq\n      tag_6\n      jumpi\n      dup1\n      0x313ce567\n      eq\n      tag_7\n      jumpi\n    tag_2:\n      revert(0x00, 0x00)\n        /* \"contracts/TokenBankV2.sol\":644:662  string public name */\n    tag_3:\n      tag_14\n      tag_15\n      jump\t// in\n    tag_14:\n      mload(0x40)\n      tag_16\n      swap2\n      swap1\n      tag_17\n      jump\t// in\n    tag_16:\n      mload(0x40)\n      dup1\n      swap2\n      sub\n      swap1\n      return\n        /* \"contracts/TokenBankV2.sol\":2386:2690  function approve(address _spender, uint256 _value) public returns (bool success) {... */\n    tag_4:\n      tag_18\n      tag_19\n      calldatasize\n      0x04\n      tag_20\n      jump\t// in\n    tag_19:\n      tag_21\n      jump\t// in\n    tag_18:\n      mload(0x40)\n        /* \"#utility.yul\":1085:1099   */\n      swap1\n      iszero\n        /* \"#utility.yul\":1078:1100   */\n      iszero\n        /* \"#utility.yul\":1060:1101   */\n      dup2\n      mstore\n        /* \"#utility.yul\":1048:1050   */\n      0x20\n        /* \"#utility.yul\":1033:1051   */\n      add\n        /* \"contracts/TokenBankV2.sol\":2386:2690  function approve(address _spender, uint256 _value) public returns (bool success) {... */\n      tag_16\n        /* \"#utility.yul\":920:1107   */\n      jump\n        /* \"contracts/TokenBankV2.sol\":725:751  uint256 public totalSupply */\n    tag_5:\n      tag_24\n      sload(0x03)\n      dup2\n      jump\n    tag_24:\n      mload(0x40)\n        /* \"#utility.yul\":1258:1283   */\n      swap1\n      dup2\n      mstore\n        /* \"#utility.yul\":1246:1248   */\n      0x20\n        /* \"#utility.yul\":1231:1249   */\n      add\n        /* \"contracts/TokenBankV2.sol\":725:751  uint256 public totalSupply */\n      tag_16\n        /* \"#utility.yul\":1112:1289   */\n      jump\n        /* \"contracts/TokenBankV2.sol\":1813:2380  function transferFrom(address _from, address _to, uint256 _value) public returns (bool success) {... */\n    tag_6:\n      tag_18\n      tag_29\n      calldatasize\n      0x04\n      tag_30\n      jump\t// in\n    tag_29:\n      tag_31\n      jump\t// in\n        /* \"contracts/TokenBankV2.sol\":696:717  uint8 public decimals */\n    tag_7:\n      sload(0x02)\n      tag_33\n      swap1\n      0xff\n      and\n      dup2\n      jump\n    tag_33:\n      mload(0x40)\n        /* \"#utility.yul\":1845:1849   */\n      0xff\n        /* \"#utility.yul\":1833:1850   */\n      swap1\n      swap2\n      and\n        /* \"#utility.yul\":1815:1851   */\n      dup2\n      mstore\n        /* \"#utility.yul\":1803:1805   */\n      0x20\n        /* \"#utility.yul\":1788:1806   */\n      add\n        /* \"contracts/TokenBankV2.sol\":696:717  uint8 public decimals */\n      tag_16\n        /* \"#utility.yul\":1673:1857   */\n      jump\n        /* \"contracts/TokenBankV2.sol\":2850:3381  function transferWithCallBack(address to, uint256 amount)public returns (bool success){... */\n    tag_8:\n      tag_18\n      tag_38\n      calldatasize\n      0x04\n      tag_20\n      jump\t// in\n    tag_38:\n      tag_39\n      jump\t// in\n        /* \"contracts/TokenBankV2.sol\":1276:1389  function balanceOf(address _owner) public view returns (uint256 balance) {... */\n    tag_9:\n      tag_24\n      tag_42\n      calldatasize\n      0x04\n      tag_43\n      jump\t// in\n    tag_42:\n      sub(shl(0xa0, 0x01), 0x01)\n        /* \"contracts/TokenBankV2.sol\":1366:1382  balances[_owner] */\n      and\n        /* \"contracts/TokenBankV2.sol\":1332:1347  uint256 balance */\n      0x00\n        /* \"contracts/TokenBankV2.sol\":1366:1382  balances[_owner] */\n      swap1\n      dup2\n      mstore\n        /* \"contracts/TokenBankV2.sol\":1366:1374  balances */\n      0x04\n        /* \"contracts/TokenBankV2.sol\":1366:1382  balances[_owner] */\n      0x20\n      mstore\n      0x40\n      swap1\n      keccak256\n      sload\n      swap1\n        /* \"contracts/TokenBankV2.sol\":1276:1389  function balanceOf(address _owner) public view returns (uint256 balance) {... */\n      jump\n        /* \"contracts/TokenBankV2.sol\":669:689  string public symbol */\n    tag_10:\n      tag_14\n      tag_47\n      jump\t// in\n        /* \"contracts/TokenBankV2.sol\":1395:1802  function transfer(address _to, uint256 _value) public returns (bool success) {... */\n    tag_11:\n      tag_18\n      tag_50\n      calldatasize\n      0x04\n      tag_20\n      jump\t// in\n    tag_50:\n      tag_51\n      jump\t// in\n        /* \"contracts/TokenBankV2.sol\":2696:2844  function allowance(address _owner, address _spender) public view returns (uint256 remaining) {   ... */\n    tag_12:\n      tag_24\n      tag_54\n      calldatasize\n      0x04\n      tag_55\n      jump\t// in\n    tag_54:\n      sub(shl(0xa0, 0x01), 0x01)\n        /* \"contracts/TokenBankV2.sol\":2809:2827  allowances[_owner] */\n      swap2\n      dup3\n      and\n        /* \"contracts/TokenBankV2.sol\":2770:2787  uint256 remaining */\n      0x00\n        /* \"contracts/TokenBankV2.sol\":2809:2827  allowances[_owner] */\n      swap1\n      dup2\n      mstore\n        /* \"contracts/TokenBankV2.sol\":2809:2819  allowances */\n      0x05\n        /* \"contracts/TokenBankV2.sol\":2809:2827  allowances[_owner] */\n      0x20\n      swap1\n      dup2\n      mstore\n      0x40\n      dup1\n      dup4\n      keccak256\n        /* \"contracts/TokenBankV2.sol\":2809:2837  allowances[_owner][_spender] */\n      swap4\n      swap1\n      swap5\n      and\n      dup3\n      mstore\n      swap2\n      swap1\n      swap2\n      mstore\n      keccak256\n      sload\n      swap1\n        /* \"contracts/TokenBankV2.sol\":2696:2844  function allowance(address _owner, address _spender) public view returns (uint256 remaining) {   ... */\n      jump\n        /* \"contracts/TokenBankV2.sol\":644:662  string public name */\n    tag_15:\n      0x00\n      dup1\n      sload\n      tag_58\n      swap1\n      tag_59\n      jump\t// in\n    tag_58:\n      dup1\n      0x1f\n      add\n      0x20\n      dup1\n      swap2\n      div\n      mul\n      0x20\n      add\n      mload(0x40)\n      swap1\n      dup2\n      add\n      0x40\n      mstore\n      dup1\n      swap3\n      swap2\n      swap1\n      dup2\n      dup2\n      mstore\n      0x20\n      add\n      dup3\n      dup1\n      sload\n      tag_60\n      swap1\n      tag_59\n      jump\t// in\n    tag_60:\n      dup1\n      iszero\n      tag_61\n      jumpi\n      dup1\n      0x1f\n      lt\n      tag_62\n      jumpi\n      0x0100\n      dup1\n      dup4\n      sload\n      div\n      mul\n      dup4\n      mstore\n      swap2\n      0x20\n      add\n      swap2\n      jump(tag_61)\n    tag_62:\n      dup3\n      add\n      swap2\n      swap1\n      0x00\n      mstore\n      keccak256(0x00, 0x20)\n      swap1\n    tag_63:\n      dup2\n      sload\n      dup2\n      mstore\n      swap1\n      0x01\n      add\n      swap1\n      0x20\n      add\n      dup1\n      dup4\n      gt\n      tag_63\n      jumpi\n      dup3\n      swap1\n      sub\n      0x1f\n      and\n      dup3\n      add\n      swap2\n    tag_61:\n      pop\n      pop\n      pop\n      pop\n      pop\n      dup2\n      jump\t// out\n        /* \"contracts/TokenBankV2.sol\":2386:2690  function approve(address _spender, uint256 _value) public returns (bool success) {... */\n    tag_21:\n        /* \"contracts/TokenBankV2.sol\":2453:2465  bool success */\n      0x00\n      sub(shl(0xa0, 0x01), 0x01)\n        /* \"contracts/TokenBankV2.sol\":2485:2507  _spender != address(0) */\n      dup4\n      and\n        /* \"contracts/TokenBankV2.sol\":2477:2546  require(_spender != address(0), \"ERC20: approve to the zero address\") */\n      tag_65\n      jumpi\n      mload(0x40)\n      shl(0xe5, 0x461bcd)\n      dup2\n      mstore\n        /* \"#utility.yul\":2905:2907   */\n      0x20\n        /* \"contracts/TokenBankV2.sol\":2477:2546  require(_spender != address(0), \"ERC20: approve to the zero address\") */\n      0x04\n      dup3\n      add\n        /* \"#utility.yul\":2887:2908   */\n      mstore\n        /* \"#utility.yul\":2944:2946   */\n      0x22\n        /* \"#utility.yul\":2924:2942   */\n      0x24\n      dup3\n      add\n        /* \"#utility.yul\":2917:2947   */\n      mstore\n        /* \"#utility.yul\":2983:3017   */\n      0x45524332303a20617070726f766520746f20746865207a65726f206164647265\n        /* \"#utility.yul\":2963:2981   */\n      0x44\n      dup3\n      add\n        /* \"#utility.yul\":2956:3018   */\n      mstore\n      shl(0xf0, 0x7373)\n        /* \"#utility.yul\":3034:3052   */\n      0x64\n      dup3\n      add\n        /* \"#utility.yul\":3027:3059   */\n      mstore\n        /* \"#utility.yul\":3076:3095   */\n      0x84\n      add\n        /* \"contracts/TokenBankV2.sol\":2477:2546  require(_spender != address(0), \"ERC20: approve to the zero address\") */\n    tag_66:\n      mload(0x40)\n      dup1\n      swap2\n      sub\n      swap1\n      revert\n    tag_65:\n        /* \"contracts/TokenBankV2.sol\":2576:2586  msg.sender */\n      caller\n        /* \"contracts/TokenBankV2.sol\":2565:2587  allowances[msg.sender] */\n      0x00\n      dup2\n      dup2\n      mstore\n        /* \"contracts/TokenBankV2.sol\":2565:2575  allowances */\n      0x05\n        /* \"contracts/TokenBankV2.sol\":2565:2587  allowances[msg.sender] */\n      0x20\n      swap1\n      dup2\n      mstore\n      0x40\n      dup1\n      dup4\n      keccak256\n      sub(shl(0xa0, 0x01), 0x01)\n        /* \"contracts/TokenBankV2.sol\":2565:2597  allowances[msg.sender][_spender] */\n      dup9\n      and\n      dup1\n      dup6\n      mstore\n      swap1\n      dup4\n      mstore\n      swap3\n      dup2\n      swap1\n      keccak256\n        /* \"contracts/TokenBankV2.sol\":2565:2606  allowances[msg.sender][_spender] = _value */\n      dup7\n      swap1\n      sstore\n        /* \"contracts/TokenBankV2.sol\":2622:2660  Approval(msg.sender, _spender, _value) */\n      mload\n        /* \"#utility.yul\":1258:1283   */\n      dup6\n      dup2\n      mstore\n        /* \"contracts/TokenBankV2.sol\":2565:2597  allowances[msg.sender][_spender] */\n      swap2\n      swap3\n        /* \"contracts/TokenBankV2.sol\":2576:2586  msg.sender */\n      swap2\n        /* \"contracts/TokenBankV2.sol\":2622:2660  Approval(msg.sender, _spender, _value) */\n      0x8c5be1e5ebec7d5bd14f71427d1e84f3dd0314c0f7b2291e5b200ac8c7c3b925\n      swap2\n        /* \"#utility.yul\":1231:1249   */\n      add\n        /* \"contracts/TokenBankV2.sol\":2622:2660  Approval(msg.sender, _spender, _value) */\n    tag_68:\n      mload(0x40)\n      dup1\n      swap2\n      sub\n      swap1\n      log3\n      pop\n        /* \"contracts/TokenBankV2.sol\":2678:2682  true */\n      0x01\n        /* \"contracts/TokenBankV2.sol\":2386:2690  function approve(address _spender, uint256 _value) public returns (bool success) {... */\n    tag_64:\n      swap3\n      swap2\n      pop\n      pop\n      jump\t// out\n        /* \"contracts/TokenBankV2.sol\":1813:2380  function transferFrom(address _from, address _to, uint256 _value) public returns (bool success) {... */\n    tag_31:\n      sub(shl(0xa0, 0x01), 0x01)\n        /* \"contracts/TokenBankV2.sol\":1927:1942  balances[_from] */\n      dup4\n      and\n        /* \"contracts/TokenBankV2.sol\":1895:1907  bool success */\n      0x00\n        /* \"contracts/TokenBankV2.sol\":1927:1942  balances[_from] */\n      swap1\n      dup2\n      mstore\n        /* \"contracts/TokenBankV2.sol\":1927:1935  balances */\n      0x04\n        /* \"contracts/TokenBankV2.sol\":1927:1942  balances[_from] */\n      0x20\n      mstore\n      0x40\n      dup2\n      keccak256\n      sload\n        /* \"contracts/TokenBankV2.sol\":1927:1952  balances[_from] >= _value */\n      dup3\n      gt\n      iszero\n        /* \"contracts/TokenBankV2.sol\":1919:1995  require(balances[_from] >= _value, \"ERC20: transfer amount exceeds balance\") */\n      tag_70\n      jumpi\n      mload(0x40)\n      shl(0xe5, 0x461bcd)\n      dup2\n      mstore\n      0x04\n      add\n      tag_66\n      swap1\n      tag_72\n      jump\t// in\n    tag_70:\n      sub(shl(0xa0, 0x01), 0x01)\n        /* \"contracts/TokenBankV2.sol\":2013:2030  allowances[_from] */\n      dup5\n      and\n      0x00\n      swap1\n      dup2\n      mstore\n        /* \"contracts/TokenBankV2.sol\":2013:2023  allowances */\n      0x05\n        /* \"contracts/TokenBankV2.sol\":2013:2030  allowances[_from] */\n      0x20\n      swap1\n      dup2\n      mstore\n      0x40\n      dup1\n      dup4\n      keccak256\n        /* \"contracts/TokenBankV2.sol\":2031:2041  msg.sender */\n      caller\n        /* \"contracts/TokenBankV2.sol\":2013:2042  allowances[_from][msg.sender] */\n      dup5\n      mstore\n      swap1\n      swap2\n      mstore\n      swap1\n      keccak256\n      sload\n        /* \"contracts/TokenBankV2.sol\":2013:2052  allowances[_from][msg.sender] >= _value */\n      dup3\n      gt\n      iszero\n        /* \"contracts/TokenBankV2.sol\":2005:2097  require(allowances[_from][msg.sender] >= _value, \"ERC20: transfer amount exceeds allowance\") */\n      tag_73\n      jumpi\n      mload(0x40)\n      shl(0xe5, 0x461bcd)\n      dup2\n      mstore\n        /* \"#utility.yul\":3715:3717   */\n      0x20\n        /* \"contracts/TokenBankV2.sol\":2005:2097  require(allowances[_from][msg.sender] >= _value, \"ERC20: transfer amount exceeds allowance\") */\n      0x04\n      dup3\n      add\n        /* \"#utility.yul\":3697:3718   */\n      mstore\n        /* \"#utility.yul\":3754:3756   */\n      0x28\n        /* \"#utility.yul\":3734:3752   */\n      0x24\n      dup3\n      add\n        /* \"#utility.yul\":3727:3757   */\n      mstore\n        /* \"#utility.yul\":3793:3827   */\n      0x45524332303a207472616e7366657220616d6f756e7420657863656564732061\n        /* \"#utility.yul\":3773:3791   */\n      0x44\n      dup3\n      add\n        /* \"#utility.yul\":3766:3828   */\n      mstore\n      shl(0xc0, 0x6c6c6f77616e6365)\n        /* \"#utility.yul\":3844:3862   */\n      0x64\n      dup3\n      add\n        /* \"#utility.yul\":3837:3875   */\n      mstore\n        /* \"#utility.yul\":3892:3911   */\n      0x84\n      add\n        /* \"contracts/TokenBankV2.sol\":2005:2097  require(allowances[_from][msg.sender] >= _value, \"ERC20: transfer amount exceeds allowance\") */\n      tag_66\n        /* \"#utility.yul\":3513:3917   */\n      jump\n        /* \"contracts/TokenBankV2.sol\":2005:2097  require(allowances[_from][msg.sender] >= _value, \"ERC20: transfer amount exceeds allowance\") */\n    tag_73:\n      sub(shl(0xa0, 0x01), 0x01)\n        /* \"contracts/TokenBankV2.sol\":2115:2132  _to != address(0) */\n      dup4\n      and\n        /* \"contracts/TokenBankV2.sol\":2107:2172  require(_to != address(0), \"ERC20: transfer to the zero address\") */\n      tag_76\n      jumpi\n      mload(0x40)\n      shl(0xe5, 0x461bcd)\n      dup2\n      mstore\n      0x04\n      add\n      tag_66\n      swap1\n      tag_78\n      jump\t// in\n    tag_76:\n      sub(shl(0xa0, 0x01), 0x01)\n        /* \"contracts/TokenBankV2.sol\":2191:2206  balances[_from] */\n      dup5\n      and\n      0x00\n      swap1\n      dup2\n      mstore\n        /* \"contracts/TokenBankV2.sol\":2191:2199  balances */\n      0x04\n        /* \"contracts/TokenBankV2.sol\":2191:2206  balances[_from] */\n      0x20\n      mstore\n      0x40\n      dup2\n      keccak256\n        /* \"contracts/TokenBankV2.sol\":2191:2216  balances[_from] -= _value */\n      dup1\n      sload\n        /* \"contracts/TokenBankV2.sol\":2210:2216  _value */\n      dup5\n      swap3\n        /* \"contracts/TokenBankV2.sol\":2191:2206  balances[_from] */\n      swap1\n        /* \"contracts/TokenBankV2.sol\":2191:2216  balances[_from] -= _value */\n      tag_79\n      swap1\n        /* \"contracts/TokenBankV2.sol\":2210:2216  _value */\n      dup5\n      swap1\n        /* \"contracts/TokenBankV2.sol\":2191:2216  balances[_from] -= _value */\n      tag_80\n      jump\t// in\n    tag_79:\n      swap1\n      swap2\n      sstore\n      pop\n      pop\n      sub(shl(0xa0, 0x01), 0x01)\n        /* \"contracts/TokenBankV2.sol\":2226:2239  balances[_to] */\n      dup4\n      and\n      0x00\n      swap1\n      dup2\n      mstore\n        /* \"contracts/TokenBankV2.sol\":2226:2234  balances */\n      0x04\n        /* \"contracts/TokenBankV2.sol\":2226:2239  balances[_to] */\n      0x20\n      mstore\n      0x40\n      dup2\n      keccak256\n        /* \"contracts/TokenBankV2.sol\":2226:2249  balances[_to] += _value */\n      dup1\n      sload\n        /* \"contracts/TokenBankV2.sol\":2243:2249  _value */\n      dup5\n      swap3\n        /* \"contracts/TokenBankV2.sol\":2226:2239  balances[_to] */\n      swap1\n        /* \"contracts/TokenBankV2.sol\":2226:2249  balances[_to] += _value */\n      tag_81\n      swap1\n        /* \"contracts/TokenBankV2.sol\":2243:2249  _value */\n      dup5\n      swap1\n        /* \"contracts/TokenBankV2.sol\":2226:2249  balances[_to] += _value */\n      tag_82\n      jump\t// in\n    tag_81:\n      swap1\n      swap2\n      sstore\n      pop\n      pop\n      sub(shl(0xa0, 0x01), 0x01)\n        /* \"contracts/TokenBankV2.sol\":2259:2276  allowances[_from] */\n      dup5\n      and\n      0x00\n      swap1\n      dup2\n      mstore\n        /* \"contracts/TokenBankV2.sol\":2259:2269  allowances */\n      0x05\n        /* \"contracts/TokenBankV2.sol\":2259:2276  allowances[_from] */\n      0x20\n      swap1\n      dup2\n      mstore\n      0x40\n      dup1\n      dup4\n      keccak256\n        /* \"contracts/TokenBankV2.sol\":2277:2287  msg.sender */\n      caller\n        /* \"contracts/TokenBankV2.sol\":2259:2288  allowances[_from][msg.sender] */\n      dup5\n      mstore\n      swap1\n      swap2\n      mstore\n      dup2\n      keccak256\n        /* \"contracts/TokenBankV2.sol\":2259:2298  allowances[_from][msg.sender] -= _value */\n      dup1\n      sload\n        /* \"contracts/TokenBankV2.sol\":2292:2298  _value */\n      dup5\n      swap3\n        /* \"contracts/TokenBankV2.sol\":2259:2276  allowances[_from] */\n      swap1\n        /* \"contracts/TokenBankV2.sol\":2259:2298  allowances[_from][msg.sender] -= _value */\n      tag_83\n      swap1\n        /* \"contracts/TokenBankV2.sol\":2292:2298  _value */\n      dup5\n      swap1\n        /* \"contracts/TokenBankV2.sol\":2259:2298  allowances[_from][msg.sender] -= _value */\n      tag_80\n      jump\t// in\n    tag_83:\n      swap3\n      pop\n      pop\n      dup2\n      swap1\n      sstore\n      pop\n        /* \"contracts/TokenBankV2.sol\":2338:2341  _to */\n      dup3\n      sub(shl(0xa0, 0x01), 0x01)\n        /* \"contracts/TokenBankV2.sol\":2322:2350  Transfer(_from, _to, _value) */\n      and\n        /* \"contracts/TokenBankV2.sol\":2331:2336  _from */\n      dup5\n      sub(shl(0xa0, 0x01), 0x01)\n        /* \"contracts/TokenBankV2.sol\":2322:2350  Transfer(_from, _to, _value) */\n      and\n      0xddf252ad1be2c89b69c2b068fc378daa952ba7f163c4a11628f55a4df523b3ef\n        /* \"contracts/TokenBankV2.sol\":2343:2349  _value */\n      dup5\n        /* \"contracts/TokenBankV2.sol\":2322:2350  Transfer(_from, _to, _value) */\n      mload(0x40)\n      tag_84\n      swap2\n        /* \"#utility.yul\":1258:1283   */\n      dup2\n      mstore\n        /* \"#utility.yul\":1246:1248   */\n      0x20\n        /* \"#utility.yul\":1231:1249   */\n      add\n      swap1\n        /* \"#utility.yul\":1112:1289   */\n      jump\n        /* \"contracts/TokenBankV2.sol\":2322:2350  Transfer(_from, _to, _value) */\n    tag_84:\n      mload(0x40)\n      dup1\n      swap2\n      sub\n      swap1\n      log3\n      pop\n        /* \"contracts/TokenBankV2.sol\":2368:2372  true */\n      0x01\n        /* \"contracts/TokenBankV2.sol\":1813:2380  function transferFrom(address _from, address _to, uint256 _value) public returns (bool success) {... */\n      swap4\n      swap3\n      pop\n      pop\n      pop\n      jump\t// out\n        /* \"contracts/TokenBankV2.sol\":2850:3381  function transferWithCallBack(address to, uint256 amount)public returns (bool success){... */\n    tag_39:\n        /* \"contracts/TokenBankV2.sol\":2964:2974  msg.sender */\n      caller\n        /* \"contracts/TokenBankV2.sol\":2923:2935  bool success */\n      0x00\n        /* \"contracts/TokenBankV2.sol\":1366:1382  balances[_owner] */\n      swap1\n      dup2\n      mstore\n        /* \"contracts/TokenBankV2.sol\":1366:1374  balances */\n      0x04\n        /* \"contracts/TokenBankV2.sol\":1366:1382  balances[_owner] */\n      0x20\n      mstore\n      0x40\n      dup2\n      keccak256\n      sload\n        /* \"contracts/TokenBankV2.sol\":2979:2985  amount */\n      dup3\n      gt\n        /* \"contracts/TokenBankV2.sol\":2954:2985  balanceOf(msg.sender) >= amount */\n      iszero\n        /* \"contracts/TokenBankV2.sol\":2946:3020  require(balanceOf(msg.sender) >= amount, \"transfer amount exceed balance\") */\n      tag_87\n      jumpi\n      mload(0x40)\n      shl(0xe5, 0x461bcd)\n      dup2\n      mstore\n        /* \"#utility.yul\":4923:4925   */\n      0x20\n        /* \"contracts/TokenBankV2.sol\":2946:3020  require(balanceOf(msg.sender) >= amount, \"transfer amount exceed balance\") */\n      0x04\n      dup3\n      add\n        /* \"#utility.yul\":4905:4926   */\n      mstore\n        /* \"#utility.yul\":4962:4964   */\n      0x1e\n        /* \"#utility.yul\":4942:4960   */\n      0x24\n      dup3\n      add\n        /* \"#utility.yul\":4935:4965   */\n      mstore\n        /* \"#utility.yul\":5001:5033   */\n      0x7472616e7366657220616d6f756e74206578636565642062616c616e63650000\n        /* \"#utility.yul\":4981:4999   */\n      0x44\n      dup3\n      add\n        /* \"#utility.yul\":4974:5034   */\n      mstore\n        /* \"#utility.yul\":5051:5069   */\n      0x64\n      add\n        /* \"contracts/TokenBankV2.sol\":2946:3020  require(balanceOf(msg.sender) >= amount, \"transfer amount exceed balance\") */\n      tag_66\n        /* \"#utility.yul\":4721:5075   */\n      jump\n        /* \"contracts/TokenBankV2.sol\":2946:3020  require(balanceOf(msg.sender) >= amount, \"transfer amount exceed balance\") */\n    tag_87:\n      sub(shl(0xa0, 0x01), 0x01)\n        /* \"contracts/TokenBankV2.sol\":3038:3052  to!=address(0) */\n      dup4\n      and\n        /* \"contracts/TokenBankV2.sol\":3030:3089  require(to!=address(0), \"can not transfer to zero address\") */\n      tag_90\n      jumpi\n      mload(0x40)\n      shl(0xe5, 0x461bcd)\n      dup2\n      mstore\n        /* \"#utility.yul\":5282:5284   */\n      0x20\n        /* \"contracts/TokenBankV2.sol\":3030:3089  require(to!=address(0), \"can not transfer to zero address\") */\n      0x04\n      dup3\n      add\n        /* \"#utility.yul\":5264:5285   */\n      dup2\n      swap1\n      mstore\n        /* \"#utility.yul\":5301:5319   */\n      0x24\n      dup3\n      add\n        /* \"#utility.yul\":5294:5324   */\n      mstore\n        /* \"#utility.yul\":5360:5394   */\n      0x63616e206e6f74207472616e7366657220746f207a65726f2061646472657373\n        /* \"#utility.yul\":5340:5358   */\n      0x44\n      dup3\n      add\n        /* \"#utility.yul\":5333:5395   */\n      mstore\n        /* \"#utility.yul\":5412:5430   */\n      0x64\n      add\n        /* \"contracts/TokenBankV2.sol\":3030:3089  require(to!=address(0), \"can not transfer to zero address\") */\n      tag_66\n        /* \"#utility.yul\":5080:5436   */\n      jump\n        /* \"contracts/TokenBankV2.sol\":3030:3089  require(to!=address(0), \"can not transfer to zero address\") */\n    tag_90:\n        /* \"contracts/TokenBankV2.sol\":3110:3120  msg.sender */\n      caller\n        /* \"contracts/TokenBankV2.sol\":3100:3122  balances[(msg.sender)] */\n      0x00\n      swap1\n      dup2\n      mstore\n        /* \"contracts/TokenBankV2.sol\":3100:3108  balances */\n      0x04\n        /* \"contracts/TokenBankV2.sol\":3100:3122  balances[(msg.sender)] */\n      0x20\n      mstore\n      0x40\n      dup2\n      keccak256\n        /* \"contracts/TokenBankV2.sol\":3100:3132  balances[(msg.sender)] -= amount */\n      dup1\n      sload\n        /* \"contracts/TokenBankV2.sol\":3126:3132  amount */\n      dup5\n      swap3\n        /* \"contracts/TokenBankV2.sol\":3100:3122  balances[(msg.sender)] */\n      swap1\n        /* \"contracts/TokenBankV2.sol\":3100:3132  balances[(msg.sender)] -= amount */\n      tag_93\n      swap1\n        /* \"contracts/TokenBankV2.sol\":3126:3132  amount */\n      dup5\n      swap1\n        /* \"contracts/TokenBankV2.sol\":3100:3132  balances[(msg.sender)] -= amount */\n      tag_80\n      jump\t// in\n    tag_93:\n      swap1\n      swap2\n      sstore\n      pop\n      pop\n      sub(shl(0xa0, 0x01), 0x01)\n        /* \"contracts/TokenBankV2.sol\":3142:3154  balances[to] */\n      dup4\n      and\n      0x00\n      swap1\n      dup2\n      mstore\n        /* \"contracts/TokenBankV2.sol\":3142:3150  balances */\n      0x04\n        /* \"contracts/TokenBankV2.sol\":3142:3154  balances[to] */\n      0x20\n      mstore\n      0x40\n      dup2\n      keccak256\n        /* \"contracts/TokenBankV2.sol\":3142:3164  balances[to] += amount */\n      dup1\n      sload\n        /* \"contracts/TokenBankV2.sol\":3158:3164  amount */\n      dup5\n      swap3\n        /* \"contracts/TokenBankV2.sol\":3142:3154  balances[to] */\n      swap1\n        /* \"contracts/TokenBankV2.sol\":3142:3164  balances[to] += amount */\n      tag_94\n      swap1\n        /* \"contracts/TokenBankV2.sol\":3158:3164  amount */\n      dup5\n      swap1\n        /* \"contracts/TokenBankV2.sol\":3142:3164  balances[to] += amount */\n      tag_82\n      jump\t// in\n    tag_94:\n      swap1\n      swap2\n      sstore\n      pop\n      pop\n        /* \"contracts/TokenBankV2.sol\":3180:3212  Transfer(msg.sender, to, amount) */\n      mload(0x40)\n        /* \"#utility.yul\":1258:1283   */\n      dup3\n      dup2\n      mstore\n      sub(shl(0xa0, 0x01), 0x01)\n        /* \"contracts/TokenBankV2.sol\":3180:3212  Transfer(msg.sender, to, amount) */\n      dup5\n      and\n      swap1\n        /* \"contracts/TokenBankV2.sol\":3189:3199  msg.sender */\n      caller\n      swap1\n        /* \"contracts/TokenBankV2.sol\":3180:3212  Transfer(msg.sender, to, amount) */\n      0xddf252ad1be2c89b69c2b068fc378daa952ba7f163c4a11628f55a4df523b3ef\n      swap1\n        /* \"#utility.yul\":1246:1248   */\n      0x20\n        /* \"#utility.yul\":1231:1249   */\n      add\n        /* \"contracts/TokenBankV2.sol\":3180:3212  Transfer(msg.sender, to, amount) */\n      mload(0x40)\n      dup1\n      swap2\n      sub\n      swap1\n      log3\n        /* \"contracts/TokenBankV2.sol\":3509:3527  extcodesize(_addr) */\n      dup3\n      extcodesize\n        /* \"contracts/TokenBankV2.sol\":3553:3561  size > 0 */\n      0xffffffff\n      and\n      iszero\n        /* \"contracts/TokenBankV2.sol\":3223:3375  if(isContract(to)){... */\n      tag_64\n      jumpi\n        /* \"contracts/TokenBankV2.sol\":3259:3312  ITokenReceiver(to).tokensReceived(msg.sender, amount) */\n      mload(0x40)\n      shl(0xe0, 0x24a756d1)\n      dup2\n      mstore\n        /* \"contracts/TokenBankV2.sol\":3293:3303  msg.sender */\n      caller\n        /* \"contracts/TokenBankV2.sol\":3259:3312  ITokenReceiver(to).tokensReceived(msg.sender, amount) */\n      0x04\n      dup3\n      add\n        /* \"#utility.yul\":5615:5666   */\n      mstore\n        /* \"#utility.yul\":5682:5700   */\n      0x24\n      dup2\n      add\n        /* \"#utility.yul\":5675:5709   */\n      dup4\n      swap1\n      mstore\n      sub(shl(0xa0, 0x01), 0x01)\n        /* \"contracts/TokenBankV2.sol\":3259:3292  ITokenReceiver(to).tokensReceived */\n      dup5\n      and\n      swap1\n      0x24a756d1\n      swap1\n        /* \"#utility.yul\":5588:5606   */\n      0x44\n      add\n        /* \"contracts/TokenBankV2.sol\":3259:3312  ITokenReceiver(to).tokensReceived(msg.sender, amount) */\n      0x20\n      mload(0x40)\n      dup1\n      dup4\n      sub\n      dup2\n      0x00\n      dup8\n      gas\n      call\n      swap3\n      pop\n      pop\n      pop\n      dup1\n      iszero\n      tag_101\n      jumpi\n      pop\n      0x40\n      dup1\n      mload\n      0x1f\n      returndatasize\n      swap1\n      dup2\n      add\n      not(0x1f)\n      and\n      dup3\n      add\n      swap1\n      swap3\n      mstore\n      tag_102\n      swap2\n      dup2\n      add\n      swap1\n      tag_103\n      jump\t// in\n    tag_102:\n      0x01\n    tag_101:\n        /* \"contracts/TokenBankV2.sol\":3255:3365  try ITokenReceiver(to).tokensReceived(msg.sender, amount) returns (bool){... */\n      iszero\n      tag_64\n      jumpi\n        /* \"contracts/TokenBankV2.sol\":3313:3343  returns (bool){... */\n      pop\n        /* \"contracts/TokenBankV2.sol\":2850:3381  function transferWithCallBack(address to, uint256 amount)public returns (bool success){... */\n      swap3\n      swap2\n      pop\n      pop\n      jump\t// out\n        /* \"contracts/TokenBankV2.sol\":669:689  string public symbol */\n    tag_47:\n      0x01\n      dup1\n      sload\n      tag_58\n      swap1\n      tag_59\n      jump\t// in\n        /* \"contracts/TokenBankV2.sol\":1395:1802  function transfer(address _to, uint256 _value) public returns (bool success) {... */\n    tag_51:\n        /* \"contracts/TokenBankV2.sol\":1499:1509  msg.sender */\n      caller\n        /* \"contracts/TokenBankV2.sol\":1458:1470  bool success */\n      0x00\n        /* \"contracts/TokenBankV2.sol\":1490:1510  balances[msg.sender] */\n      swap1\n      dup2\n      mstore\n        /* \"contracts/TokenBankV2.sol\":1490:1498  balances */\n      0x04\n        /* \"contracts/TokenBankV2.sol\":1490:1510  balances[msg.sender] */\n      0x20\n      mstore\n      0x40\n      dup2\n      keccak256\n      sload\n        /* \"contracts/TokenBankV2.sol\":1490:1520  balances[msg.sender] >= _value */\n      dup3\n      gt\n      iszero\n        /* \"contracts/TokenBankV2.sol\":1482:1563  require(balances[msg.sender] >= _value, \"ERC20: transfer amount exceeds balance\") */\n      tag_116\n      jumpi\n      mload(0x40)\n      shl(0xe5, 0x461bcd)\n      dup2\n      mstore\n      0x04\n      add\n      tag_66\n      swap1\n      tag_72\n      jump\t// in\n    tag_116:\n      sub(shl(0xa0, 0x01), 0x01)\n        /* \"contracts/TokenBankV2.sol\":1581:1598  _to != address(0) */\n      dup4\n      and\n        /* \"contracts/TokenBankV2.sol\":1573:1638  require(_to != address(0), \"ERC20: transfer to the zero address\") */\n      tag_118\n      jumpi\n      mload(0x40)\n      shl(0xe5, 0x461bcd)\n      dup2\n      mstore\n      0x04\n      add\n      tag_66\n      swap1\n      tag_78\n      jump\t// in\n    tag_118:\n        /* \"contracts/TokenBankV2.sol\":1666:1676  msg.sender */\n      caller\n        /* \"contracts/TokenBankV2.sol\":1657:1677  balances[msg.sender] */\n      0x00\n      swap1\n      dup2\n      mstore\n        /* \"contracts/TokenBankV2.sol\":1657:1665  balances */\n      0x04\n        /* \"contracts/TokenBankV2.sol\":1657:1677  balances[msg.sender] */\n      0x20\n      mstore\n      0x40\n      dup2\n      keccak256\n        /* \"contracts/TokenBankV2.sol\":1657:1687  balances[msg.sender] -= _value */\n      dup1\n      sload\n        /* \"contracts/TokenBankV2.sol\":1681:1687  _value */\n      dup5\n      swap3\n        /* \"contracts/TokenBankV2.sol\":1657:1677  balances[msg.sender] */\n      swap1\n        /* \"contracts/TokenBankV2.sol\":1657:1687  balances[msg.sender] -= _value */\n      tag_120\n      swap1\n        /* \"contracts/TokenBankV2.sol\":1681:1687  _value */\n      dup5\n      swap1\n        /* \"contracts/TokenBankV2.sol\":1657:1687  balances[msg.sender] -= _value */\n      tag_80\n      jump\t// in\n    tag_120:\n      swap1\n      swap2\n      sstore\n      pop\n      pop\n      sub(shl(0xa0, 0x01), 0x01)\n        /* \"contracts/TokenBankV2.sol\":1697:1710  balances[_to] */\n      dup4\n      and\n      0x00\n      swap1\n      dup2\n      mstore\n        /* \"contracts/TokenBankV2.sol\":1697:1705  balances */\n      0x04\n        /* \"contracts/TokenBankV2.sol\":1697:1710  balances[_to] */\n      0x20\n      mstore\n      0x40\n      dup2\n      keccak256\n        /* \"contracts/TokenBankV2.sol\":1697:1720  balances[_to] += _value */\n      dup1\n      sload\n        /* \"contracts/TokenBankV2.sol\":1714:1720  _value */\n      dup5\n      swap3\n        /* \"contracts/TokenBankV2.sol\":1697:1710  balances[_to] */\n      swap1\n        /* \"contracts/TokenBankV2.sol\":1697:1720  balances[_to] += _value */\n      tag_121\n      swap1\n        /* \"contracts/TokenBankV2.sol\":1714:1720  _value */\n      dup5\n      swap1\n        /* \"contracts/TokenBankV2.sol\":1697:1720  balances[_to] += _value */\n      tag_82\n      jump\t// in\n    tag_121:\n      swap1\n      swap2\n      sstore\n      pop\n      pop\n        /* \"contracts/TokenBankV2.sol\":1736:1769  Transfer(msg.sender, _to, _value) */\n      mload(0x40)\n        /* \"#utility.yul\":1258:1283   */\n      dup3\n      dup2\n      mstore\n      sub(shl(0xa0, 0x01), 0x01)\n        /* \"contracts/TokenBankV2.sol\":1736:1769  Transfer(msg.sender, _to, _value) */\n      dup5\n      and\n      swap1\n        /* \"contracts/TokenBankV2.sol\":1745:1755  msg.sender */\n      caller\n      swap1\n        /* \"contracts/TokenBankV2.sol\":1736:1769  Transfer(msg.sender, _to, _value) */\n      0xddf252ad1be2c89b69c2b068fc378daa952ba7f163c4a11628f55a4df523b3ef\n      swap1\n        /* \"#utility.yul\":1246:1248   */\n      0x20\n        /* \"#utility.yul\":1231:1249   */\n      add\n        /* \"contracts/TokenBankV2.sol\":1736:1769  Transfer(msg.sender, _to, _value) */\n      tag_68\n        /* \"#utility.yul\":1112:1289   */\n      jump\n        /* \"#utility.yul\":14:432   */\n    tag_17:\n        /* \"#utility.yul\":163:165   */\n      0x20\n        /* \"#utility.yul\":152:161   */\n      dup2\n        /* \"#utility.yul\":145:166   */\n      mstore\n        /* \"#utility.yul\":126:130   */\n      0x00\n        /* \"#utility.yul\":195:201   */\n      dup3\n        /* \"#utility.yul\":189:202   */\n      mload\n        /* \"#utility.yul\":238:244   */\n      dup1\n        /* \"#utility.yul\":233:235   */\n      0x20\n        /* \"#utility.yul\":222:231   */\n      dup5\n        /* \"#utility.yul\":218:236   */\n      add\n        /* \"#utility.yul\":211:245   */\n      mstore\n        /* \"#utility.yul\":297:303   */\n      dup1\n        /* \"#utility.yul\":292:294   */\n      0x20\n        /* \"#utility.yul\":284:290   */\n      dup6\n        /* \"#utility.yul\":280:295   */\n      add\n        /* \"#utility.yul\":275:277   */\n      0x40\n        /* \"#utility.yul\":264:273   */\n      dup6\n        /* \"#utility.yul\":260:278   */\n      add\n        /* \"#utility.yul\":254:304   */\n      mcopy\n        /* \"#utility.yul\":353:354   */\n      0x00\n        /* \"#utility.yul\":348:350   */\n      0x40\n        /* \"#utility.yul\":339:345   */\n      dup3\n        /* \"#utility.yul\":328:337   */\n      dup6\n        /* \"#utility.yul\":324:346   */\n      add\n        /* \"#utility.yul\":320:351   */\n      add\n        /* \"#utility.yul\":313:355   */\n      mstore\n        /* \"#utility.yul\":423:425   */\n      0x40\n        /* \"#utility.yul\":416:418   */\n      0x1f\n        /* \"#utility.yul\":412:419   */\n      not\n        /* \"#utility.yul\":407:409   */\n      0x1f\n        /* \"#utility.yul\":399:405   */\n      dup4\n        /* \"#utility.yul\":395:410   */\n      add\n        /* \"#utility.yul\":391:420   */\n      and\n        /* \"#utility.yul\":380:389   */\n      dup5\n        /* \"#utility.yul\":376:421   */\n      add\n        /* \"#utility.yul\":372:426   */\n      add\n        /* \"#utility.yul\":364:426   */\n      swap2\n      pop\n      pop\n        /* \"#utility.yul\":14:432   */\n      swap3\n      swap2\n      pop\n      pop\n      jump\t// out\n        /* \"#utility.yul\":437:610   */\n    tag_125:\n        /* \"#utility.yul\":505:525   */\n      dup1\n      calldataload\n      sub(shl(0xa0, 0x01), 0x01)\n        /* \"#utility.yul\":554:585   */\n      dup2\n      and\n        /* \"#utility.yul\":544:586   */\n      dup2\n      eq\n        /* \"#utility.yul\":534:604   */\n      tag_130\n      jumpi\n        /* \"#utility.yul\":600:601   */\n      0x00\n        /* \"#utility.yul\":597:598   */\n      0x00\n        /* \"#utility.yul\":590:602   */\n      revert\n        /* \"#utility.yul\":534:604   */\n    tag_130:\n        /* \"#utility.yul\":437:610   */\n      swap2\n      swap1\n      pop\n      jump\t// out\n        /* \"#utility.yul\":615:915   */\n    tag_20:\n        /* \"#utility.yul\":683:689   */\n      0x00\n        /* \"#utility.yul\":691:697   */\n      0x00\n        /* \"#utility.yul\":744:746   */\n      0x40\n        /* \"#utility.yul\":732:741   */\n      dup4\n        /* \"#utility.yul\":723:730   */\n      dup6\n        /* \"#utility.yul\":719:742   */\n      sub\n        /* \"#utility.yul\":715:747   */\n      slt\n        /* \"#utility.yul\":712:764   */\n      iszero\n      tag_132\n      jumpi\n        /* \"#utility.yul\":760:761   */\n      0x00\n        /* \"#utility.yul\":757:758   */\n      0x00\n        /* \"#utility.yul\":750:762   */\n      revert\n        /* \"#utility.yul\":712:764   */\n    tag_132:\n        /* \"#utility.yul\":783:812   */\n      tag_133\n        /* \"#utility.yul\":802:811   */\n      dup4\n        /* \"#utility.yul\":783:812   */\n      tag_125\n      jump\t// in\n    tag_133:\n        /* \"#utility.yul\":773:812   */\n      swap5\n        /* \"#utility.yul\":881:883   */\n      0x20\n        /* \"#utility.yul\":866:884   */\n      swap4\n      swap1\n      swap4\n      add\n        /* \"#utility.yul\":853:885   */\n      calldataload\n      swap4\n      pop\n      pop\n      pop\n        /* \"#utility.yul\":615:915   */\n      jump\t// out\n        /* \"#utility.yul\":1294:1668   */\n    tag_30:\n        /* \"#utility.yul\":1371:1377   */\n      0x00\n        /* \"#utility.yul\":1379:1385   */\n      0x00\n        /* \"#utility.yul\":1387:1393   */\n      0x00\n        /* \"#utility.yul\":1440:1442   */\n      0x60\n        /* \"#utility.yul\":1428:1437   */\n      dup5\n        /* \"#utility.yul\":1419:1426   */\n      dup7\n        /* \"#utility.yul\":1415:1438   */\n      sub\n        /* \"#utility.yul\":1411:1443   */\n      slt\n        /* \"#utility.yul\":1408:1460   */\n      iszero\n      tag_137\n      jumpi\n        /* \"#utility.yul\":1456:1457   */\n      0x00\n        /* \"#utility.yul\":1453:1454   */\n      0x00\n        /* \"#utility.yul\":1446:1458   */\n      revert\n        /* \"#utility.yul\":1408:1460   */\n    tag_137:\n        /* \"#utility.yul\":1479:1508   */\n      tag_138\n        /* \"#utility.yul\":1498:1507   */\n      dup5\n        /* \"#utility.yul\":1479:1508   */\n      tag_125\n      jump\t// in\n    tag_138:\n        /* \"#utility.yul\":1469:1508   */\n      swap3\n      pop\n        /* \"#utility.yul\":1527:1565   */\n      tag_139\n        /* \"#utility.yul\":1561:1563   */\n      0x20\n        /* \"#utility.yul\":1550:1559   */\n      dup6\n        /* \"#utility.yul\":1546:1564   */\n      add\n        /* \"#utility.yul\":1527:1565   */\n      tag_125\n      jump\t// in\n    tag_139:\n        /* \"#utility.yul\":1294:1668   */\n      swap3\n      swap6\n        /* \"#utility.yul\":1517:1565   */\n      swap3\n      swap5\n      pop\n      pop\n      pop\n        /* \"#utility.yul\":1634:1636   */\n      0x40\n        /* \"#utility.yul\":1619:1637   */\n      swap2\n      swap1\n      swap2\n      add\n        /* \"#utility.yul\":1606:1638   */\n      calldataload\n      swap1\n        /* \"#utility.yul\":1294:1668   */\n      jump\t// out\n        /* \"#utility.yul\":1862:2048   */\n    tag_43:\n        /* \"#utility.yul\":1921:1927   */\n      0x00\n        /* \"#utility.yul\":1974:1976   */\n      0x20\n        /* \"#utility.yul\":1962:1971   */\n      dup3\n        /* \"#utility.yul\":1953:1960   */\n      dup5\n        /* \"#utility.yul\":1949:1972   */\n      sub\n        /* \"#utility.yul\":1945:1977   */\n      slt\n        /* \"#utility.yul\":1942:1994   */\n      iszero\n      tag_142\n      jumpi\n        /* \"#utility.yul\":1990:1991   */\n      0x00\n        /* \"#utility.yul\":1987:1988   */\n      0x00\n        /* \"#utility.yul\":1980:1992   */\n      revert\n        /* \"#utility.yul\":1942:1994   */\n    tag_142:\n        /* \"#utility.yul\":2013:2042   */\n      tag_143\n        /* \"#utility.yul\":2032:2041   */\n      dup3\n        /* \"#utility.yul\":2013:2042   */\n      tag_125\n      jump\t// in\n    tag_143:\n        /* \"#utility.yul\":2003:2042   */\n      swap4\n        /* \"#utility.yul\":1862:2048   */\n      swap3\n      pop\n      pop\n      pop\n      jump\t// out\n        /* \"#utility.yul\":2053:2313   */\n    tag_55:\n        /* \"#utility.yul\":2121:2127   */\n      0x00\n        /* \"#utility.yul\":2129:2135   */\n      0x00\n        /* \"#utility.yul\":2182:2184   */\n      0x40\n        /* \"#utility.yul\":2170:2179   */\n      dup4\n        /* \"#utility.yul\":2161:2168   */\n      dup6\n        /* \"#utility.yul\":2157:2180   */\n      sub\n        /* \"#utility.yul\":2153:2185   */\n      slt\n        /* \"#utility.yul\":2150:2202   */\n      iszero\n      tag_145\n      jumpi\n        /* \"#utility.yul\":2198:2199   */\n      0x00\n        /* \"#utility.yul\":2195:2196   */\n      0x00\n        /* \"#utility.yul\":2188:2200   */\n      revert\n        /* \"#utility.yul\":2150:2202   */\n    tag_145:\n        /* \"#utility.yul\":2221:2250   */\n      tag_146\n        /* \"#utility.yul\":2240:2249   */\n      dup4\n        /* \"#utility.yul\":2221:2250   */\n      tag_125\n      jump\t// in\n    tag_146:\n        /* \"#utility.yul\":2211:2250   */\n      swap2\n      pop\n        /* \"#utility.yul\":2269:2307   */\n      tag_147\n        /* \"#utility.yul\":2303:2305   */\n      0x20\n        /* \"#utility.yul\":2292:2301   */\n      dup5\n        /* \"#utility.yul\":2288:2306   */\n      add\n        /* \"#utility.yul\":2269:2307   */\n      tag_125\n      jump\t// in\n    tag_147:\n        /* \"#utility.yul\":2259:2307   */\n      swap1\n      pop\n        /* \"#utility.yul\":2053:2313   */\n      swap3\n      pop\n      swap3\n      swap1\n      pop\n      jump\t// out\n        /* \"#utility.yul\":2318:2698   */\n    tag_59:\n        /* \"#utility.yul\":2397:2398   */\n      0x01\n        /* \"#utility.yul\":2393:2405   */\n      dup2\n      dup2\n      shr\n      swap1\n        /* \"#utility.yul\":2440:2452   */\n      dup3\n      and\n      dup1\n        /* \"#utility.yul\":2461:2522   */\n      tag_149\n      jumpi\n        /* \"#utility.yul\":2515:2519   */\n      0x7f\n        /* \"#utility.yul\":2507:2513   */\n      dup3\n        /* \"#utility.yul\":2503:2520   */\n      and\n        /* \"#utility.yul\":2493:2520   */\n      swap2\n      pop\n        /* \"#utility.yul\":2461:2522   */\n    tag_149:\n        /* \"#utility.yul\":2568:2570   */\n      0x20\n        /* \"#utility.yul\":2560:2566   */\n      dup3\n        /* \"#utility.yul\":2557:2571   */\n      lt\n        /* \"#utility.yul\":2537:2555   */\n      dup2\n        /* \"#utility.yul\":2534:2572   */\n      sub\n        /* \"#utility.yul\":2531:2692   */\n      tag_150\n      jumpi\n        /* \"#utility.yul\":2614:2624   */\n      0x4e487b71\n        /* \"#utility.yul\":2609:2612   */\n      0xe0\n        /* \"#utility.yul\":2605:2625   */\n      shl\n        /* \"#utility.yul\":2602:2603   */\n      0x00\n        /* \"#utility.yul\":2595:2626   */\n      mstore\n        /* \"#utility.yul\":2649:2653   */\n      0x22\n        /* \"#utility.yul\":2646:2647   */\n      0x04\n        /* \"#utility.yul\":2639:2654   */\n      mstore\n        /* \"#utility.yul\":2677:2681   */\n      0x24\n        /* \"#utility.yul\":2674:2675   */\n      0x00\n        /* \"#utility.yul\":2667:2682   */\n      revert\n        /* \"#utility.yul\":2531:2692   */\n    tag_150:\n      pop\n        /* \"#utility.yul\":2318:2698   */\n      swap2\n      swap1\n      pop\n      jump\t// out\n        /* \"#utility.yul\":3106:3508   */\n    tag_72:\n        /* \"#utility.yul\":3308:3310   */\n      0x20\n        /* \"#utility.yul\":3290:3311   */\n      dup1\n      dup3\n      mstore\n        /* \"#utility.yul\":3347:3349   */\n      0x26\n        /* \"#utility.yul\":3327:3345   */\n      swap1\n      dup3\n      add\n        /* \"#utility.yul\":3320:3350   */\n      mstore\n        /* \"#utility.yul\":3386:3420   */\n      0x45524332303a207472616e7366657220616d6f756e7420657863656564732062\n        /* \"#utility.yul\":3381:3383   */\n      0x40\n        /* \"#utility.yul\":3366:3384   */\n      dup3\n      add\n        /* \"#utility.yul\":3359:3421   */\n      mstore\n      shl(0xd0, 0x616c616e6365)\n        /* \"#utility.yul\":3452:3454   */\n      0x60\n        /* \"#utility.yul\":3437:3455   */\n      dup3\n      add\n        /* \"#utility.yul\":3430:3466   */\n      mstore\n        /* \"#utility.yul\":3498:3501   */\n      0x80\n        /* \"#utility.yul\":3483:3502   */\n      add\n      swap1\n        /* \"#utility.yul\":3106:3508   */\n      jump\t// out\n        /* \"#utility.yul\":3922:4321   */\n    tag_78:\n        /* \"#utility.yul\":4124:4126   */\n      0x20\n        /* \"#utility.yul\":4106:4127   */\n      dup1\n      dup3\n      mstore\n        /* \"#utility.yul\":4163:4165   */\n      0x23\n        /* \"#utility.yul\":4143:4161   */\n      swap1\n      dup3\n      add\n        /* \"#utility.yul\":4136:4166   */\n      mstore\n        /* \"#utility.yul\":4202:4236   */\n      0x45524332303a207472616e7366657220746f20746865207a65726f2061646472\n        /* \"#utility.yul\":4197:4199   */\n      0x40\n        /* \"#utility.yul\":4182:4200   */\n      dup3\n      add\n        /* \"#utility.yul\":4175:4237   */\n      mstore\n      shl(0xe8, 0x657373)\n        /* \"#utility.yul\":4268:4270   */\n      0x60\n        /* \"#utility.yul\":4253:4271   */\n      dup3\n      add\n        /* \"#utility.yul\":4246:4279   */\n      mstore\n        /* \"#utility.yul\":4311:4314   */\n      0x80\n        /* \"#utility.yul\":4296:4315   */\n      add\n      swap1\n        /* \"#utility.yul\":3922:4321   */\n      jump\t// out\n        /* \"#utility.yul\":4326:4453   */\n    tag_126:\n        /* \"#utility.yul\":4387:4397   */\n      0x4e487b71\n        /* \"#utility.yul\":4382:4385   */\n      0xe0\n        /* \"#utility.yul\":4378:4398   */\n      shl\n        /* \"#utility.yul\":4375:4376   */\n      0x00\n        /* \"#utility.yul\":4368:4399   */\n      mstore\n        /* \"#utility.yul\":4418:4422   */\n      0x11\n        /* \"#utility.yul\":4415:4416   */\n      0x04\n        /* \"#utility.yul\":4408:4423   */\n      mstore\n        /* \"#utility.yul\":4442:4446   */\n      0x24\n        /* \"#utility.yul\":4439:4440   */\n      0x00\n        /* \"#utility.yul\":4432:4447   */\n      revert\n        /* \"#utility.yul\":4458:4586   */\n    tag_80:\n        /* \"#utility.yul\":4525:4534   */\n      dup2\n      dup2\n      sub\n        /* \"#utility.yul\":4546:4557   */\n      dup2\n      dup2\n      gt\n        /* \"#utility.yul\":4543:4580   */\n      iszero\n      tag_64\n      jumpi\n        /* \"#utility.yul\":4560:4578   */\n      tag_64\n      tag_126\n      jump\t// in\n        /* \"#utility.yul\":4591:4716   */\n    tag_82:\n        /* \"#utility.yul\":4656:4665   */\n      dup1\n      dup3\n      add\n        /* \"#utility.yul\":4677:4687   */\n      dup1\n      dup3\n      gt\n        /* \"#utility.yul\":4674:4710   */\n      iszero\n      tag_64\n      jumpi\n        /* \"#utility.yul\":4690:4708   */\n      tag_64\n      tag_126\n      jump\t// in\n        /* \"#utility.yul\":5720:5997   */\n    tag_103:\n        /* \"#utility.yul\":5787:5793   */\n      0x00\n        /* \"#utility.yul\":5840:5842   */\n      0x20\n        /* \"#utility.yul\":5828:5837   */\n      dup3\n        /* \"#utility.yul\":5819:5826   */\n      dup5\n        /* \"#utility.yul\":5815:5838   */\n      sub\n        /* \"#utility.yul\":5811:5843   */\n      slt\n        /* \"#utility.yul\":5808:5860   */\n      iszero\n      tag_166\n      jumpi\n        /* \"#utility.yul\":5856:5857   */\n      0x00\n        /* \"#utility.yul\":5853:5854   */\n      0x00\n        /* \"#utility.yul\":5846:5858   */\n      revert\n        /* \"#utility.yul\":5808:5860   */\n    tag_166:\n        /* \"#utility.yul\":5888:5897   */\n      dup2\n        /* \"#utility.yul\":5882:5898   */\n      mload\n        /* \"#utility.yul\":5941:5946   */\n      dup1\n        /* \"#utility.yul\":5934:5947   */\n      iszero\n        /* \"#utility.yul\":5927:5948   */\n      iszero\n        /* \"#utility.yul\":5920:5925   */\n      dup2\n        /* \"#utility.yul\":5917:5949   */\n      eq\n        /* \"#utility.yul\":5907:5967   */\n      tag_143\n      jumpi\n        /* \"#utility.yul\":5963:5964   */\n      0x00\n        /* \"#utility.yul\":5960:5961   */\n      0x00\n        /* \"#utility.yul\":5953:5965   */\n      revert\n\n    auxdata: 0xa2646970667358221220e969e428ae3d5c12c6ab23518900162039f2cf836714658bae2dc3f28362d4f764736f6c634300081f0033\n}\n",
				"bytecode": {
					"linkReferences": {},
					"object": "608060405234801561000f575f5ffd5b5060408051808201909152600d81526c0457874656e646564455243323609c1b60208201525f906100409082610146565b5060408051808201909152600681526504545524332360d41b602082015260019061006b9082610146565b506002805460ff1916601290811790915561008790600a6102f9565b610095906305f5e10061030b565b6003819055335f90815260046020526040902055610322565b634e487b7160e01b5f52604160045260245ffd5b600181811c908216806100d657607f821691505b6020821081036100f457634e487b7160e01b5f52602260045260245ffd5b50919050565b601f82111561014157805f5260205f20601f840160051c8101602085101561011f5750805b601f840160051c820191505b8181101561013e575f815560010161012b565b50505b505050565b81516001600160401b0381111561015f5761015f6100ae565b6101738161016d84546100c2565b846100fa565b6020601f8211600181146101a5575f831561018e5750848201515b5f19600385901b1c1916600184901b17845561013e565b5f84815260208120601f198516915b828110156101d457878501518255602094850194600190920191016101b4565b50848210156101f157868401515f19600387901b60f8161c191681555b50505050600190811b01905550565b634e487b7160e01b5f52601160045260245ffd5b6001815b600184111561024f5780850481111561023357610233610200565b600184161561024157908102905b60019390931c928002610218565b935093915050565b5f82610265575060016102f3565b8161027157505f6102f3565b81600181146102875760028114610291576102ad565b60019150506102f3565b60ff8411156102a2576102a2610200565b50506001821b6102f3565b5060208310610133831016604e8410600b84101617156102d0575081810a6102f3565b6102dc5f198484610214565b805f19048211156102ef576102ef610200565b0290505b92915050565b5f6103048383610257565b9392505050565b80820281158282048414176102f3576102f3610200565b6109da8061032f5f395ff3fe608060405234801561000f575f5ffd5b506004361061009b575f3560e01c8063473e711b11610063578063473e711b1461012957806370a082311461013c57806395d89b4114610164578063a9059cbb1461016c578063dd62ed3e1461017f575f5ffd5b806306fdde031461009f578063095ea7b3146100bd57806318160ddd146100e057806323b872dd146100f7578063313ce5671461010a575b5f5ffd5b6100a76101b7565b6040516100b49190610787565b60405180910390f35b6100d06100cb3660046107d7565b610242565b60405190151581526020016100b4565b6100e960035481565b6040519081526020016100b4565b6100d06101053660046107ff565b61030e565b6002546101179060ff1681565b60405160ff90911681526020016100b4565b6100d06101373660046107d7565b6104d6565b6100e961014a366004610839565b6001600160a01b03165f9081526004602052604090205490565b6100a761069a565b6100d061017a3660046107d7565b6106a7565b6100e961018d366004610859565b6001600160a01b039182165f90815260056020908152604080832093909416825291909152205490565b5f80546101c39061088a565b80601f01602080910402602001604051908101604052809291908181526020018280546101ef9061088a565b801561023a5780601f106102115761010080835404028352916020019161023a565b820191905f5260205f20905b81548152906001019060200180831161021d57829003601f168201915b505050505081565b5f6001600160a01b0383166102a95760405162461bcd60e51b815260206004820152602260248201527f45524332303a20617070726f766520746f20746865207a65726f206164647265604482015261737360f01b60648201526084015b60405180910390fd5b335f8181526005602090815260408083206001600160a01b03881680855290835292819020869055518581529192917f8c5be1e5ebec7d5bd14f71427d1e84f3dd0314c0f7b2291e5b200ac8c7c3b92591015b60405180910390a35060015b92915050565b6001600160a01b0383165f908152600460205260408120548211156103455760405162461bcd60e51b81526004016102a0906108c2565b6001600160a01b0384165f9081526005602090815260408083203384529091529020548211156103c85760405162461bcd60e51b815260206004820152602860248201527f45524332303a207472616e7366657220616d6f756e74206578636565647320616044820152676c6c6f77616e636560c01b60648201526084016102a0565b6001600160a01b0383166103ee5760405162461bcd60e51b81526004016102a090610908565b6001600160a01b0384165f908152600460205260408120805484929061041590849061095f565b90915550506001600160a01b0383165f9081526004602052604081208054849290610441908490610972565b90915550506001600160a01b0384165f9081526005602090815260408083203384529091528120805484929061047890849061095f565b92505081905550826001600160a01b0316846001600160a01b03167fddf252ad1be2c89b69c2b068fc378daa952ba7f163c4a11628f55a4df523b3ef846040516104c491815260200190565b60405180910390a35060019392505050565b335f908152600460205260408120548211156105345760405162461bcd60e51b815260206004820152601e60248201527f7472616e7366657220616d6f756e74206578636565642062616c616e6365000060448201526064016102a0565b6001600160a01b03831661058a5760405162461bcd60e51b815260206004820181905260248201527f63616e206e6f74207472616e7366657220746f207a65726f206164647265737360448201526064016102a0565b335f90815260046020526040812080548492906105a890849061095f565b90915550506001600160a01b0383165f90815260046020526040812080548492906105d4908490610972565b90915550506040518281526001600160a01b0384169033907fddf252ad1be2c89b69c2b068fc378daa952ba7f163c4a11628f55a4df523b3ef9060200160405180910390a3823b63ffffffff1615610308576040516324a756d160e01b8152336004820152602481018390526001600160a01b038416906324a756d1906044016020604051808303815f875af192505050801561068e575060408051601f3d908101601f1916820190925261068b91810190610985565b60015b15610308575092915050565b600180546101c39061088a565b335f908152600460205260408120548211156106d55760405162461bcd60e51b81526004016102a0906108c2565b6001600160a01b0383166106fb5760405162461bcd60e51b81526004016102a090610908565b335f908152600460205260408120805484929061071990849061095f565b90915550506001600160a01b0383165f9081526004602052604081208054849290610745908490610972565b90915550506040518281526001600160a01b0384169033907fddf252ad1be2c89b69c2b068fc378daa952ba7f163c4a11628f55a4df523b3ef906020016102fc565b602081525f82518060208401528060208501604085015e5f604082850101526040601f19601f83011684010191505092915050565b80356001600160a01b03811681146107d2575f5ffd5b919050565b5f5f604083850312156107e8575f5ffd5b6107f1836107bc565b946020939093013593505050565b5f5f5f60608486031215610811575f5ffd5b61081a846107bc565b9250610828602085016107bc565b929592945050506040919091013590565b5f60208284031215610849575f5ffd5b610852826107bc565b9392505050565b5f5f6040838503121561086a575f5ffd5b610873836107bc565b9150610881602084016107bc565b90509250929050565b600181811c9082168061089e57607f821691505b6020821081036108bc57634e487b7160e01b5f52602260045260245ffd5b50919050565b60208082526026908201527f45524332303a207472616e7366657220616d6f756e7420657863656564732062604082015265616c616e636560d01b606082015260800190565b60208082526023908201527f45524332303a207472616e7366657220746f20746865207a65726f206164647260408201526265737360e81b606082015260800190565b634e487b7160e01b5f52601160045260245ffd5b818103818111156103085761030861094b565b808201808211156103085761030861094b565b5f60208284031215610995575f5ffd5b81518015158114610852575f5ffdfea2646970667358221220e969e428ae3d5c12c6ab23518900162039f2cf836714658bae2dc3f28362d4f764736f6c634300081f0033",
					"opcodes": "PUSH1 0x80 PUSH1 0x40 MSTORE CALLVALUE DUP1 ISZERO PUSH2 0xF JUMPI PUSH0 PUSH0 REVERT JUMPDEST POP PUSH1 0x40 DUP1 MLOAD DUP1 DUP3 ADD SWAP1 SWAP2 MSTORE PUSH1 0xD DUP2 MSTORE PUSH13 0x457874656E646564455243323 PUSH1 0x9C SHL PUSH1 0x20 DUP3 ADD MSTORE PUSH0 SWAP1 PUSH2 0x40 SWAP1 DUP3 PUSH2 0x146 JUMP JUMPDEST POP PUSH1 0x40 DUP1 MLOAD DUP1 DUP3 ADD SWAP1 SWAP2 MSTORE PUSH1 0x6 DUP2 MSTORE PUSH6 0x45455243323 PUSH1 0xD4 SHL PUSH1 0x20 DUP3 ADD MSTORE PUSH1 0x1 SWAP1 PUSH2 0x6B SWAP1 DUP3 PUSH2 0x146 JUMP JUMPDEST POP PUSH1 0x2 DUP1 SLOAD PUSH1 0xFF NOT AND PUSH1 0x12 SWAP1 DUP2 OR SWAP1 SWAP2 SSTORE PUSH2 0x87 SWAP1 PUSH1 0xA PUSH2 0x2F9 JUMP JUMPDEST PUSH2 0x95 SWAP1 PUSH4 0x5F5E100 PUSH2 0x30B JUMP JUMPDEST PUSH1 0x3 DUP2 SWAP1 SSTORE CALLER PUSH0 SWAP1 DUP2 MSTORE PUSH1 0x4 PUSH1 0x20 MSTORE PUSH1 0x40 SWAP1 KECCAK256 SSTORE PUSH2 0x322 JUMP JUMPDEST PUSH4 0x4E487B71 PUSH1 0xE0 SHL PUSH0 MSTORE PUSH1 0x41 PUSH1 0x4 MSTORE PUSH1 0x24 PUSH0 REVERT JUMPDEST PUSH1 0x1 DUP2 DUP2 SHR SWAP1 DUP3 AND DUP1 PUSH2 0xD6 JUMPI PUSH1 0x7F DUP3 AND SWAP2 POP JUMPDEST PUSH1 0x20 DUP3 LT DUP2 SUB PUSH2 0xF4 JUMPI PUSH4 0x4E487B71 PUSH1 0xE0 SHL PUSH0 MSTORE PUSH1 0x22 PUSH1 0x4 MSTORE PUSH1 0x24 PUSH0 REVERT JUMPDEST POP SWAP2 SWAP1 POP JUMP JUMPDEST PUSH1 0x1F DUP3 GT ISZERO PUSH2 0x141 JUMPI DUP1 PUSH0 MSTORE PUSH1 0x20 PUSH0 KECCAK256 PUSH1 0x1F DUP5 ADD PUSH1 0x5 SHR DUP2 ADD PUSH1 0x20 DUP6 LT ISZERO PUSH2 0x11F JUMPI POP DUP1 JUMPDEST PUSH1 0x1F DUP5 ADD PUSH1 0x5 SHR DUP3 ADD SWAP2 POP JUMPDEST DUP2 DUP2 LT ISZERO PUSH2 0x13E JUMPI PUSH0 DUP2 SSTORE PUSH1 0x1 ADD PUSH2 0x12B JUMP JUMPDEST POP POP JUMPDEST POP POP POP JUMP JUMPDEST DUP2 MLOAD PUSH1 0x1 PUSH1 0x1 PUSH1 0x40 SHL SUB DUP2 GT ISZERO PUSH2 0x15F JUMPI PUSH2 0x15F PUSH2 0xAE JUMP JUMPDEST PUSH2 0x173 DUP2 PUSH2 0x16D DUP5 SLOAD PUSH2 0xC2 JUMP JUMPDEST DUP5 PUSH2 0xFA JUMP JUMPDEST PUSH1 0x20 PUSH1 0x1F DUP3 GT PUSH1 0x1 DUP2 EQ PUSH2 0x1A5 JUMPI PUSH0 DUP4 ISZERO PUSH2 0x18E JUMPI POP DUP5 DUP3 ADD MLOAD JUMPDEST PUSH0 NOT PUSH1 0x3 DUP6 SWAP1 SHL SHR NOT AND PUSH1 0x1 DUP5 SWAP1 SHL OR DUP5 SSTORE PUSH2 0x13E JUMP JUMPDEST PUSH0 DUP5 DUP2 MSTORE PUSH1 0x20 DUP2 KECCAK256 PUSH1 0x1F NOT DUP6 AND SWAP2 JUMPDEST DUP3 DUP2 LT ISZERO PUSH2 0x1D4 JUMPI DUP8 DUP6 ADD MLOAD DUP3 SSTORE PUSH1 0x20 SWAP5 DUP6 ADD SWAP5 PUSH1 0x1 SWAP1 SWAP3 ADD SWAP2 ADD PUSH2 0x1B4 JUMP JUMPDEST POP DUP5 DUP3 LT ISZERO PUSH2 0x1F1 JUMPI DUP7 DUP5 ADD MLOAD PUSH0 NOT PUSH1 0x3 DUP8 SWAP1 SHL PUSH1 0xF8 AND SHR NOT AND DUP2 SSTORE JUMPDEST POP POP POP POP PUSH1 0x1 SWAP1 DUP2 SHL ADD SWAP1 SSTORE POP JUMP JUMPDEST PUSH4 0x4E487B71 PUSH1 0xE0 SHL PUSH0 MSTORE PUSH1 0x11 PUSH1 0x4 MSTORE PUSH1 0x24 PUSH0 REVERT JUMPDEST PUSH1 0x1 DUP2 JUMPDEST PUSH1 0x1 DUP5 GT ISZERO PUSH2 0x24F JUMPI DUP1 DUP6 DIV DUP2 GT ISZERO PUSH2 0x233 JUMPI PUSH2 0x233 PUSH2 0x200 JUMP JUMPDEST PUSH1 0x1 DUP5 AND ISZERO PUSH2 0x241 JUMPI SWAP1 DUP2 MUL SWAP1 JUMPDEST PUSH1 0x1 SWAP4 SWAP1 SWAP4 SHR SWAP3 DUP1 MUL PUSH2 0x218 JUMP JUMPDEST SWAP4 POP SWAP4 SWAP2 POP POP JUMP JUMPDEST PUSH0 DUP3 PUSH2 0x265 JUMPI POP PUSH1 0x1 PUSH2 0x2F3 JUMP JUMPDEST DUP2 PUSH2 0x271 JUMPI POP PUSH0 PUSH2 0x2F3 JUMP JUMPDEST DUP2 PUSH1 0x1 DUP2 EQ PUSH2 0x287 JUMPI PUSH1 0x2 DUP2 EQ PUSH2 0x291 JUMPI PUSH2 0x2AD JUMP JUMPDEST PUSH1 0x1 SWAP2 POP POP PUSH2 0x2F3 JUMP JUMPDEST PUSH1 0xFF DUP5 GT ISZERO PUSH2 0x2A2 JUMPI PUSH2 0x2A2 PUSH2 0x200 JUMP JUMPDEST POP POP PUSH1 0x1 DUP3 SHL PUSH2 0x2F3 JUMP JUMPDEST POP PUSH1 0x20 DUP4 LT PUSH2 0x133 DUP4 LT AND PUSH1 0x4E DUP5 LT PUSH1 0xB DUP5 LT AND OR ISZERO PUSH2 0x2D0 JUMPI POP DUP2 DUP2 EXP PUSH2 0x2F3 JUMP JUMPDEST PUSH2 0x2DC PUSH0 NOT DUP5 DUP5 PUSH2 0x214 JUMP JUMPDEST DUP1 PUSH0 NOT DIV DUP3 GT ISZERO PUSH2 0x2EF JUMPI PUSH2 0x2EF PUSH2 0x200 JUMP JUMPDEST MUL SWAP1 POP JUMPDEST SWAP3 SWAP2 POP POP JUMP JUMPDEST PUSH0 PUSH2 0x304 DUP4 DUP4 PUSH2 0x257 JUMP JUMPDEST SWAP4 SWAP3 POP POP POP JUMP JUMPDEST DUP1 DUP3 MUL DUP2 ISZERO DUP3 DUP3 DIV DUP5 EQ OR PUSH2 0x2F3 JUMPI PUSH2 0x2F3 PUSH2 0x200 JUMP JUMPDEST PUSH2 0x9DA DUP1 PUSH2 0x32F PUSH0 CODECOPY PUSH0 RETURN INVALID PUSH1 0x80 PUSH1 0x40 MSTORE CALLVALUE DUP1 ISZERO PUSH2 0xF JUMPI PUSH0 PUSH0 REVERT JUMPDEST POP PUSH1 0x4 CALLDATASIZE LT PUSH2 0x9B JUMPI PUSH0 CALLDATALOAD PUSH1 0xE0 SHR DUP1 PUSH4 0x473E711B GT PUSH2 0x63 JUMPI DUP1 PUSH4 0x473E711B EQ PUSH2 0x129 JUMPI DUP1 PUSH4 0x70A08231 EQ PUSH2 0x13C JUMPI DUP1 PUSH4 0x95D89B41 EQ PUSH2 0x164 JUMPI DUP1 PUSH4 0xA9059CBB EQ PUSH2 0x16C JUMPI DUP1 PUSH4 0xDD62ED3E EQ PUSH2 0x17F JUMPI PUSH0 PUSH0 REVERT JUMPDEST DUP1 PUSH4 0x6FDDE03 EQ PUSH2 0x9F JUMPI DUP1 PUSH4 0x95EA7B3 EQ PUSH2 0xBD JUMPI DUP1 PUSH4 0x18160DDD EQ PUSH2 0xE0 JUMPI DUP1 PUSH4 0x23B872DD EQ PUSH2 0xF7 JUMPI DUP1 PUSH4 0x313CE567 EQ PUSH2 0x10A JUMPI JUMPDEST PUSH0 PUSH0 REVERT JUMPDEST PUSH2 0xA7 PUSH2 0x1B7 JUMP JUMPDEST PUSH1 0x40 MLOAD PUSH2 0xB4 SWAP2 SWAP1 PUSH2 0x787 JUMP JUMPDEST PUSH1 0x40 MLOAD DUP1 SWAP2 SUB SWAP1 RETURN JUMPDEST PUSH2 0xD0 PUSH2 0xCB CALLDATASIZE PUSH1 0x4 PUSH2 0x7D7 JUMP JUMPDEST PUSH2 0x242 JUMP JUMPDEST PUSH1 0x40 MLOAD SWAP1 ISZERO ISZERO DUP2 MSTORE PUSH1 0x20 ADD PUSH2 0xB4 JUMP JUMPDEST PUSH2 0xE9 PUSH1 0x3 SLOAD DUP2 JUMP JUMPDEST PUSH1 0x40 MLOAD SWAP1 DUP2 MSTORE PUSH1 0x20 ADD PUSH2 0xB4 JUMP JUMPDEST PUSH2 0xD0 PUSH2 0x105 CALLDATASIZE PUSH1 0x4 PUSH2 0x7FF JUMP JUMPDEST PUSH2 0x30E JUMP JUMPDEST PUSH1 0x2 SLOAD PUSH2 0x117 SWAP1 PUSH1 0xFF AND DUP2 JUMP JUMPDEST PUSH1 0x40 MLOAD PUSH1 0xFF SWAP1 SWAP2 AND DUP2 MSTORE PUSH1 0x20 ADD PUSH2 0xB4 JUMP JUMPDEST PUSH2 0xD0 PUSH2 0x137 CALLDATASIZE PUSH1 0x4 PUSH2 0x7D7 JUMP JUMPDEST PUSH2 0x4D6 JUMP JUMPDEST PUSH2 0xE9 PUSH2 0x14A CALLDATASIZE PUSH1 0x4 PUSH2 0x839 JUMP JUMPDEST PUSH1 0x1 PUSH1 0x1 PUSH1 0xA0 SHL SUB AND PUSH0 SWAP1 DUP2 MSTORE PUSH1 0x4 PUSH1 0x20 MSTORE PUSH1 0x40 SWAP1 KECCAK256 SLOAD SWAP1 JUMP JUMPDEST PUSH2 0xA7 PUSH2 0x69A JUMP JUMPDEST PUSH2 0xD0 PUSH2 0x17A CALLDATASIZE PUSH1 0x4 PUSH2 0x7D7 JUMP JUMPDEST PUSH2 0x6A7 JUMP JUMPDEST PUSH2 0xE9 PUSH2 0x18D CALLDATASIZE PUSH1 0x4 PUSH2 0x859 JUMP JUMPDEST PUSH1 0x1 PUSH1 0x1 PUSH1 0xA0 SHL SUB SWAP2 DUP3 AND PUSH0 SWAP1 DUP2 MSTORE PUSH1 0x5 PUSH1 0x20 SWAP1 DUP2 MSTORE PUSH1 0x40 DUP1 DUP4 KECCAK256 SWAP4 SWAP1 SWAP5 AND DUP3 MSTORE SWAP2 SWAP1 SWAP2 MSTORE KECCAK256 SLOAD SWAP1 JUMP JUMPDEST PUSH0 DUP1 SLOAD PUSH2 0x1C3 SWAP1 PUSH2 0x88A JUMP JUMPDEST DUP1 PUSH1 0x1F ADD PUSH1 0x20 DUP1 SWAP2 DIV MUL PUSH1 0x20 ADD PUSH1 0x40 MLOAD SWAP1 DUP2 ADD PUSH1 0x40 MSTORE DUP1 SWAP3 SWAP2 SWAP1 DUP2 DUP2 MSTORE PUSH1 0x20 ADD DUP3 DUP1 SLOAD PUSH2 0x1EF SWAP1 PUSH2 0x88A JUMP JUMPDEST DUP1 ISZERO PUSH2 0x23A JUMPI DUP1 PUSH1 0x1F LT PUSH2 0x211 JUMPI PUSH2 0x100 DUP1 DUP4 SLOAD DIV MUL DUP4 MSTORE SWAP2 PUSH1 0x20 ADD SWAP2 PUSH2 0x23A JUMP JUMPDEST DUP3 ADD SWAP2 SWAP1 PUSH0 MSTORE PUSH1 0x20 PUSH0 KECCAK256 SWAP1 JUMPDEST DUP2 SLOAD DUP2 MSTORE SWAP1 PUSH1 0x1 ADD SWAP1 PUSH1 0x20 ADD DUP1 DUP4 GT PUSH2 0x21D JUMPI DUP3 SWAP1 SUB PUSH1 0x1F AND DUP3 ADD SWAP2 JUMPDEST POP POP POP POP POP DUP2 JUMP JUMPDEST PUSH0 PUSH1 0x1 PUSH1 0x1 PUSH1 0xA0 SHL SUB DUP4 AND PUSH2 0x2A9 JUMPI PUSH1 0x40 MLOAD PUSH3 0x461BCD PUSH1 0xE5 SHL DUP2 MSTORE PUSH1 0x20 PUSH1 0x4 DUP3 ADD MSTORE PUSH1 0x22 PUSH1 0x24 DUP3 ADD MSTORE PUSH32 0x45524332303A20617070726F766520746F20746865207A65726F206164647265 PUSH1 0x44 DUP3 ADD MSTORE PUSH2 0x7373 PUSH1 0xF0 SHL PUSH1 0x64 DUP3 ADD MSTORE PUSH1 0x84 ADD JUMPDEST PUSH1 0x40 MLOAD DUP1 SWAP2 SUB SWAP1 REVERT JUMPDEST CALLER PUSH0 DUP2 DUP2 MSTORE PUSH1 0x5 PUSH1 0x20 SWAP1 DUP2 MSTORE PUSH1 0x40 DUP1 DUP4 KECCAK256 PUSH1 0x1 PUSH1 0x1 PUSH1 0xA0 SHL SUB DUP9 AND DUP1 DUP6 MSTORE SWAP1 DUP4 MSTORE SWAP3 DUP2 SWAP1 KECCAK256 DUP7 SWAP1 SSTORE MLOAD DUP6 DUP2 MSTORE SWAP2 SWAP3 SWAP2 PUSH32 0x8C5BE1E5EBEC7D5BD14F71427D1E84F3DD0314C0F7B2291E5B200AC8C7C3B925 SWAP2 ADD JUMPDEST PUSH1 0x40 MLOAD DUP1 SWAP2 SUB SWAP1 LOG3 POP PUSH1 0x1 JUMPDEST SWAP3 SWAP2 POP POP JUMP JUMPDEST PUSH1 0x1 PUSH1 0x1 PUSH1 0xA0 SHL SUB DUP4 AND PUSH0 SWAP1 DUP2 MSTORE PUSH1 0x4 PUSH1 0x20 MSTORE PUSH1 0x40 DUP2 KECCAK256 SLOAD DUP3 GT ISZERO PUSH2 0x345 JUMPI PUSH1 0x40 MLOAD PUSH3 0x461BCD PUSH1 0xE5 SHL DUP2 MSTORE PUSH1 0x4 ADD PUSH2 0x2A0 SWAP1 PUSH2 0x8C2 JUMP JUMPDEST PUSH1 0x1 PUSH1 0x1 PUSH1 0xA0 SHL SUB DUP5 AND PUSH0 SWAP1 DUP2 MSTORE PUSH1 0x5 PUSH1 0x20 SWAP1 DUP2 MSTORE PUSH1 0x40 DUP1 DUP4 KECCAK256 CALLER DUP5 MSTORE SWAP1 SWAP2 MSTORE SWAP1 KECCAK256 SLOAD DUP3 GT ISZERO PUSH2 0x3C8 JUMPI PUSH1 0x40 MLOAD PUSH3 0x461BCD PUSH1 0xE5 SHL DUP2 MSTORE PUSH1 0x20 PUSH1 0x4 DUP3 ADD MSTORE PUSH1 0x28 PUSH1 0x24 DUP3 ADD MSTORE PUSH32 0x45524332303A207472616E7366657220616D6F756E7420657863656564732061 PUSH1 0x44 DUP3 ADD MSTORE PUSH8 0x6C6C6F77616E6365 PUSH1 0xC0 SHL PUSH1 0x64 DUP3 ADD MSTORE PUSH1 0x84 ADD PUSH2 0x2A0 JUMP JUMPDEST PUSH1 0x1 PUSH1 0x1 PUSH1 0xA0 SHL SUB DUP4 AND PUSH2 0x3EE JUMPI PUSH1 0x40 MLOAD PUSH3 0x461BCD PUSH1 0xE5 SHL DUP2 MSTORE PUSH1 0x4 ADD PUSH2 0x2A0 SWAP1 PUSH2 0x908 JUMP JUMPDEST PUSH1 0x1 PUSH1 0x1 PUSH1 0xA0 SHL SUB DUP5 AND PUSH0 SWAP1 DUP2 MSTORE PUSH1 0x4 PUSH1 0x20 MSTORE PUSH1 0x40 DUP2 KECCAK256 DUP1 SLOAD DUP5 SWAP3 SWAP1 PUSH2 0x415 SWAP1 DUP5 SWAP1 PUSH2 0x95F JUMP JUMPDEST SWAP1 SWAP2 SSTORE POP POP PUSH1 0x1 PUSH1 0x1 PUSH1 0xA0 SHL SUB DUP4 AND PUSH0 SWAP1 DUP2 MSTORE PUSH1 0x4 PUSH1 0x20 MSTORE PUSH1 0x40 DUP2 KECCAK256 DUP1 SLOAD DUP5 SWAP3 SWAP1 PUSH2 0x441 SWAP1 DUP5 SWAP1 PUSH2 0x972 JUMP JUMPDEST SWAP1 SWAP2 SSTORE POP POP PUSH1 0x1 PUSH1 0x1 PUSH1 0xA0 SHL SUB DUP5 AND PUSH0 SWAP1 DUP2 MSTORE PUSH1 0x5 PUSH1 0x20 SWAP1 DUP2 MSTORE PUSH1 0x40 DUP1 DUP4 KECCAK256 CALLER DUP5 MSTORE SWAP1 SWAP2 MSTORE DUP2 KECCAK256 DUP1 SLOAD DUP5 SWAP3 SWAP1 PUSH2 0x478 SWAP1 DUP5 SWAP1 PUSH2 0x95F JUMP JUMPDEST SWAP3 POP POP DUP2 SWAP1 SSTORE POP DUP3 PUSH1 0x1 PUSH1 0x1 PUSH1 0xA0 SHL SUB AND DUP5 PUSH1 0x1 PUSH1 0x1 PUSH1 0xA0 SHL SUB AND PUSH32 0xDDF252AD1BE2C89B69C2B068FC378DAA952BA7F163C4A11628F55A4DF523B3EF DUP5 PUSH1 0x40 MLOAD PUSH2 0x4C4 SWAP2 DUP2 MSTORE PUSH1 0x20 ADD SWAP1 JUMP JUMPDEST PUSH1 0x40 MLOAD DUP1 SWAP2 SUB SWAP1 LOG3 POP PUSH1 0x1 SWAP4 SWAP3 POP POP POP JUMP JUMPDEST CALLER PUSH0 SWAP1 DUP2 MSTORE PUSH1 0x4 PUSH1 0x20 MSTORE PUSH1 0x40 DUP2 KECCAK256 SLOAD DUP3 GT ISZERO PUSH2 0x534 JUMPI PUSH1 0x40 MLOAD PUSH3 0x461BCD PUSH1 0xE5 SHL DUP2 MSTORE PUSH1 0x20 PUSH1 0x4 DUP3 ADD MSTORE PUSH1 0x1E PUSH1 0x24 DUP3 ADD MSTORE PUSH32 0x7472616E7366657220616D6F756E74206578636565642062616C616E63650000 PUSH1 0x44 DUP3 ADD MSTORE PUSH1 0x64 ADD PUSH2 0x2A0 JUMP JUMPDEST PUSH1 0x1 PUSH1 0x1 PUSH1 0xA0 SHL SUB DUP4 AND PUSH2 0x58A JUMPI PUSH1 0x40 MLOAD PUSH3 0x461BCD PUSH1 0xE5 SHL DUP2 MSTORE PUSH1 0x20 PUSH1 0x4 DUP3 ADD DUP2 SWAP1 MSTORE PUSH1 0x24 DUP3 ADD MSTORE PUSH32 0x63616E206E6F74207472616E7366657220746F207A65726F2061646472657373 PUSH1 0x44 DUP3 ADD MSTORE PUSH1 0x64 ADD PUSH2 0x2A0 JUMP JUMPDEST CALLER PUSH0 SWAP1 DUP2 MSTORE PUSH1 0x4 PUSH1 0x20 MSTORE PUSH1 0x40 DUP2 KECCAK256 DUP1 SLOAD DUP5 SWAP3 SWAP1 PUSH2 0x5A8 SWAP1 DUP5 SWAP1 PUSH2 0x95F JUMP JUMPDEST SWAP1 SWAP2 SSTORE POP POP PUSH1 0x1 PUSH1 0x1 PUSH1 0xA0 SHL SUB DUP4 AND PUSH0 SWAP1 DUP2 MSTORE PUSH1 0x4 PUSH1 0x20 MSTORE PUSH1 0x40 DUP2 KECCAK256 DUP1 SLOAD DUP5 SWAP3 SWAP1 PUSH2 0x5D4 SWAP1 DUP5 SWAP1 PUSH2 0x972 JUMP JUMPDEST SWAP1 SWAP2 SSTORE POP POP PUSH1 0x40 MLOAD DUP3 DUP2 MSTORE PUSH1 0x1 PUSH1 0x1 PUSH1 0xA0 SHL SUB DUP5 AND SWAP1 CALLER SWAP1 PUSH32 0xDDF252AD1BE2C89B69C2B068FC378DAA952BA7F163C4A11628F55A4DF523B3EF SWAP1 PUSH1 0x20 ADD PUSH1 0x40 MLOAD DUP1 SWAP2 SUB SWAP1 LOG3 DUP3 EXTCODESIZE PUSH4 0xFFFFFFFF AND ISZERO PUSH2 0x308 JUMPI PUSH1 0x40 MLOAD PUSH4 0x24A756D1 PUSH1 0xE0 SHL DUP2 MSTORE CALLER PUSH1 0x4 DUP3 ADD MSTORE PUSH1 0x24 DUP2 ADD DUP4 SWAP1 MSTORE PUSH1 0x1 PUSH1 0x1 PUSH1 0xA0 SHL SUB DUP5 AND SWAP1 PUSH4 0x24A756D1 SWAP1 PUSH1 0x44 ADD PUSH1 0x20 PUSH1 0x40 MLOAD DUP1 DUP4 SUB DUP2 PUSH0 DUP8 GAS CALL SWAP3 POP POP POP DUP1 ISZERO PUSH2 0x68E JUMPI POP PUSH1 0x40 DUP1 MLOAD PUSH1 0x1F RETURNDATASIZE SWAP1 DUP2 ADD PUSH1 0x1F NOT AND DUP3 ADD SWAP1 SWAP3 MSTORE PUSH2 0x68B SWAP2 DUP2 ADD SWAP1 PUSH2 0x985 JUMP JUMPDEST PUSH1 0x1 JUMPDEST ISZERO PUSH2 0x308 JUMPI POP SWAP3 SWAP2 POP POP JUMP JUMPDEST PUSH1 0x1 DUP1 SLOAD PUSH2 0x1C3 SWAP1 PUSH2 0x88A JUMP JUMPDEST CALLER PUSH0 SWAP1 DUP2 MSTORE PUSH1 0x4 PUSH1 0x20 MSTORE PUSH1 0x40 DUP2 KECCAK256 SLOAD DUP3 GT ISZERO PUSH2 0x6D5 JUMPI PUSH1 0x40 MLOAD PUSH3 0x461BCD PUSH1 0xE5 SHL DUP2 MSTORE PUSH1 0x4 ADD PUSH2 0x2A0 SWAP1 PUSH2 0x8C2 JUMP JUMPDEST PUSH1 0x1 PUSH1 0x1 PUSH1 0xA0 SHL SUB DUP4 AND PUSH2 0x6FB JUMPI PUSH1 0x40 MLOAD PUSH3 0x461BCD PUSH1 0xE5 SHL DUP2 MSTORE PUSH1 0x4 ADD PUSH2 0x2A0 SWAP1 PUSH2 0x908 JUMP JUMPDEST CALLER PUSH0 SWAP1 DUP2 MSTORE PUSH1 0x4 PUSH1 0x20 MSTORE PUSH1 0x40 DUP2 KECCAK256 DUP1 SLOAD DUP5 SWAP3 SWAP1 PUSH2 0x719 SWAP1 DUP5 SWAP1 PUSH2 0x95F JUMP JUMPDEST SWAP1 SWAP2 SSTORE POP POP PUSH1 0x1 PUSH1 0x1 PUSH1 0xA0 SHL SUB DUP4 AND PUSH0 SWAP1 DUP2 MSTORE PUSH1 0x4 PUSH1 0x20 MSTORE PUSH1 0x40 DUP2 KECCAK256 DUP1 SLOAD DUP5 SWAP3 SWAP1 PUSH2 0x745 SWAP1 DUP5 SWAP1 PUSH2 0x972 JUMP JUMPDEST SWAP1 SWAP2 SSTORE POP POP PUSH1 0x40 MLOAD DUP3 DUP2 MSTORE PUSH1 0x1 PUSH1 0x1 PUSH1 0xA0 SHL SUB DUP5 AND SWAP1 CALLER SWAP1 PUSH32 0xDDF252AD1BE2C89B69C2B068FC378DAA952BA7F163C4A11628F55A4DF523B3EF SWAP1 PUSH1 0x20 ADD PUSH2 0x2FC JUMP JUMPDEST PUSH1 0x20 DUP2 MSTORE PUSH0 DUP3 MLOAD DUP1 PUSH1 0x20 DUP5 ADD MSTORE DUP1 PUSH1 0x20 DUP6 ADD PUSH1 0x40 DUP6 ADD MCOPY PUSH0 PUSH1 0x40 DUP3 DUP6 ADD ADD MSTORE PUSH1 0x40 PUSH1 0x1F NOT PUSH1 0x1F DUP4 ADD AND DUP5 ADD ADD SWAP2 POP POP SWAP3 SWAP2 POP POP JUMP JUMPDEST DUP1 CALLDATALOAD PUSH1 0x1 PUSH1 0x1 PUSH1 0xA0 SHL SUB DUP2 AND DUP2 EQ PUSH2 0x7D2 JUMPI PUSH0 PUSH0 REVERT JUMPDEST SWAP2 SWAP1 POP JUMP JUMPDEST PUSH0 PUSH0 PUSH1 0x40 DUP4 DUP6 SUB SLT ISZERO PUSH2 0x7E8 JUMPI PUSH0 PUSH0 REVERT JUMPDEST PUSH2 0x7F1 DUP4 PUSH2 0x7BC JUMP JUMPDEST SWAP5 PUSH1 0x20 SWAP4 SWAP1 SWAP4 ADD CALLDATALOAD SWAP4 POP POP POP JUMP JUMPDEST PUSH0 PUSH0 PUSH0 PUSH1 0x60 DUP5 DUP7 SUB SLT ISZERO PUSH2 0x811 JUMPI PUSH0 PUSH0 REVERT JUMPDEST PUSH2 0x81A DUP5 PUSH2 0x7BC JUMP JUMPDEST SWAP3 POP PUSH2 0x828 PUSH1 0x20 DUP6 ADD PUSH2 0x7BC JUMP JUMPDEST SWAP3 SWAP6 SWAP3 SWAP5 POP POP POP PUSH1 0x40 SWAP2 SWAP1 SWAP2 ADD CALLDATALOAD SWAP1 JUMP JUMPDEST PUSH0 PUSH1 0x20 DUP3 DUP5 SUB SLT ISZERO PUSH2 0x849 JUMPI PUSH0 PUSH0 REVERT JUMPDEST PUSH2 0x852 DUP3 PUSH2 0x7BC JUMP JUMPDEST SWAP4 SWAP3 POP POP POP JUMP JUMPDEST PUSH0 PUSH0 PUSH1 0x40 DUP4 DUP6 SUB SLT ISZERO PUSH2 0x86A JUMPI PUSH0 PUSH0 REVERT JUMPDEST PUSH2 0x873 DUP4 PUSH2 0x7BC JUMP JUMPDEST SWAP2 POP PUSH2 0x881 PUSH1 0x20 DUP5 ADD PUSH2 0x7BC JUMP JUMPDEST SWAP1 POP SWAP3 POP SWAP3 SWAP1 POP JUMP JUMPDEST PUSH1 0x1 DUP2 DUP2 SHR SWAP1 DUP3 AND DUP1 PUSH2 0x89E JUMPI PUSH1 0x7F DUP3 AND SWAP2 POP JUMPDEST PUSH1 0x20 DUP3 LT DUP2 SUB PUSH2 0x8BC JUMPI PUSH4 0x4E487B71 PUSH1 0xE0 SHL PUSH0 MSTORE PUSH1 0x22 PUSH1 0x4 MSTORE PUSH1 0x24 PUSH0 REVERT JUMPDEST POP SWAP2 SWAP1 POP JUMP JUMPDEST PUSH1 0x20 DUP1 DUP3 MSTORE PUSH1 0x26 SWAP1 DUP3 ADD MSTORE PUSH32 0x45524332303A207472616E7366657220616D6F756E7420657863656564732062 PUSH1 0x40 DUP3 ADD MSTORE PUSH6 0x616C616E6365 PUSH1 0xD0 SHL PUSH1 0x60 DUP3 ADD MSTORE PUSH1 0x80 ADD SWAP1 JUMP JUMPDEST PUSH1 0x20 DUP1 DUP3 MSTORE PUSH1 0x23 SWAP1 DUP3 ADD MSTORE PUSH32 0x45524332303A207472616E7366657220746F20746865207A65726F2061646472 PUSH1 0x40 DUP3 ADD MSTORE PUSH3 0x657373 PUSH1 0xE8 SHL PUSH1 0x60 DUP3 ADD MSTORE PUSH1 0x80 ADD SWAP1 JUMP JUMPDEST PUSH4 0x4E487B71 PUSH1 0xE0 SHL PUSH0 MSTORE PUSH1 0x11 PUSH1 0x4 MSTORE PUSH1 0x24 PUSH0 REVERT JUMPDEST DUP2 DUP2 SUB DUP2 DUP2 GT ISZERO PUSH2 0x308 JUMPI PUSH2 0x308 PUSH2 0x94B JUMP JUMPDEST DUP1 DUP3 ADD DUP1 DUP3 GT ISZERO PUSH2 0x308 JUMPI PUSH2 0x308 PUSH2 0x94B JUMP JUMPDEST PUSH0 PUSH1 0x20 DUP3 DUP5 SUB SLT ISZERO PUSH2 0x995 JUMPI PUSH0 PUSH0 REVERT JUMPDEST DUP2 MLOAD DUP1 ISZERO ISZERO DUP2 EQ PUSH2 0x852 JUMPI PUSH0 PUSH0 REVERT INVALID LOG2 PUSH5 0x6970667358 0x22 SLT KECCAK256 0xE9 PUSH10 0xE428AE3D5C12C6AB2351 DUP10 STOP AND KECCAK256 CODECOPY CALLCODE 0xCF DUP4 PUSH8 0x14658BAE2DC3F283 PUSH3 0xD4F764 PUSH20 0x6F6C634300081F00330000000000000000000000 "
				},
				"gasEstimates": {
					"creation": {
						"codeDepositCost": "504400",
						"executionCost": "infinite",
						"totalCost": "infinite"
					},
					"external": {
						"allowance(address,address)": "infinite",
						"approve(address,uint256)": "24539",
						"balanceOf(address)": "2556",
						"decimals()": "2401",
						"name()": "infinite",
						"symbol()": "infinite",
						"totalSupply()": "2339",
						"transfer(address,uint256)": "infinite",
						"transferFrom(address,address,uint256)": "infinite",
						"transferWithCallBack(address,uint256)": "infinite"
					},
					"internal": {
						"isContract(address)": "infinite"
					}
				},
				"methodIdentifiers": {
					"allowance(address,address)": "dd62ed3e",
					"approve(address,uint256)": "095ea7b3",
					"balanceOf(address)": "70a08231",
					"decimals()": "313ce567",
					"name()": "06fdde03",
					"symbol()": "95d89b41",
					"totalSupply()": "18160ddd",
					"transfer(address,uint256)": "a9059cbb",
					"transferFrom(address,address,uint256)": "23b872dd",
					"transferWithCallBack(address,uint256)": "473e711b"
				}
			},
			"storageLayout": {
				"storage": [
					{
						"astId": 59,
						"contract": "contracts/TokenBankV2.sol:ExtendedERC20",
						"label": "name",
						"offset": 0,
						"slot": "0",
						"type": "t_string_storage"
					},
					{
						"astId": 61,
						"contract": "contracts/TokenBankV2.sol:ExtendedERC20",
						"label": "symbol",
						"offset": 0,
						"slot": "1",
						"type": "t_string_storage"
					},
					{
						"astId": 63,
						"contract": "contracts/TokenBankV2.sol:ExtendedERC20",
						"label": "decimals",
						"offset": 0,
						"slot": "2",
						"type": "t_uint8"
					},
					{
						"astId": 65,
						"contract": "contracts/TokenBankV2.sol:ExtendedERC20",
						"label": "totalSupply",
						"offset": 0,
						"slot": "3",
						"type": "t_uint256"
					},
					{
						"astId": 69,
						"contract": "contracts/TokenBankV2.sol:ExtendedERC20",
						"label": "balances",
						"offset": 0,
						"slot": "4",
						"type": "t_mapping(t_address,t_uint256)"
					},
					{
						"astId": 75,
						"contract": "contracts/TokenBankV2.sol:ExtendedERC20",
						"label": "allowances",
						"offset": 0,
						"slot": "5",
						"type": "t_mapping(t_address,t_mapping(t_address,t_uint256))"
					}
				],
				"types": {
					"t_address": {
						"encoding": "inplace",
						"label": "address",
						"numberOfBytes": "20"
					},
					"t_mapping(t_address,t_mapping(t_address,t_uint256))": {
						"encoding": "mapping",
						"key": "t_address",
						"label": "mapping(address => mapping(address => uint256))",
						"numberOfBytes": "32",
						"value": "t_mapping(t_address,t_uint256)"
					},
					"t_mapping(t_address,t_uint256)": {
						"encoding": "mapping",
						"key": "t_address",
						"label": "mapping(address => uint256)",
						"numberOfBytes": "32",
						"value": "t_uint256"
					},
					"t_string_storage": {
						"encoding": "bytes",
						"label": "string",
						"numberOfBytes": "32"
					},
					"t_uint256": {
						"encoding": "inplace",
						"label": "uint256",
						"numberOfBytes": "32"
					},
					"t_uint8": {
						"encoding": "inplace",
						"label": "uint8",
						"numberOfBytes": "1"
					}
				}
			},
			"userdoc": {
				"kind": "user",
				"methods": {},
				"version": 1
			}
		}
	}
}