{
	"contracts/Bank.sol": {
		"Bank": {
			"abi": [
				{
					"inputs": [],
					"stateMutability": "nonpayable",
					"type": "constructor"
				},
				{
					"inputs": [],
					"name": "admin",
					"outputs": [
						{
							"internalType": "address",
							"name": "",
							"type": "address"
						}
					],
					"stateMutability": "view",
					"type": "function"
				},
				{
					"inputs": [],
					"name": "deposit",
					"outputs": [],
					"stateMutability": "payable",
					"type": "function"
				},
				{
					"inputs": [
						{
							"internalType": "address",
							"name": "",
							"type": "address"
						}
					],
					"name": "deposits",
					"outputs": [
						{
							"internalType": "uint256",
							"name": "",
							"type": "uint256"
						}
					],
					"stateMutability": "view",
					"type": "function"
				},
				{
					"inputs": [
						{
							"internalType": "uint256",
							"name": "",
							"type": "uint256"
						}
					],
					"name": "topDepositors",
					"outputs": [
						{
							"internalType": "address",
							"name": "",
							"type": "address"
						}
					],
					"stateMutability": "view",
					"type": "function"
				},
				{
					"stateMutability": "payable",
					"type": "receive"
				}
			],
			"devdoc": {
				"kind": "dev",
				"methods": {},
				"version": 1
			},
			"evm": {
				"assembly": "    /* \"contracts/Bank.sol\":57:1792  contract Bank{... */\n  mstore(0x40, 0xa0)\n    /* \"contracts/Bank.sol\":244:291  constructor(){... */\n  callvalue\n  dup1\n  iszero\n  tag_1\n  jumpi\n  revert(0x00, 0x00)\ntag_1:\n  pop\n    /* \"contracts/Bank.sol\":274:284  msg.sender */\n  caller\n    /* \"contracts/Bank.sol\":267:284  admin= msg.sender */\n  0x80\n  mstore\n    /* \"contracts/Bank.sol\":57:1792  contract Bank{... */\n  mload(0x80)\n  codecopy(0x00, dataOffset(sub_0), dataSize(sub_0))\n  0x00\n  assignImmutable(\"0x2a80e1ef1d7842f27f2e6be0972bb708b9a135c38860dbe73c27c3486c34f4de\")\n  return(0x00, dataSize(sub_0))\nstop\n\nsub_0: assembly {\n        /* \"contracts/Bank.sol\":57:1792  contract Bank{... */\n      mstore(0x40, 0x80)\n      jumpi(tag_1, lt(calldatasize, 0x04))\n      shr(0xe0, calldataload(0x00))\n      dup1\n      0x30861078\n      eq\n      tag_3\n      jumpi\n      dup1\n      0xd0e30db0\n      eq\n      tag_4\n      jumpi\n      dup1\n      0xf851a440\n      eq\n      tag_5\n      jumpi\n      dup1\n      0xfc7e286d\n      eq\n      tag_6\n      jumpi\n      revert(0x00, 0x00)\n    tag_1:\n      jumpi(tag_2, calldatasize)\n        /* \"contracts/Bank.sol\":333:348  handleDeposit() */\n      tag_9\n        /* \"contracts/Bank.sol\":333:346  handleDeposit */\n      tag_10\n        /* \"contracts/Bank.sol\":333:348  handleDeposit() */\n      jump\t// in\n    tag_9:\n        /* \"contracts/Bank.sol\":57:1792  contract Bank{... */\n      stop\n    tag_2:\n      revert(0x00, 0x00)\n        /* \"contracts/Bank.sol\":163:194  address[3] public topDepositors */\n    tag_3:\n      callvalue\n      dup1\n      iszero\n      tag_11\n      jumpi\n      revert(0x00, 0x00)\n    tag_11:\n      pop\n      tag_12\n      tag_13\n      calldatasize\n      0x04\n      tag_14\n      jump\t// in\n    tag_13:\n      tag_15\n      jump\t// in\n    tag_12:\n      mload(0x40)\n      sub(shl(0xa0, 0x01), 0x01)\n        /* \"#utility.yul\":363:395   */\n      swap1\n      swap2\n      and\n        /* \"#utility.yul\":345:396   */\n      dup2\n      mstore\n        /* \"#utility.yul\":333:335   */\n      0x20\n        /* \"#utility.yul\":318:336   */\n      add\n        /* \"contracts/Bank.sol\":163:194  address[3] public topDepositors */\n    tag_16:\n      mload(0x40)\n      dup1\n      swap2\n      sub\n      swap1\n      return\n        /* \"contracts/Bank.sol\":361:429  function deposit()external payable  {... */\n    tag_4:\n      tag_9\n      tag_19\n      jump\t// in\n        /* \"contracts/Bank.sol\":76:106  address public immutable admin */\n    tag_5:\n      callvalue\n      dup1\n      iszero\n      tag_20\n      jumpi\n      revert(0x00, 0x00)\n    tag_20:\n      pop\n      tag_12\n      immutable(\"0x2a80e1ef1d7842f27f2e6be0972bb708b9a135c38860dbe73c27c3486c34f4de\")\n      dup2\n      jump\n        /* \"contracts/Bank.sol\":112:156  mapping (address => uint256) public deposits */\n    tag_6:\n      callvalue\n      dup1\n      iszero\n      tag_24\n      jumpi\n      revert(0x00, 0x00)\n    tag_24:\n      pop\n      tag_25\n      tag_26\n      calldatasize\n      0x04\n      tag_27\n      jump\t// in\n    tag_26:\n      0x00\n      0x20\n      dup2\n      swap1\n      mstore\n      swap1\n      dup2\n      mstore\n      0x40\n      swap1\n      keccak256\n      sload\n      dup2\n      jump\n    tag_25:\n      mload(0x40)\n        /* \"#utility.yul\":844:869   */\n      swap1\n      dup2\n      mstore\n        /* \"#utility.yul\":832:834   */\n      0x20\n        /* \"#utility.yul\":817:835   */\n      add\n        /* \"contracts/Bank.sol\":112:156  mapping (address => uint256) public deposits */\n      tag_16\n        /* \"#utility.yul\":698:875   */\n      jump\n        /* \"contracts/Bank.sol\":435:559  function handleDeposit()internal {... */\n    tag_10:\n        /* \"contracts/Bank.sol\":487:497  msg.sender */\n      caller\n        /* \"contracts/Bank.sol\":478:486  deposits */\n      0x00\n        /* \"contracts/Bank.sol\":478:498  deposits[msg.sender] */\n      swap1\n      dup2\n      mstore\n      0x20\n      dup2\n      swap1\n      mstore\n      0x40\n      dup2\n      keccak256\n        /* \"contracts/Bank.sol\":478:511  deposits[msg.sender] += msg.value */\n      dup1\n      sload\n        /* \"contracts/Bank.sol\":502:511  msg.value */\n      callvalue\n      swap3\n        /* \"contracts/Bank.sol\":478:486  deposits */\n      swap1\n        /* \"contracts/Bank.sol\":478:511  deposits[msg.sender] += msg.value */\n      tag_32\n      swap1\n        /* \"contracts/Bank.sol\":502:511  msg.value */\n      dup5\n      swap1\n        /* \"contracts/Bank.sol\":478:511  deposits[msg.sender] += msg.value */\n      tag_33\n      jump\t// in\n    tag_32:\n      swap1\n      swap2\n      sstore\n      pop\n        /* \"contracts/Bank.sol\":521:552  updateTopDepositors(msg.sender) */\n      tag_34\n      swap1\n      pop\n        /* \"contracts/Bank.sol\":541:551  msg.sender */\n      caller\n        /* \"contracts/Bank.sol\":521:540  updateTopDepositors */\n      tag_35\n        /* \"contracts/Bank.sol\":521:552  updateTopDepositors(msg.sender) */\n      jump\t// in\n    tag_34:\n        /* \"contracts/Bank.sol\":435:559  function handleDeposit()internal {... */\n      jump\t// out\n        /* \"contracts/Bank.sol\":163:194  address[3] public topDepositors */\n    tag_15:\n      0x01\n      dup2\n      0x03\n      dup2\n      lt\n      tag_36\n      jumpi\n      0x00\n      dup1\n      revert\n    tag_36:\n      add\n      sload\n      sub(shl(0xa0, 0x01), 0x01)\n      and\n      swap1\n      pop\n      dup2\n      jump\t// out\n        /* \"contracts/Bank.sol\":361:429  function deposit()external payable  {... */\n    tag_19:\n        /* \"contracts/Bank.sol\":407:422  handleDeposit() */\n      tag_34\n        /* \"contracts/Bank.sol\":407:420  handleDeposit */\n      tag_10\n        /* \"contracts/Bank.sol\":407:422  handleDeposit() */\n      jump\t// in\n        /* \"contracts/Bank.sol\":565:1278  function updateTopDepositors(address depositor) internal {... */\n    tag_35:\n      sub(shl(0xa0, 0x01), 0x01)\n        /* \"contracts/Bank.sol\":656:675  deposits[depositor] */\n      dup2\n      and\n        /* \"contracts/Bank.sol\":632:653  uint depositorBalance */\n      0x00\n        /* \"contracts/Bank.sol\":656:675  deposits[depositor] */\n      swap1\n      dup2\n      mstore\n      0x20\n      dup2\n      swap1\n      mstore\n      0x40\n      dup2\n      keccak256\n      sload\n      swap1\n        /* \"contracts/Bank.sol\":685:856  for (uint8 i = 0; i < TOP_COUNT; i++) {... */\n    tag_41:\n        /* \"contracts/Bank.sol\":236:237  3 */\n      0x03\n        /* \"contracts/Bank.sol\":703:716  i < TOP_COUNT */\n      0xff\n      dup3\n      and\n      lt\n        /* \"contracts/Bank.sol\":685:856  for (uint8 i = 0; i < TOP_COUNT; i++) {... */\n      iszero\n      tag_42\n      jumpi\n        /* \"contracts/Bank.sol\":761:770  depositor */\n      dup3\n      sub(shl(0xa0, 0x01), 0x01)\n        /* \"contracts/Bank.sol\":741:770  topDepositors[i] == depositor */\n      and\n        /* \"contracts/Bank.sol\":741:754  topDepositors */\n      0x01\n        /* \"contracts/Bank.sol\":755:756  i */\n      dup3\n        /* \"contracts/Bank.sol\":741:757  topDepositors[i] */\n      0xff\n      and\n      0x03\n      dup2\n      lt\n      tag_45\n      jumpi\n      tag_45\n      tag_46\n      jump\t// in\n    tag_45:\n      add\n      sload\n      sub(shl(0xa0, 0x01), 0x01)\n      and\n        /* \"contracts/Bank.sol\":741:770  topDepositors[i] == depositor */\n      sub\n        /* \"contracts/Bank.sol\":737:846  if (topDepositors[i] == depositor) {... */\n      tag_48\n      jumpi\n        /* \"contracts/Bank.sol\":790:807  _updateRankings() */\n      tag_49\n        /* \"contracts/Bank.sol\":790:805  _updateRankings */\n      tag_50\n        /* \"contracts/Bank.sol\":790:807  _updateRankings() */\n      jump\t// in\n    tag_49:\n        /* \"contracts/Bank.sol\":825:832  return; */\n      pop\n      pop\n        /* \"contracts/Bank.sol\":565:1278  function updateTopDepositors(address depositor) internal {... */\n      pop\n      jump\t// out\n        /* \"contracts/Bank.sol\":737:846  if (topDepositors[i] == depositor) {... */\n    tag_48:\n        /* \"contracts/Bank.sol\":718:721  i++ */\n      0x01\n      add\n        /* \"contracts/Bank.sol\":685:856  for (uint8 i = 0; i < TOP_COUNT; i++) {... */\n      jump(tag_41)\n    tag_42:\n      pop\n        /* \"contracts/Bank.sol\":879:886  uint8 i */\n      0x00\n        /* \"contracts/Bank.sol\":874:1272  for (uint8 i = 0; i < TOP_COUNT; i++) {... */\n    tag_51:\n        /* \"contracts/Bank.sol\":236:237  3 */\n      0x03\n        /* \"contracts/Bank.sol\":892:905  i < TOP_COUNT */\n      0xff\n      dup3\n      and\n      lt\n        /* \"contracts/Bank.sol\":874:1272  for (uint8 i = 0; i < TOP_COUNT; i++) {... */\n      iszero\n      tag_49\n      jumpi\n        /* \"contracts/Bank.sol\":926:945  address currentAddr */\n      0x00\n        /* \"contracts/Bank.sol\":948:961  topDepositors */\n      0x01\n        /* \"contracts/Bank.sol\":962:963  i */\n      dup3\n        /* \"contracts/Bank.sol\":948:964  topDepositors[i] */\n      0xff\n      and\n      0x03\n      dup2\n      lt\n      tag_55\n      jumpi\n      tag_55\n      tag_46\n      jump\t// in\n    tag_55:\n      add\n      sload\n      sub(shl(0xa0, 0x01), 0x01)\n      and\n      swap1\n      pop\n        /* \"contracts/Bank.sol\":982:1007  currentAddr == address(0) */\n      dup1\n      iszero\n      dup1\n        /* \"contracts/Bank.sol\":982:1051  currentAddr == address(0) || depositorBalance > deposits[currentAddr] */\n      tag_57\n      jumpi\n      pop\n      sub(shl(0xa0, 0x01), 0x01)\n        /* \"contracts/Bank.sol\":1030:1051  deposits[currentAddr] */\n      dup2\n      and\n        /* \"contracts/Bank.sol\":1030:1038  deposits */\n      0x00\n        /* \"contracts/Bank.sol\":1030:1051  deposits[currentAddr] */\n      swap1\n      dup2\n      mstore\n      0x20\n      dup2\n      swap1\n      mstore\n      0x40\n      swap1\n      keccak256\n      sload\n        /* \"contracts/Bank.sol\":1011:1051  depositorBalance > deposits[currentAddr] */\n      dup4\n      gt\n        /* \"contracts/Bank.sol\":982:1051  currentAddr == address(0) || depositorBalance > deposits[currentAddr] */\n    tag_57:\n        /* \"contracts/Bank.sol\":978:1262  if (currentAddr == address(0) || depositorBalance > deposits[currentAddr]) {... */\n      iszero\n      tag_58\n      jumpi\n        /* \"contracts/Bank.sol\":1086:1087  2 */\n      0x02\n        /* \"contracts/Bank.sol\":1071:1179  for (uint8 j = 2; j > i; j--) {... */\n    tag_59:\n        /* \"contracts/Bank.sol\":1093:1094  i */\n      dup3\n        /* \"contracts/Bank.sol\":1089:1094  j > i */\n      0xff\n      and\n        /* \"contracts/Bank.sol\":1089:1090  j */\n      dup2\n        /* \"contracts/Bank.sol\":1089:1094  j > i */\n      0xff\n      and\n      gt\n        /* \"contracts/Bank.sol\":1071:1179  for (uint8 j = 2; j > i; j--) {... */\n      iszero\n      tag_60\n      jumpi\n        /* \"contracts/Bank.sol\":1142:1155  topDepositors */\n      0x01\n        /* \"contracts/Bank.sol\":1156:1159  j-1 */\n      tag_62\n        /* \"contracts/Bank.sol\":1142:1155  topDepositors */\n      dup2\n        /* \"contracts/Bank.sol\":1156:1157  j */\n      dup4\n        /* \"contracts/Bank.sol\":1156:1159  j-1 */\n      tag_63\n      jump\t// in\n    tag_62:\n        /* \"contracts/Bank.sol\":1142:1160  topDepositors[j-1] */\n      0xff\n      and\n      0x03\n      dup2\n      lt\n      tag_65\n      jumpi\n      tag_65\n      tag_46\n      jump\t// in\n    tag_65:\n      add\n      sload\n      sub(shl(0xa0, 0x01), 0x01)\n      and\n      0x01\n        /* \"contracts/Bank.sol\":1123:1139  topDepositors[j] */\n      0xff\n      dup4\n      and\n      0x03\n      dup2\n      lt\n      tag_68\n      jumpi\n      tag_68\n      tag_46\n      jump\t// in\n    tag_68:\n      add\n        /* \"contracts/Bank.sol\":1123:1160  topDepositors[j] = topDepositors[j-1] */\n      dup1\n      sload\n      not(sub(shl(0xa0, 0x01), 0x01))\n      and\n      sub(shl(0xa0, 0x01), 0x01)\n      swap3\n      swap1\n      swap3\n      and\n      swap2\n      swap1\n      swap2\n      or\n      swap1\n      sstore\n        /* \"contracts/Bank.sol\":1096:1099  j-- */\n      dup1\n      tag_70\n      dup2\n      tag_71\n      jump\t// in\n    tag_70:\n      swap2\n      pop\n      pop\n        /* \"contracts/Bank.sol\":1071:1179  for (uint8 j = 2; j > i; j--) {... */\n      jump(tag_59)\n    tag_60:\n      pop\n        /* \"contracts/Bank.sol\":1215:1224  depositor */\n      dup4\n        /* \"contracts/Bank.sol\":1196:1209  topDepositors */\n      0x01\n        /* \"contracts/Bank.sol\":1210:1211  i */\n      dup4\n        /* \"contracts/Bank.sol\":1196:1212  topDepositors[i] */\n      0xff\n      and\n      0x03\n      dup2\n      lt\n      tag_73\n      jumpi\n      tag_73\n      tag_46\n      jump\t// in\n    tag_73:\n      add\n        /* \"contracts/Bank.sol\":1196:1224  topDepositors[i] = depositor */\n      dup1\n      sload\n      not(sub(shl(0xa0, 0x01), 0x01))\n      and\n      sub(shl(0xa0, 0x01), 0x01)\n      swap3\n      swap1\n      swap3\n      and\n      swap2\n      swap1\n      swap2\n      or\n      swap1\n      sstore\n      pop\n      pop\n      pop\n      pop\n        /* \"contracts/Bank.sol\":565:1278  function updateTopDepositors(address depositor) internal {... */\n      jump\t// out\n        /* \"contracts/Bank.sol\":978:1262  if (currentAddr == address(0) || depositorBalance > deposits[currentAddr]) {... */\n    tag_58:\n      pop\n        /* \"contracts/Bank.sol\":907:910  i++ */\n      0x01\n      add\n        /* \"contracts/Bank.sol\":874:1272  for (uint8 i = 0; i < TOP_COUNT; i++) {... */\n      jump(tag_51)\n        /* \"contracts/Bank.sol\":1284:1790  function _updateRankings()internal {... */\n    tag_50:\n        /* \"contracts/Bank.sol\":1344:1345  1 */\n      0x01\n        /* \"contracts/Bank.sol\":1329:1784  for (uint8 i = 1; i < TOP_COUNT; i++){... */\n    tag_76:\n        /* \"contracts/Bank.sol\":236:237  3 */\n      0x03\n        /* \"contracts/Bank.sol\":1347:1360  i < TOP_COUNT */\n      0xff\n      dup3\n      and\n      lt\n        /* \"contracts/Bank.sol\":1329:1784  for (uint8 i = 1; i < TOP_COUNT; i++){... */\n      iszero\n      tag_77\n      jumpi\n        /* \"contracts/Bank.sol\":1380:1391  address key */\n      0x00\n        /* \"contracts/Bank.sol\":1394:1407  topDepositors */\n      0x01\n        /* \"contracts/Bank.sol\":1408:1409  i */\n      dup3\n        /* \"contracts/Bank.sol\":1394:1410  topDepositors[i] */\n      0xff\n      and\n      0x03\n      dup2\n      lt\n      tag_80\n      jumpi\n      tag_80\n      tag_46\n      jump\t// in\n    tag_80:\n      add\n      sload\n      sub(shl(0xa0, 0x01), 0x01)\n      and\n      swap1\n      pop\n      dup1\n        /* \"contracts/Bank.sol\":1424:1455  if (key == address(0)) continue */\n      tag_82\n      jumpi\n        /* \"contracts/Bank.sol\":1447:1455  continue */\n      pop\n      jump(tag_78)\n        /* \"contracts/Bank.sol\":1424:1455  if (key == address(0)) continue */\n    tag_82:\n      sub(shl(0xa0, 0x01), 0x01)\n        /* \"contracts/Bank.sol\":1492:1505  deposits[key] */\n      dup2\n      and\n        /* \"contracts/Bank.sol\":1470:1489  uint256 keyDeposits */\n      0x00\n        /* \"contracts/Bank.sol\":1492:1505  deposits[key] */\n      swap1\n      dup2\n      mstore\n      0x20\n      dup2\n      swap1\n      mstore\n      0x40\n      dup2\n      keccak256\n      sload\n      swap1\n        /* \"contracts/Bank.sol\":1529:1534  i - 1 */\n      tag_83\n        /* \"contracts/Bank.sol\":1533:1534  1 */\n      0x01\n        /* \"contracts/Bank.sol\":1529:1530  i */\n      dup6\n        /* \"contracts/Bank.sol\":1529:1534  i - 1 */\n      tag_63\n      jump\t// in\n    tag_83:\n        /* \"contracts/Bank.sol\":1519:1534  uint8 j = i - 1 */\n      swap1\n      pop\n        /* \"contracts/Bank.sol\":1549:1736  while (j >= 0 && (topDepositors[j] == address(0) || deposits[topDepositors[j]] < keyDeposits)){... */\n    tag_84:\n        /* \"contracts/Bank.sol\":1595:1596  0 */\n      0x00\n        /* \"contracts/Bank.sol\":1567:1580  topDepositors */\n      0x01\n        /* \"contracts/Bank.sol\":1567:1583  topDepositors[j] */\n      0xff\n      dup4\n      and\n      0x03\n      dup2\n      lt\n      tag_88\n      jumpi\n      tag_88\n      tag_46\n      jump\t// in\n    tag_88:\n      add\n      sload\n      sub(shl(0xa0, 0x01), 0x01)\n      and\n        /* \"contracts/Bank.sol\":1567:1597  topDepositors[j] == address(0) */\n      eq\n      dup1\n        /* \"contracts/Bank.sol\":1567:1641  topDepositors[j] == address(0) || deposits[topDepositors[j]] < keyDeposits */\n      tag_90\n      jumpi\n      pop\n        /* \"contracts/Bank.sol\":1630:1641  keyDeposits */\n      dup2\n        /* \"contracts/Bank.sol\":1601:1609  deposits */\n      0x00\n        /* \"contracts/Bank.sol\":1601:1627  deposits[topDepositors[j]] */\n      0x00\n        /* \"contracts/Bank.sol\":1610:1623  topDepositors */\n      0x01\n        /* \"contracts/Bank.sol\":1624:1625  j */\n      dup5\n        /* \"contracts/Bank.sol\":1610:1626  topDepositors[j] */\n      0xff\n      and\n      0x03\n      dup2\n      lt\n      tag_92\n      jumpi\n      tag_92\n      tag_46\n      jump\t// in\n    tag_92:\n      add\n      sload\n      sub(shl(0xa0, 0x01), 0x01)\n      and\n        /* \"contracts/Bank.sol\":1601:1627  deposits[topDepositors[j]] */\n      dup2\n      mstore\n      0x20\n      dup2\n      add\n      swap2\n      swap1\n      swap2\n      mstore\n      0x40\n      add\n        /* \"contracts/Bank.sol\":1610:1626  topDepositors[j] */\n      0x00\n        /* \"contracts/Bank.sol\":1601:1627  deposits[topDepositors[j]] */\n      keccak256\n      sload\n        /* \"contracts/Bank.sol\":1601:1641  deposits[topDepositors[j]] < keyDeposits */\n      lt\n        /* \"contracts/Bank.sol\":1567:1641  topDepositors[j] == address(0) || deposits[topDepositors[j]] < keyDeposits */\n    tag_90:\n        /* \"contracts/Bank.sol\":1549:1736  while (j >= 0 && (topDepositors[j] == address(0) || deposits[topDepositors[j]] < keyDeposits)){... */\n      iszero\n      tag_85\n      jumpi\n        /* \"contracts/Bank.sol\":1684:1697  topDepositors */\n      0x01\n        /* \"contracts/Bank.sol\":1698:1699  j */\n      dup2\n        /* \"contracts/Bank.sol\":1684:1700  topDepositors[j] */\n      0xff\n      and\n      0x03\n      dup2\n      lt\n      tag_95\n      jumpi\n      tag_95\n      tag_46\n      jump\t// in\n    tag_95:\n      add\n      sload\n      sub(shl(0xa0, 0x01), 0x01)\n      and\n      0x01\n        /* \"contracts/Bank.sol\":1675:1680  j + 1 */\n      tag_97\n        /* \"contracts/Bank.sol\":1675:1676  j */\n      dup4\n        /* \"contracts/Bank.sol\":1684:1700  topDepositors[j] */\n      dup3\n        /* \"contracts/Bank.sol\":1675:1680  j + 1 */\n      tag_98\n      jump\t// in\n    tag_97:\n        /* \"contracts/Bank.sol\":1661:1681  topDepositors[j + 1] */\n      0xff\n      and\n      0x03\n      dup2\n      lt\n      tag_100\n      jumpi\n      tag_100\n      tag_46\n      jump\t// in\n    tag_100:\n      add\n        /* \"contracts/Bank.sol\":1661:1700  topDepositors[j + 1] = topDepositors[j] */\n      dup1\n      sload\n      not(sub(shl(0xa0, 0x01), 0x01))\n      and\n      sub(shl(0xa0, 0x01), 0x01)\n      swap3\n      swap1\n      swap3\n      and\n      swap2\n      swap1\n      swap2\n      or\n      swap1\n      sstore\n        /* \"contracts/Bank.sol\":1718:1721  j-- */\n      dup1\n      tag_102\n      dup2\n      tag_71\n      jump\t// in\n    tag_102:\n      swap2\n      pop\n      pop\n        /* \"contracts/Bank.sol\":1549:1736  while (j >= 0 && (topDepositors[j] == address(0) || deposits[topDepositors[j]] < keyDeposits)){... */\n      jump(tag_84)\n    tag_85:\n        /* \"contracts/Bank.sol\":1770:1773  key */\n      dup3\n        /* \"contracts/Bank.sol\":1749:1762  topDepositors */\n      0x01\n        /* \"contracts/Bank.sol\":1763:1766  j+1 */\n      tag_103\n        /* \"contracts/Bank.sol\":1763:1764  j */\n      dup4\n        /* \"contracts/Bank.sol\":1749:1762  topDepositors */\n      dup3\n        /* \"contracts/Bank.sol\":1763:1766  j+1 */\n      tag_98\n      jump\t// in\n    tag_103:\n        /* \"contracts/Bank.sol\":1749:1767  topDepositors[j+1] */\n      0xff\n      and\n      0x03\n      dup2\n      lt\n      tag_105\n      jumpi\n      tag_105\n      tag_46\n      jump\t// in\n    tag_105:\n      add\n        /* \"contracts/Bank.sol\":1749:1773  topDepositors[j+1] = key */\n      dup1\n      sload\n      not(sub(shl(0xa0, 0x01), 0x01))\n      and\n      sub(shl(0xa0, 0x01), 0x01)\n      swap3\n      swap1\n      swap3\n      and\n      swap2\n      swap1\n      swap2\n      or\n      swap1\n      sstore\n      pop\n      pop\n      pop\n        /* \"contracts/Bank.sol\":1329:1784  for (uint8 i = 1; i < TOP_COUNT; i++){... */\n    tag_78:\n        /* \"contracts/Bank.sol\":1362:1365  i++ */\n      0x01\n      add\n        /* \"contracts/Bank.sol\":1329:1784  for (uint8 i = 1; i < TOP_COUNT; i++){... */\n      jump(tag_76)\n    tag_77:\n      pop\n        /* \"contracts/Bank.sol\":1284:1790  function _updateRankings()internal {... */\n      jump\t// out\n        /* \"#utility.yul\":14:194   */\n    tag_14:\n        /* \"#utility.yul\":73:79   */\n      0x00\n        /* \"#utility.yul\":126:128   */\n      0x20\n        /* \"#utility.yul\":114:123   */\n      dup3\n        /* \"#utility.yul\":105:112   */\n      dup5\n        /* \"#utility.yul\":101:124   */\n      sub\n        /* \"#utility.yul\":97:129   */\n      slt\n        /* \"#utility.yul\":94:146   */\n      iszero\n      tag_110\n      jumpi\n        /* \"#utility.yul\":142:143   */\n      0x00\n        /* \"#utility.yul\":139:140   */\n      0x00\n        /* \"#utility.yul\":132:144   */\n      revert\n        /* \"#utility.yul\":94:146   */\n    tag_110:\n      pop\n        /* \"#utility.yul\":165:188   */\n      calldataload\n      swap2\n        /* \"#utility.yul\":14:194   */\n      swap1\n      pop\n      jump\t// out\n        /* \"#utility.yul\":407:693   */\n    tag_27:\n        /* \"#utility.yul\":466:472   */\n      0x00\n        /* \"#utility.yul\":519:521   */\n      0x20\n        /* \"#utility.yul\":507:516   */\n      dup3\n        /* \"#utility.yul\":498:505   */\n      dup5\n        /* \"#utility.yul\":494:517   */\n      sub\n        /* \"#utility.yul\":490:522   */\n      slt\n        /* \"#utility.yul\":487:539   */\n      iszero\n      tag_113\n      jumpi\n        /* \"#utility.yul\":535:536   */\n      0x00\n        /* \"#utility.yul\":532:533   */\n      0x00\n        /* \"#utility.yul\":525:537   */\n      revert\n        /* \"#utility.yul\":487:539   */\n    tag_113:\n        /* \"#utility.yul\":561:584   */\n      dup2\n      calldataload\n      sub(shl(0xa0, 0x01), 0x01)\n        /* \"#utility.yul\":613:644   */\n      dup2\n      and\n        /* \"#utility.yul\":603:645   */\n      dup2\n      eq\n        /* \"#utility.yul\":593:663   */\n      tag_114\n      jumpi\n        /* \"#utility.yul\":659:660   */\n      0x00\n        /* \"#utility.yul\":656:657   */\n      0x00\n        /* \"#utility.yul\":649:661   */\n      revert\n        /* \"#utility.yul\":593:663   */\n    tag_114:\n        /* \"#utility.yul\":682:687   */\n      swap4\n        /* \"#utility.yul\":407:693   */\n      swap3\n      pop\n      pop\n      pop\n      jump\t// out\n        /* \"#utility.yul\":880:1007   */\n    tag_107:\n        /* \"#utility.yul\":941:951   */\n      0x4e487b71\n        /* \"#utility.yul\":936:939   */\n      0xe0\n        /* \"#utility.yul\":932:952   */\n      shl\n        /* \"#utility.yul\":929:930   */\n      0x00\n        /* \"#utility.yul\":922:953   */\n      mstore\n        /* \"#utility.yul\":972:976   */\n      0x11\n        /* \"#utility.yul\":969:970   */\n      0x04\n        /* \"#utility.yul\":962:977   */\n      mstore\n        /* \"#utility.yul\":996:1000   */\n      0x24\n        /* \"#utility.yul\":993:994   */\n      0x00\n        /* \"#utility.yul\":986:1001   */\n      revert\n        /* \"#utility.yul\":1012:1137   */\n    tag_33:\n        /* \"#utility.yul\":1077:1086   */\n      dup1\n      dup3\n      add\n        /* \"#utility.yul\":1098:1108   */\n      dup1\n      dup3\n      gt\n        /* \"#utility.yul\":1095:1131   */\n      iszero\n      tag_119\n      jumpi\n        /* \"#utility.yul\":1111:1129   */\n      tag_119\n      tag_107\n      jump\t// in\n    tag_119:\n        /* \"#utility.yul\":1012:1137   */\n      swap3\n      swap2\n      pop\n      pop\n      jump\t// out\n        /* \"#utility.yul\":1142:1269   */\n    tag_46:\n        /* \"#utility.yul\":1203:1213   */\n      0x4e487b71\n        /* \"#utility.yul\":1198:1201   */\n      0xe0\n        /* \"#utility.yul\":1194:1214   */\n      shl\n        /* \"#utility.yul\":1191:1192   */\n      0x00\n        /* \"#utility.yul\":1184:1215   */\n      mstore\n        /* \"#utility.yul\":1234:1238   */\n      0x32\n        /* \"#utility.yul\":1231:1232   */\n      0x04\n        /* \"#utility.yul\":1224:1239   */\n      mstore\n        /* \"#utility.yul\":1258:1262   */\n      0x24\n        /* \"#utility.yul\":1255:1256   */\n      0x00\n        /* \"#utility.yul\":1248:1263   */\n      revert\n        /* \"#utility.yul\":1274:1425   */\n    tag_63:\n        /* \"#utility.yul\":1364:1368   */\n      0xff\n        /* \"#utility.yul\":1357:1369   */\n      dup3\n      dup2\n      and\n        /* \"#utility.yul\":1343:1355   */\n      dup3\n      dup3\n      and\n        /* \"#utility.yul\":1339:1370   */\n      sub\n      swap1\n        /* \"#utility.yul\":1382:1396   */\n      dup2\n      gt\n        /* \"#utility.yul\":1379:1419   */\n      iszero\n      tag_119\n      jumpi\n        /* \"#utility.yul\":1399:1417   */\n      tag_119\n      tag_107\n      jump\t// in\n        /* \"#utility.yul\":1430:1608   */\n    tag_71:\n        /* \"#utility.yul\":1467:1470   */\n      0x00\n        /* \"#utility.yul\":1511:1515   */\n      0xff\n        /* \"#utility.yul\":1504:1509   */\n      dup3\n        /* \"#utility.yul\":1500:1516   */\n      and\n        /* \"#utility.yul\":1535:1542   */\n      dup1\n        /* \"#utility.yul\":1525:1566   */\n      tag_126\n      jumpi\n        /* \"#utility.yul\":1546:1564   */\n      tag_126\n      tag_107\n      jump\t// in\n    tag_126:\n      not(0x00)\n        /* \"#utility.yul\":1582:1602   */\n      add\n      swap3\n        /* \"#utility.yul\":1430:1608   */\n      swap2\n      pop\n      pop\n      jump\t// out\n        /* \"#utility.yul\":1613:1761   */\n    tag_98:\n        /* \"#utility.yul\":1701:1705   */\n      0xff\n        /* \"#utility.yul\":1680:1692   */\n      dup2\n      dup2\n      and\n        /* \"#utility.yul\":1694:1706   */\n      dup4\n      dup3\n      and\n        /* \"#utility.yul\":1676:1707   */\n      add\n      swap1\n        /* \"#utility.yul\":1719:1732   */\n      dup2\n      gt\n        /* \"#utility.yul\":1716:1755   */\n      iszero\n      tag_119\n      jumpi\n        /* \"#utility.yul\":1735:1753   */\n      tag_119\n      tag_107\n      jump\t// in\n\n    auxdata: 0xa2646970667358221220c04b7bfa12be96a533d66afec17b3af6abcabcd2ced2ad8094994b4710e7847e64736f6c634300081f0033\n}\n",
				"bytecode": {
					"linkReferences": {},
					"object": "60a0604052348015600e575f5ffd5b503360805260805161057861002a5f395f60a901526105785ff3fe608060405260043610610041575f3560e01c80633086107814610054578063d0e30db014610090578063f851a44014610098578063fc7e286d146100cb575f5ffd5b366100505761004e610104565b005b5f5ffd5b34801561005f575f5ffd5b5061007361006e366004610470565b610133565b6040516001600160a01b0390911681526020015b60405180910390f35b61004e610152565b3480156100a3575f5ffd5b506100737f000000000000000000000000000000000000000000000000000000000000000081565b3480156100d6575f5ffd5b506100f66100e5366004610487565b5f6020819052908152604090205481565b604051908152602001610087565b335f90815260208190526040812080543492906101229084906104c8565b9091555061013190503361015a565b565b60018160038110610142575f80fd5b01546001600160a01b0316905081565b610131610104565b6001600160a01b0381165f90815260208190526040812054905b600360ff821610156101c557826001600160a01b031660018260ff16600381106101a0576101a06104e1565b01546001600160a01b0316036101bd576101b86102e8565b505050565b600101610174565b505f5b600360ff821610156101b8575f60018260ff16600381106101eb576101eb6104e1565b01546001600160a01b0316905080158061021b57506001600160a01b0381165f9081526020819052604090205483115b156102df5760025b8260ff168160ff1611156102a257600161023d81836104f5565b60ff1660038110610250576102506104e1565b01546001600160a01b0316600160ff831660038110610271576102716104e1565b0180546001600160a01b0319166001600160a01b03929092169190911790558061029a8161050e565b915050610223565b508360018360ff16600381106102ba576102ba6104e1565b0180546001600160a01b0319166001600160a01b039290921691909117905550505050565b506001016101c8565b60015b600360ff8216101561046d575f60018260ff166003811061030e5761030e6104e1565b01546001600160a01b03169050806103265750610465565b6001600160a01b0381165f908152602081905260408120549061034a6001856104f5565b90505b5f600160ff831660038110610364576103646104e1565b01546001600160a01b031614806103ac5750815f5f60018460ff166003811061038f5761038f6104e1565b01546001600160a01b0316815260208101919091526040015f2054105b156104225760018160ff16600381106103c7576103c76104e1565b01546001600160a01b031660016103de8382610529565b60ff16600381106103f1576103f16104e1565b0180546001600160a01b0319166001600160a01b03929092169190911790558061041a8161050e565b91505061034d565b82600161042f8382610529565b60ff1660038110610442576104426104e1565b0180546001600160a01b0319166001600160a01b03929092169190911790555050505b6001016102eb565b50565b5f60208284031215610480575f5ffd5b5035919050565b5f60208284031215610497575f5ffd5b81356001600160a01b03811681146104ad575f5ffd5b9392505050565b634e487b7160e01b5f52601160045260245ffd5b808201808211156104db576104db6104b4565b92915050565b634e487b7160e01b5f52603260045260245ffd5b60ff82811682821603908111156104db576104db6104b4565b5f60ff821680610520576105206104b4565b5f190192915050565b60ff81811683821601908111156104db576104db6104b456fea2646970667358221220c04b7bfa12be96a533d66afec17b3af6abcabcd2ced2ad8094994b4710e7847e64736f6c634300081f0033",
					"opcodes": "PUSH1 0xA0 PUSH1 0x40 MSTORE CALLVALUE DUP1 ISZERO PUSH1 0xE JUMPI PUSH0 PUSH0 REVERT JUMPDEST POP CALLER PUSH1 0x80 MSTORE PUSH1 0x80 MLOAD PUSH2 0x578 PUSH2 0x2A PUSH0 CODECOPY PUSH0 PUSH1 0xA9 ADD MSTORE PUSH2 0x578 PUSH0 RETURN INVALID PUSH1 0x80 PUSH1 0x40 MSTORE PUSH1 0x4 CALLDATASIZE LT PUSH2 0x41 JUMPI PUSH0 CALLDATALOAD PUSH1 0xE0 SHR DUP1 PUSH4 0x30861078 EQ PUSH2 0x54 JUMPI DUP1 PUSH4 0xD0E30DB0 EQ PUSH2 0x90 JUMPI DUP1 PUSH4 0xF851A440 EQ PUSH2 0x98 JUMPI DUP1 PUSH4 0xFC7E286D EQ PUSH2 0xCB JUMPI PUSH0 PUSH0 REVERT JUMPDEST CALLDATASIZE PUSH2 0x50 JUMPI PUSH2 0x4E PUSH2 0x104 JUMP JUMPDEST STOP JUMPDEST PUSH0 PUSH0 REVERT JUMPDEST CALLVALUE DUP1 ISZERO PUSH2 0x5F JUMPI PUSH0 PUSH0 REVERT JUMPDEST POP PUSH2 0x73 PUSH2 0x6E CALLDATASIZE PUSH1 0x4 PUSH2 0x470 JUMP JUMPDEST PUSH2 0x133 JUMP JUMPDEST PUSH1 0x40 MLOAD PUSH1 0x1 PUSH1 0x1 PUSH1 0xA0 SHL SUB SWAP1 SWAP2 AND DUP2 MSTORE PUSH1 0x20 ADD JUMPDEST PUSH1 0x40 MLOAD DUP1 SWAP2 SUB SWAP1 RETURN JUMPDEST PUSH2 0x4E PUSH2 0x152 JUMP JUMPDEST CALLVALUE DUP1 ISZERO PUSH2 0xA3 JUMPI PUSH0 PUSH0 REVERT JUMPDEST POP PUSH2 0x73 PUSH32 0x0 DUP2 JUMP JUMPDEST CALLVALUE DUP1 ISZERO PUSH2 0xD6 JUMPI PUSH0 PUSH0 REVERT JUMPDEST POP PUSH2 0xF6 PUSH2 0xE5 CALLDATASIZE PUSH1 0x4 PUSH2 0x487 JUMP JUMPDEST PUSH0 PUSH1 0x20 DUP2 SWAP1 MSTORE SWAP1 DUP2 MSTORE PUSH1 0x40 SWAP1 KECCAK256 SLOAD DUP2 JUMP JUMPDEST PUSH1 0x40 MLOAD SWAP1 DUP2 MSTORE PUSH1 0x20 ADD PUSH2 0x87 JUMP JUMPDEST CALLER PUSH0 SWAP1 DUP2 MSTORE PUSH1 0x20 DUP2 SWAP1 MSTORE PUSH1 0x40 DUP2 KECCAK256 DUP1 SLOAD CALLVALUE SWAP3 SWAP1 PUSH2 0x122 SWAP1 DUP5 SWAP1 PUSH2 0x4C8 JUMP JUMPDEST SWAP1 SWAP2 SSTORE POP PUSH2 0x131 SWAP1 POP CALLER PUSH2 0x15A JUMP JUMPDEST JUMP JUMPDEST PUSH1 0x1 DUP2 PUSH1 0x3 DUP2 LT PUSH2 0x142 JUMPI PUSH0 DUP1 REVERT JUMPDEST ADD SLOAD PUSH1 0x1 PUSH1 0x1 PUSH1 0xA0 SHL SUB AND SWAP1 POP DUP2 JUMP JUMPDEST PUSH2 0x131 PUSH2 0x104 JUMP JUMPDEST PUSH1 0x1 PUSH1 0x1 PUSH1 0xA0 SHL SUB DUP2 AND PUSH0 SWAP1 DUP2 MSTORE PUSH1 0x20 DUP2 SWAP1 MSTORE PUSH1 0x40 DUP2 KECCAK256 SLOAD SWAP1 JUMPDEST PUSH1 0x3 PUSH1 0xFF DUP3 AND LT ISZERO PUSH2 0x1C5 JUMPI DUP3 PUSH1 0x1 PUSH1 0x1 PUSH1 0xA0 SHL SUB AND PUSH1 0x1 DUP3 PUSH1 0xFF AND PUSH1 0x3 DUP2 LT PUSH2 0x1A0 JUMPI PUSH2 0x1A0 PUSH2 0x4E1 JUMP JUMPDEST ADD SLOAD PUSH1 0x1 PUSH1 0x1 PUSH1 0xA0 SHL SUB AND SUB PUSH2 0x1BD JUMPI PUSH2 0x1B8 PUSH2 0x2E8 JUMP JUMPDEST POP POP POP JUMP JUMPDEST PUSH1 0x1 ADD PUSH2 0x174 JUMP JUMPDEST POP PUSH0 JUMPDEST PUSH1 0x3 PUSH1 0xFF DUP3 AND LT ISZERO PUSH2 0x1B8 JUMPI PUSH0 PUSH1 0x1 DUP3 PUSH1 0xFF AND PUSH1 0x3 DUP2 LT PUSH2 0x1EB JUMPI PUSH2 0x1EB PUSH2 0x4E1 JUMP JUMPDEST ADD SLOAD PUSH1 0x1 PUSH1 0x1 PUSH1 0xA0 SHL SUB AND SWAP1 POP DUP1 ISZERO DUP1 PUSH2 0x21B JUMPI POP PUSH1 0x1 PUSH1 0x1 PUSH1 0xA0 SHL SUB DUP2 AND PUSH0 SWAP1 DUP2 MSTORE PUSH1 0x20 DUP2 SWAP1 MSTORE PUSH1 0x40 SWAP1 KECCAK256 SLOAD DUP4 GT JUMPDEST ISZERO PUSH2 0x2DF JUMPI PUSH1 0x2 JUMPDEST DUP3 PUSH1 0xFF AND DUP2 PUSH1 0xFF AND GT ISZERO PUSH2 0x2A2 JUMPI PUSH1 0x1 PUSH2 0x23D DUP2 DUP4 PUSH2 0x4F5 JUMP JUMPDEST PUSH1 0xFF AND PUSH1 0x3 DUP2 LT PUSH2 0x250 JUMPI PUSH2 0x250 PUSH2 0x4E1 JUMP JUMPDEST ADD SLOAD PUSH1 0x1 PUSH1 0x1 PUSH1 0xA0 SHL SUB AND PUSH1 0x1 PUSH1 0xFF DUP4 AND PUSH1 0x3 DUP2 LT PUSH2 0x271 JUMPI PUSH2 0x271 PUSH2 0x4E1 JUMP JUMPDEST ADD DUP1 SLOAD PUSH1 0x1 PUSH1 0x1 PUSH1 0xA0 SHL SUB NOT AND PUSH1 0x1 PUSH1 0x1 PUSH1 0xA0 SHL SUB SWAP3 SWAP1 SWAP3 AND SWAP2 SWAP1 SWAP2 OR SWAP1 SSTORE DUP1 PUSH2 0x29A DUP2 PUSH2 0x50E JUMP JUMPDEST SWAP2 POP POP PUSH2 0x223 JUMP JUMPDEST POP DUP4 PUSH1 0x1 DUP4 PUSH1 0xFF AND PUSH1 0x3 DUP2 LT PUSH2 0x2BA JUMPI PUSH2 0x2BA PUSH2 0x4E1 JUMP JUMPDEST ADD DUP1 SLOAD PUSH1 0x1 PUSH1 0x1 PUSH1 0xA0 SHL SUB NOT AND PUSH1 0x1 PUSH1 0x1 PUSH1 0xA0 SHL SUB SWAP3 SWAP1 SWAP3 AND SWAP2 SWAP1 SWAP2 OR SWAP1 SSTORE POP POP POP POP JUMP JUMPDEST POP PUSH1 0x1 ADD PUSH2 0x1C8 JUMP JUMPDEST PUSH1 0x1 JUMPDEST PUSH1 0x3 PUSH1 0xFF DUP3 AND LT ISZERO PUSH2 0x46D JUMPI PUSH0 PUSH1 0x1 DUP3 PUSH1 0xFF AND PUSH1 0x3 DUP2 LT PUSH2 0x30E JUMPI PUSH2 0x30E PUSH2 0x4E1 JUMP JUMPDEST ADD SLOAD PUSH1 0x1 PUSH1 0x1 PUSH1 0xA0 SHL SUB AND SWAP1 POP DUP1 PUSH2 0x326 JUMPI POP PUSH2 0x465 JUMP JUMPDEST PUSH1 0x1 PUSH1 0x1 PUSH1 0xA0 SHL SUB DUP2 AND PUSH0 SWAP1 DUP2 MSTORE PUSH1 0x20 DUP2 SWAP1 MSTORE PUSH1 0x40 DUP2 KECCAK256 SLOAD SWAP1 PUSH2 0x34A PUSH1 0x1 DUP6 PUSH2 0x4F5 JUMP JUMPDEST SWAP1 POP JUMPDEST PUSH0 PUSH1 0x1 PUSH1 0xFF DUP4 AND PUSH1 0x3 DUP2 LT PUSH2 0x364 JUMPI PUSH2 0x364 PUSH2 0x4E1 JUMP JUMPDEST ADD SLOAD PUSH1 0x1 PUSH1 0x1 PUSH1 0xA0 SHL SUB AND EQ DUP1 PUSH2 0x3AC JUMPI POP DUP2 PUSH0 PUSH0 PUSH1 0x1 DUP5 PUSH1 0xFF AND PUSH1 0x3 DUP2 LT PUSH2 0x38F JUMPI PUSH2 0x38F PUSH2 0x4E1 JUMP JUMPDEST ADD SLOAD PUSH1 0x1 PUSH1 0x1 PUSH1 0xA0 SHL SUB AND DUP2 MSTORE PUSH1 0x20 DUP2 ADD SWAP2 SWAP1 SWAP2 MSTORE PUSH1 0x40 ADD PUSH0 KECCAK256 SLOAD LT JUMPDEST ISZERO PUSH2 0x422 JUMPI PUSH1 0x1 DUP2 PUSH1 0xFF AND PUSH1 0x3 DUP2 LT PUSH2 0x3C7 JUMPI PUSH2 0x3C7 PUSH2 0x4E1 JUMP JUMPDEST ADD SLOAD PUSH1 0x1 PUSH1 0x1 PUSH1 0xA0 SHL SUB AND PUSH1 0x1 PUSH2 0x3DE DUP4 DUP3 PUSH2 0x529 JUMP JUMPDEST PUSH1 0xFF AND PUSH1 0x3 DUP2 LT PUSH2 0x3F1 JUMPI PUSH2 0x3F1 PUSH2 0x4E1 JUMP JUMPDEST ADD DUP1 SLOAD PUSH1 0x1 PUSH1 0x1 PUSH1 0xA0 SHL SUB NOT AND PUSH1 0x1 PUSH1 0x1 PUSH1 0xA0 SHL SUB SWAP3 SWAP1 SWAP3 AND SWAP2 SWAP1 SWAP2 OR SWAP1 SSTORE DUP1 PUSH2 0x41A DUP2 PUSH2 0x50E JUMP JUMPDEST SWAP2 POP POP PUSH2 0x34D JUMP JUMPDEST DUP3 PUSH1 0x1 PUSH2 0x42F DUP4 DUP3 PUSH2 0x529 JUMP JUMPDEST PUSH1 0xFF AND PUSH1 0x3 DUP2 LT PUSH2 0x442 JUMPI PUSH2 0x442 PUSH2 0x4E1 JUMP JUMPDEST ADD DUP1 SLOAD PUSH1 0x1 PUSH1 0x1 PUSH1 0xA0 SHL SUB NOT AND PUSH1 0x1 PUSH1 0x1 PUSH1 0xA0 SHL SUB SWAP3 SWAP1 SWAP3 AND SWAP2 SWAP1 SWAP2 OR SWAP1 SSTORE POP POP POP JUMPDEST PUSH1 0x1 ADD PUSH2 0x2EB JUMP JUMPDEST POP JUMP JUMPDEST PUSH0 PUSH1 0x20 DUP3 DUP5 SUB SLT ISZERO PUSH2 0x480 JUMPI PUSH0 PUSH0 REVERT JUMPDEST POP CALLDATALOAD SWAP2 SWAP1 POP JUMP JUMPDEST PUSH0 PUSH1 0x20 DUP3 DUP5 SUB SLT ISZERO PUSH2 0x497 JUMPI PUSH0 PUSH0 REVERT JUMPDEST DUP2 CALLDATALOAD PUSH1 0x1 PUSH1 0x1 PUSH1 0xA0 SHL SUB DUP2 AND DUP2 EQ PUSH2 0x4AD JUMPI PUSH0 PUSH0 REVERT JUMPDEST SWAP4 SWAP3 POP POP POP JUMP JUMPDEST PUSH4 0x4E487B71 PUSH1 0xE0 SHL PUSH0 MSTORE PUSH1 0x11 PUSH1 0x4 MSTORE PUSH1 0x24 PUSH0 REVERT JUMPDEST DUP1 DUP3 ADD DUP1 DUP3 GT ISZERO PUSH2 0x4DB JUMPI PUSH2 0x4DB PUSH2 0x4B4 JUMP JUMPDEST SWAP3 SWAP2 POP POP JUMP JUMPDEST PUSH4 0x4E487B71 PUSH1 0xE0 SHL PUSH0 MSTORE PUSH1 0x32 PUSH1 0x4 MSTORE PUSH1 0x24 PUSH0 REVERT JUMPDEST PUSH1 0xFF DUP3 DUP2 AND DUP3 DUP3 AND SUB SWAP1 DUP2 GT ISZERO PUSH2 0x4DB JUMPI PUSH2 0x4DB PUSH2 0x4B4 JUMP JUMPDEST PUSH0 PUSH1 0xFF DUP3 AND DUP1 PUSH2 0x520 JUMPI PUSH2 0x520 PUSH2 0x4B4 JUMP JUMPDEST PUSH0 NOT ADD SWAP3 SWAP2 POP POP JUMP JUMPDEST PUSH1 0xFF DUP2 DUP2 AND DUP4 DUP3 AND ADD SWAP1 DUP2 GT ISZERO PUSH2 0x4DB JUMPI PUSH2 0x4DB PUSH2 0x4B4 JUMP INVALID LOG2 PUSH5 0x6970667358 0x22 SLT KECCAK256 0xC0 0x4B PUSH28 0xFA12BE96A533D66AFEC17B3AF6ABCABCD2CED2AD8094994B4710E784 PUSH31 0x64736F6C634300081F00330000000000000000000000000000000000000000 "
				},
				"gasEstimates": {
					"creation": {
						"codeDepositCost": "280000",
						"executionCost": "infinite",
						"totalCost": "infinite"
					},
					"external": {
						"admin()": "infinite",
						"deposit()": "infinite",
						"deposits(address)": "2528",
						"topDepositors(uint256)": "2422"
					},
					"internal": {
						"_updateRankings()": "infinite",
						"handleDeposit()": "infinite",
						"updateTopDepositors(address)": "infinite"
					}
				},
				"methodIdentifiers": {
					"admin()": "f851a440",
					"deposit()": "d0e30db0",
					"deposits(address)": "fc7e286d",
					"topDepositors(uint256)": "30861078"
				}
			},
			"storageLayout": {
				"storage": [
					{
						"astId": 7,
						"contract": "contracts/Bank.sol:Bank",
						"label": "deposits",
						"offset": 0,
						"slot": "0",
						"type": "t_mapping(t_address,t_uint256)"
					},
					{
						"astId": 11,
						"contract": "contracts/Bank.sol:Bank",
						"label": "topDepositors",
						"offset": 0,
						"slot": "1",
						"type": "t_array(t_address)3_storage"
					}
				],
				"types": {
					"t_address": {
						"encoding": "inplace",
						"label": "address",
						"numberOfBytes": "20"
					},
					"t_array(t_address)3_storage": {
						"base": "t_address",
						"encoding": "inplace",
						"label": "address[3]",
						"numberOfBytes": "96"
					},
					"t_mapping(t_address,t_uint256)": {
						"encoding": "mapping",
						"key": "t_address",
						"label": "mapping(address => uint256)",
						"numberOfBytes": "32",
						"value": "t_uint256"
					},
					"t_uint256": {
						"encoding": "inplace",
						"label": "uint256",
						"numberOfBytes": "32"
					}
				}
			},
			"userdoc": {
				"kind": "user",
				"methods": {},
				"version": 1
			}
		}
	}
}