{
	"contracts/BigBank.sol": {
		"Bank": {
			"abi": [
				{
					"inputs": [],
					"stateMutability": "nonpayable",
					"type": "constructor"
				},
				{
					"inputs": [],
					"name": "admin",
					"outputs": [
						{
							"internalType": "address",
							"name": "",
							"type": "address"
						}
					],
					"stateMutability": "view",
					"type": "function"
				},
				{
					"inputs": [],
					"name": "deposit",
					"outputs": [],
					"stateMutability": "payable",
					"type": "function"
				},
				{
					"inputs": [
						{
							"internalType": "address",
							"name": "",
							"type": "address"
						}
					],
					"name": "deposits",
					"outputs": [
						{
							"internalType": "uint256",
							"name": "",
							"type": "uint256"
						}
					],
					"stateMutability": "view",
					"type": "function"
				},
				{
					"inputs": [],
					"name": "getTopDepositors",
					"outputs": [
						{
							"internalType": "address[3]",
							"name": "",
							"type": "address[3]"
						},
						{
							"internalType": "uint256[3]",
							"name": "",
							"type": "uint256[3]"
						}
					],
					"stateMutability": "view",
					"type": "function"
				},
				{
					"inputs": [
						{
							"internalType": "uint256",
							"name": "",
							"type": "uint256"
						}
					],
					"name": "topDepositors",
					"outputs": [
						{
							"internalType": "address",
							"name": "",
							"type": "address"
						}
					],
					"stateMutability": "view",
					"type": "function"
				},
				{
					"inputs": [],
					"name": "withdraw",
					"outputs": [],
					"stateMutability": "nonpayable",
					"type": "function"
				},
				{
					"stateMutability": "payable",
					"type": "receive"
				}
			],
			"devdoc": {
				"kind": "dev",
				"methods": {},
				"version": 1
			},
			"evm": {
				"assembly": "    /* \"contracts/BigBank.sol\":243:2579  contract Bank is IBank{... */\n  mstore(0x40, 0x80)\n    /* \"contracts/BigBank.sol\":430:477  constructor(){... */\n  callvalue\n  dup1\n  iszero\n  tag_1\n  jumpi\n  revert(0x00, 0x00)\ntag_1:\n  pop\n    /* \"contracts/BigBank.sol\":453:458  admin */\n  0x00\n    /* \"contracts/BigBank.sol\":453:470  admin= msg.sender */\n  dup1\n  sload\n  not(sub(shl(0xa0, 0x01), 0x01))\n  and\n    /* \"contracts/BigBank.sol\":460:470  msg.sender */\n  caller\n    /* \"contracts/BigBank.sol\":453:470  admin= msg.sender */\n  or\n  swap1\n  sstore\n    /* \"contracts/BigBank.sol\":243:2579  contract Bank is IBank{... */\n  dataSize(sub_0)\n  dup1\n  dataOffset(sub_0)\n  0x00\n  codecopy\n  0x00\n  return\nstop\n\nsub_0: assembly {\n        /* \"contracts/BigBank.sol\":243:2579  contract Bank is IBank{... */\n      mstore(0x40, 0x80)\n      jumpi(tag_1, lt(calldatasize, 0x04))\n      shr(0xe0, calldataload(0x00))\n      dup1\n      0x30861078\n      eq\n      tag_3\n      jumpi\n      dup1\n      0x3ccfd60b\n      eq\n      tag_4\n      jumpi\n      dup1\n      0x81454f71\n      eq\n      tag_5\n      jumpi\n      dup1\n      0xd0e30db0\n      eq\n      tag_6\n      jumpi\n      dup1\n      0xf851a440\n      eq\n      tag_7\n      jumpi\n      dup1\n      0xfc7e286d\n      eq\n      tag_8\n      jumpi\n      revert(0x00, 0x00)\n    tag_1:\n      jumpi(tag_2, calldatasize)\n        /* \"contracts/BigBank.sol\":527:542  handleDeposit() */\n      tag_11\n        /* \"contracts/BigBank.sol\":527:540  handleDeposit */\n      tag_12\n        /* \"contracts/BigBank.sol\":527:542  handleDeposit() */\n      jump\t// in\n    tag_11:\n        /* \"contracts/BigBank.sol\":243:2579  contract Bank is IBank{... */\n      stop\n    tag_2:\n      revert(0x00, 0x00)\n        /* \"contracts/BigBank.sol\":349:380  address[3] public topDepositors */\n    tag_3:\n      callvalue\n      dup1\n      iszero\n      tag_13\n      jumpi\n      revert(0x00, 0x00)\n    tag_13:\n      pop\n      tag_14\n      tag_15\n      calldatasize\n      0x04\n      tag_16\n      jump\t// in\n    tag_15:\n      tag_17\n      jump\t// in\n    tag_14:\n      mload(0x40)\n      sub(shl(0xa0, 0x01), 0x01)\n        /* \"#utility.yul\":363:395   */\n      swap1\n      swap2\n      and\n        /* \"#utility.yul\":345:396   */\n      dup2\n      mstore\n        /* \"#utility.yul\":333:335   */\n      0x20\n        /* \"#utility.yul\":318:336   */\n      add\n        /* \"contracts/BigBank.sol\":349:380  address[3] public topDepositors */\n    tag_18:\n      mload(0x40)\n      dup1\n      swap2\n      sub\n      swap1\n      return\n        /* \"contracts/BigBank.sol\":2268:2576  function withdraw()external {... */\n    tag_4:\n      callvalue\n      dup1\n      iszero\n      tag_20\n      jumpi\n      revert(0x00, 0x00)\n    tag_20:\n      pop\n      tag_11\n      tag_22\n      jump\t// in\n        /* \"contracts/BigBank.sol\":1997:2262  function getTopDepositors()external view returns (address[3] memory, uint[3] memory){... */\n    tag_5:\n      callvalue\n      dup1\n      iszero\n      tag_23\n      jumpi\n      revert(0x00, 0x00)\n    tag_23:\n      pop\n      tag_24\n      tag_25\n      jump\t// in\n    tag_24:\n      mload(0x40)\n      tag_18\n      swap3\n      swap2\n      swap1\n      tag_27\n      jump\t// in\n        /* \"contracts/BigBank.sol\":555:630  function deposit()external payable virtual {... */\n    tag_6:\n      tag_11\n      tag_29\n      jump\t// in\n        /* \"contracts/BigBank.sol\":272:292  address public admin */\n    tag_7:\n      callvalue\n      dup1\n      iszero\n      tag_30\n      jumpi\n      revert(0x00, 0x00)\n    tag_30:\n      pop\n      sload(0x00)\n      tag_14\n      swap1\n      sub(shl(0xa0, 0x01), 0x01)\n      and\n      dup2\n      jump\n        /* \"contracts/BigBank.sol\":298:342  mapping (address => uint256) public deposits */\n    tag_8:\n      callvalue\n      dup1\n      iszero\n      tag_34\n      jumpi\n      revert(0x00, 0x00)\n    tag_34:\n      pop\n      tag_35\n      tag_36\n      calldatasize\n      0x04\n      tag_37\n      jump\t// in\n    tag_36:\n      mstore(0x20, 0x01)\n      0x00\n      swap1\n      dup2\n      mstore\n      0x40\n      swap1\n      keccak256\n      sload\n      dup2\n      jump\n    tag_35:\n      mload(0x40)\n        /* \"#utility.yul\":1734:1759   */\n      swap1\n      dup2\n      mstore\n        /* \"#utility.yul\":1722:1724   */\n      0x20\n        /* \"#utility.yul\":1707:1725   */\n      add\n        /* \"contracts/BigBank.sol\":298:342  mapping (address => uint256) public deposits */\n      tag_18\n        /* \"#utility.yul\":1588:1765   */\n      jump\n        /* \"contracts/BigBank.sol\":636:760  function handleDeposit()internal {... */\n    tag_12:\n        /* \"contracts/BigBank.sol\":688:698  msg.sender */\n      caller\n        /* \"contracts/BigBank.sol\":679:699  deposits[msg.sender] */\n      0x00\n      swap1\n      dup2\n      mstore\n        /* \"contracts/BigBank.sol\":679:687  deposits */\n      0x01\n        /* \"contracts/BigBank.sol\":679:699  deposits[msg.sender] */\n      0x20\n      mstore\n      0x40\n      dup2\n      keccak256\n        /* \"contracts/BigBank.sol\":679:712  deposits[msg.sender] += msg.value */\n      dup1\n      sload\n        /* \"contracts/BigBank.sol\":703:712  msg.value */\n      callvalue\n      swap3\n        /* \"contracts/BigBank.sol\":679:699  deposits[msg.sender] */\n      swap1\n        /* \"contracts/BigBank.sol\":679:712  deposits[msg.sender] += msg.value */\n      tag_42\n      swap1\n        /* \"contracts/BigBank.sol\":703:712  msg.value */\n      dup5\n      swap1\n        /* \"contracts/BigBank.sol\":679:712  deposits[msg.sender] += msg.value */\n      tag_43\n      jump\t// in\n    tag_42:\n      swap1\n      swap2\n      sstore\n      pop\n        /* \"contracts/BigBank.sol\":722:753  updateTopDepositors(msg.sender) */\n      tag_44\n      swap1\n      pop\n        /* \"contracts/BigBank.sol\":742:752  msg.sender */\n      caller\n        /* \"contracts/BigBank.sol\":722:741  updateTopDepositors */\n      tag_45\n        /* \"contracts/BigBank.sol\":722:753  updateTopDepositors(msg.sender) */\n      jump\t// in\n    tag_44:\n        /* \"contracts/BigBank.sol\":636:760  function handleDeposit()internal {... */\n      jump\t// out\n        /* \"contracts/BigBank.sol\":349:380  address[3] public topDepositors */\n    tag_17:\n      0x02\n      dup2\n      0x03\n      dup2\n      lt\n      tag_46\n      jumpi\n      0x00\n      dup1\n      revert\n    tag_46:\n      add\n      sload\n      sub(shl(0xa0, 0x01), 0x01)\n      and\n      swap1\n      pop\n      dup2\n      jump\t// out\n        /* \"contracts/BigBank.sol\":2268:2576  function withdraw()external {... */\n    tag_22:\n        /* \"contracts/BigBank.sol\":2328:2333  admin */\n      and(sub(shl(0xa0, 0x01), 0x01), sload(0x00))\n        /* \"contracts/BigBank.sol\":2314:2324  msg.sender */\n      caller\n        /* \"contracts/BigBank.sol\":2314:2333  msg.sender == admin */\n      eq\n        /* \"contracts/BigBank.sol\":2306:2361  require(msg.sender == admin, \"only admin can withdraw\") */\n      tag_49\n      jumpi\n      mload(0x40)\n      shl(0xe5, 0x461bcd)\n      dup2\n      mstore\n        /* \"#utility.yul\":2234:2236   */\n      0x20\n        /* \"contracts/BigBank.sol\":2306:2361  require(msg.sender == admin, \"only admin can withdraw\") */\n      0x04\n      dup3\n      add\n        /* \"#utility.yul\":2216:2237   */\n      mstore\n        /* \"#utility.yul\":2273:2275   */\n      0x17\n        /* \"#utility.yul\":2253:2271   */\n      0x24\n      dup3\n      add\n        /* \"#utility.yul\":2246:2276   */\n      mstore\n        /* \"#utility.yul\":2312:2337   */\n      0x6f6e6c792061646d696e2063616e207769746864726177000000000000000000\n        /* \"#utility.yul\":2292:2310   */\n      0x44\n      dup3\n      add\n        /* \"#utility.yul\":2285:2338   */\n      mstore\n        /* \"#utility.yul\":2355:2373   */\n      0x64\n      add\n        /* \"contracts/BigBank.sol\":2306:2361  require(msg.sender == admin, \"only admin can withdraw\") */\n    tag_50:\n      mload(0x40)\n      dup1\n      swap2\n      sub\n      swap1\n      revert\n    tag_49:\n        /* \"contracts/BigBank.sol\":2387:2408  address(this).balance */\n      selfbalance\n        /* \"contracts/BigBank.sol\":2427:2438  balance > 0 */\n      dup1\n        /* \"contracts/BigBank.sol\":2419:2465  require(balance > 0, \"no balance to withdraw\") */\n      tag_52\n      jumpi\n      mload(0x40)\n      shl(0xe5, 0x461bcd)\n      dup2\n      mstore\n        /* \"#utility.yul\":2586:2588   */\n      0x20\n        /* \"contracts/BigBank.sol\":2419:2465  require(balance > 0, \"no balance to withdraw\") */\n      0x04\n      dup3\n      add\n        /* \"#utility.yul\":2568:2589   */\n      mstore\n        /* \"#utility.yul\":2625:2627   */\n      0x16\n        /* \"#utility.yul\":2605:2623   */\n      0x24\n      dup3\n      add\n        /* \"#utility.yul\":2598:2628   */\n      mstore\n      shl(0x50, 0x6e6f2062616c616e636520746f207769746864726177)\n        /* \"#utility.yul\":2644:2662   */\n      0x44\n      dup3\n      add\n        /* \"#utility.yul\":2637:2689   */\n      mstore\n        /* \"#utility.yul\":2706:2724   */\n      0x64\n      add\n        /* \"contracts/BigBank.sol\":2419:2465  require(balance > 0, \"no balance to withdraw\") */\n      tag_50\n        /* \"#utility.yul\":2384:2730   */\n      jump\n        /* \"contracts/BigBank.sol\":2419:2465  require(balance > 0, \"no balance to withdraw\") */\n    tag_52:\n        /* \"contracts/BigBank.sol\":2477:2489  bool success */\n      0x00\n        /* \"contracts/BigBank.sol\":2493:2498  admin */\n      dup1\n      sload\n        /* \"contracts/BigBank.sol\":2493:2523  admin.call{value: balance}(\"\") */\n      mload(0x40)\n      sub(shl(0xa0, 0x01), 0x01)\n        /* \"contracts/BigBank.sol\":2493:2498  admin */\n      swap1\n      swap2\n      and\n      swap1\n        /* \"contracts/BigBank.sol\":2511:2518  balance */\n      dup4\n      swap1\n        /* \"contracts/BigBank.sol\":2477:2489  bool success */\n      dup4\n        /* \"contracts/BigBank.sol\":2493:2523  admin.call{value: balance}(\"\") */\n      dup2\n        /* \"contracts/BigBank.sol\":2477:2489  bool success */\n      dup2\n        /* \"contracts/BigBank.sol\":2493:2523  admin.call{value: balance}(\"\") */\n      dup2\n        /* \"contracts/BigBank.sol\":2511:2518  balance */\n      dup6\n        /* \"contracts/BigBank.sol\":2493:2498  admin */\n      dup8\n        /* \"contracts/BigBank.sol\":2493:2523  admin.call{value: balance}(\"\") */\n      gas\n      call\n      swap3\n      pop\n      pop\n      pop\n      returndatasize\n      dup1\n      0x00\n      dup2\n      eq\n      tag_59\n      jumpi\n      mload(0x40)\n      swap2\n      pop\n      and(add(returndatasize, 0x3f), not(0x1f))\n      dup3\n      add\n      0x40\n      mstore\n      returndatasize\n      dup3\n      mstore\n      returndatasize\n      0x00\n      0x20\n      dup5\n      add\n      returndatacopy\n      jump(tag_58)\n    tag_59:\n      0x60\n      swap2\n      pop\n    tag_58:\n      pop\n        /* \"contracts/BigBank.sol\":2476:2523  (bool success, )=admin.call{value: balance}(\"\") */\n      pop\n      swap1\n      pop\n        /* \"contracts/BigBank.sol\":2542:2549  success */\n      dup1\n        /* \"contracts/BigBank.sol\":2534:2569  require(success, \"withdraw failed\") */\n      tag_60\n      jumpi\n      mload(0x40)\n      shl(0xe5, 0x461bcd)\n      dup2\n      mstore\n        /* \"#utility.yul\":3147:3149   */\n      0x20\n        /* \"contracts/BigBank.sol\":2534:2569  require(success, \"withdraw failed\") */\n      0x04\n      dup3\n      add\n        /* \"#utility.yul\":3129:3150   */\n      mstore\n        /* \"#utility.yul\":3186:3188   */\n      0x0f\n        /* \"#utility.yul\":3166:3184   */\n      0x24\n      dup3\n      add\n        /* \"#utility.yul\":3159:3189   */\n      mstore\n      shl(0x8a, 0x1dda5d1a191c985dc819985a5b1959)\n        /* \"#utility.yul\":3205:3223   */\n      0x44\n      dup3\n      add\n        /* \"#utility.yul\":3198:3243   */\n      mstore\n        /* \"#utility.yul\":3260:3278   */\n      0x64\n      add\n        /* \"contracts/BigBank.sol\":2534:2569  require(success, \"withdraw failed\") */\n      tag_50\n        /* \"#utility.yul\":2945:3284   */\n      jump\n        /* \"contracts/BigBank.sol\":2534:2569  require(success, \"withdraw failed\") */\n    tag_60:\n        /* \"contracts/BigBank.sol\":2296:2576  {... */\n      pop\n      pop\n        /* \"contracts/BigBank.sol\":2268:2576  function withdraw()external {... */\n      jump\t// out\n        /* \"contracts/BigBank.sol\":1997:2262  function getTopDepositors()external view returns (address[3] memory, uint[3] memory){... */\n    tag_25:\n        /* \"contracts/BigBank.sol\":2047:2064  address[3] memory */\n      tag_63\n      tag_64\n      jump\t// in\n    tag_63:\n        /* \"contracts/BigBank.sol\":2066:2080  uint[3] memory */\n      tag_65\n      tag_64\n      jump\t// in\n    tag_65:\n        /* \"contracts/BigBank.sol\":2091:2112  uint[3] memory amount */\n      tag_68\n      tag_64\n      jump\t// in\n    tag_68:\n        /* \"contracts/BigBank.sol\":2127:2134  uint8 i */\n      0x00\n        /* \"contracts/BigBank.sol\":2122:2216  for (uint8 i=0;i<TOP_COUNT;i++){... */\n    tag_69:\n        /* \"contracts/BigBank.sol\":422:423  3 */\n      0x03\n        /* \"contracts/BigBank.sol\":2137:2148  i<TOP_COUNT */\n      0xff\n      dup3\n      and\n      lt\n        /* \"contracts/BigBank.sol\":2122:2216  for (uint8 i=0;i<TOP_COUNT;i++){... */\n      iszero\n      tag_70\n      jumpi\n        /* \"contracts/BigBank.sol\":2179:2187  deposits */\n      0x01\n        /* \"contracts/BigBank.sol\":2179:2205  deposits[topDepositors[i]] */\n      0x00\n        /* \"contracts/BigBank.sol\":2188:2201  topDepositors */\n      0x02\n        /* \"contracts/BigBank.sol\":2202:2203  i */\n      dup4\n        /* \"contracts/BigBank.sol\":2188:2204  topDepositors[i] */\n      0xff\n      and\n      0x03\n      dup2\n      lt\n      tag_73\n      jumpi\n      tag_73\n      tag_74\n      jump\t// in\n    tag_73:\n      add\n      sload\n      sub(shl(0xa0, 0x01), 0x01)\n      and\n        /* \"contracts/BigBank.sol\":2179:2205  deposits[topDepositors[i]] */\n      dup2\n      mstore\n      0x20\n      dup2\n      add\n      swap2\n      swap1\n      swap2\n      mstore\n      0x40\n      add\n        /* \"contracts/BigBank.sol\":2188:2204  topDepositors[i] */\n      0x00\n        /* \"contracts/BigBank.sol\":2179:2205  deposits[topDepositors[i]] */\n      keccak256\n      sload\n        /* \"contracts/BigBank.sol\":2167:2173  amount */\n      dup3\n        /* \"contracts/BigBank.sol\":2167:2176  amount[i] */\n      0xff\n      dup4\n      and\n      0x03\n      dup2\n      lt\n      tag_77\n      jumpi\n      tag_77\n      tag_74\n      jump\t// in\n    tag_77:\n      0x20\n      mul\n      add\n        /* \"contracts/BigBank.sol\":2167:2205  amount[i] = deposits[topDepositors[i]] */\n      mstore\n        /* \"contracts/BigBank.sol\":2149:2152  i++ */\n      0x01\n      add\n        /* \"contracts/BigBank.sol\":2122:2216  for (uint8 i=0;i<TOP_COUNT;i++){... */\n      jump(tag_69)\n    tag_70:\n      pop\n        /* \"contracts/BigBank.sol\":2225:2255  return (topDepositors, amount) */\n      0x40\n      dup1\n      mload\n      0x60\n      dup2\n      add\n      swap2\n      dup3\n      swap1\n      mstore\n        /* \"contracts/BigBank.sol\":2233:2246  topDepositors */\n      0x02\n      swap2\n        /* \"contracts/BigBank.sol\":2248:2254  amount */\n      dup4\n      swap2\n        /* \"contracts/BigBank.sol\":2225:2255  return (topDepositors, amount) */\n      swap1\n        /* \"contracts/BigBank.sol\":2233:2246  topDepositors */\n      dup4\n      swap1\n        /* \"contracts/BigBank.sol\":2225:2255  return (topDepositors, amount) */\n      0x03\n      swap1\n        /* \"contracts/BigBank.sol\":2233:2246  topDepositors */\n      dup3\n        /* \"contracts/BigBank.sol\":2225:2255  return (topDepositors, amount) */\n      dup5\n    tag_79:\n      dup2\n      sload\n      sub(shl(0xa0, 0x01), 0x01)\n      and\n      dup2\n      mstore\n      0x01\n      swap1\n      swap2\n      add\n      swap1\n      0x20\n      add\n      dup1\n      dup4\n      gt\n      tag_79\n      jumpi\n      pop\n      pop\n      pop\n      pop\n      pop\n      swap2\n      pop\n      swap3\n      pop\n      swap3\n      pop\n      pop\n        /* \"contracts/BigBank.sol\":1997:2262  function getTopDepositors()external view returns (address[3] memory, uint[3] memory){... */\n      swap1\n      swap2\n      jump\t// out\n        /* \"contracts/BigBank.sol\":555:630  function deposit()external payable virtual {... */\n    tag_29:\n        /* \"contracts/BigBank.sol\":608:623  handleDeposit() */\n      tag_44\n        /* \"contracts/BigBank.sol\":608:621  handleDeposit */\n      tag_12\n        /* \"contracts/BigBank.sol\":608:623  handleDeposit() */\n      jump\t// in\n        /* \"contracts/BigBank.sol\":766:1479  function updateTopDepositors(address depositor) internal {... */\n    tag_45:\n      sub(shl(0xa0, 0x01), 0x01)\n        /* \"contracts/BigBank.sol\":857:876  deposits[depositor] */\n      dup2\n      and\n        /* \"contracts/BigBank.sol\":833:854  uint depositorBalance */\n      0x00\n        /* \"contracts/BigBank.sol\":857:876  deposits[depositor] */\n      swap1\n      dup2\n      mstore\n        /* \"contracts/BigBank.sol\":857:865  deposits */\n      0x01\n        /* \"contracts/BigBank.sol\":857:876  deposits[depositor] */\n      0x20\n      mstore\n      0x40\n      dup2\n      keccak256\n      sload\n      swap1\n        /* \"contracts/BigBank.sol\":886:1057  for (uint8 i = 0; i < TOP_COUNT; i++) {... */\n    tag_83:\n        /* \"contracts/BigBank.sol\":422:423  3 */\n      0x03\n        /* \"contracts/BigBank.sol\":904:917  i < TOP_COUNT */\n      0xff\n      dup3\n      and\n      lt\n        /* \"contracts/BigBank.sol\":886:1057  for (uint8 i = 0; i < TOP_COUNT; i++) {... */\n      iszero\n      tag_84\n      jumpi\n        /* \"contracts/BigBank.sol\":962:971  depositor */\n      dup3\n      sub(shl(0xa0, 0x01), 0x01)\n        /* \"contracts/BigBank.sol\":942:971  topDepositors[i] == depositor */\n      and\n        /* \"contracts/BigBank.sol\":942:955  topDepositors */\n      0x02\n        /* \"contracts/BigBank.sol\":956:957  i */\n      dup3\n        /* \"contracts/BigBank.sol\":942:958  topDepositors[i] */\n      0xff\n      and\n      0x03\n      dup2\n      lt\n      tag_87\n      jumpi\n      tag_87\n      tag_74\n      jump\t// in\n    tag_87:\n      add\n      sload\n      sub(shl(0xa0, 0x01), 0x01)\n      and\n        /* \"contracts/BigBank.sol\":942:971  topDepositors[i] == depositor */\n      sub\n        /* \"contracts/BigBank.sol\":938:1047  if (topDepositors[i] == depositor) {... */\n      tag_89\n      jumpi\n        /* \"contracts/BigBank.sol\":991:1008  _updateRankings() */\n      tag_90\n        /* \"contracts/BigBank.sol\":991:1006  _updateRankings */\n      tag_91\n        /* \"contracts/BigBank.sol\":991:1008  _updateRankings() */\n      jump\t// in\n    tag_90:\n        /* \"contracts/BigBank.sol\":1026:1033  return; */\n      pop\n      pop\n        /* \"contracts/BigBank.sol\":766:1479  function updateTopDepositors(address depositor) internal {... */\n      pop\n      jump\t// out\n        /* \"contracts/BigBank.sol\":938:1047  if (topDepositors[i] == depositor) {... */\n    tag_89:\n        /* \"contracts/BigBank.sol\":919:922  i++ */\n      0x01\n      add\n        /* \"contracts/BigBank.sol\":886:1057  for (uint8 i = 0; i < TOP_COUNT; i++) {... */\n      jump(tag_83)\n    tag_84:\n      pop\n        /* \"contracts/BigBank.sol\":1080:1087  uint8 i */\n      0x00\n        /* \"contracts/BigBank.sol\":1075:1473  for (uint8 i = 0; i < TOP_COUNT; i++) {... */\n    tag_92:\n        /* \"contracts/BigBank.sol\":422:423  3 */\n      0x03\n        /* \"contracts/BigBank.sol\":1093:1106  i < TOP_COUNT */\n      0xff\n      dup3\n      and\n      lt\n        /* \"contracts/BigBank.sol\":1075:1473  for (uint8 i = 0; i < TOP_COUNT; i++) {... */\n      iszero\n      tag_90\n      jumpi\n        /* \"contracts/BigBank.sol\":1127:1146  address currentAddr */\n      0x00\n        /* \"contracts/BigBank.sol\":1149:1162  topDepositors */\n      0x02\n        /* \"contracts/BigBank.sol\":1163:1164  i */\n      dup3\n        /* \"contracts/BigBank.sol\":1149:1165  topDepositors[i] */\n      0xff\n      and\n      0x03\n      dup2\n      lt\n      tag_96\n      jumpi\n      tag_96\n      tag_74\n      jump\t// in\n    tag_96:\n      add\n      sload\n      sub(shl(0xa0, 0x01), 0x01)\n      and\n      swap1\n      pop\n        /* \"contracts/BigBank.sol\":1183:1208  currentAddr == address(0) */\n      dup1\n      iszero\n      dup1\n        /* \"contracts/BigBank.sol\":1183:1252  currentAddr == address(0) || depositorBalance > deposits[currentAddr] */\n      tag_98\n      jumpi\n      pop\n      sub(shl(0xa0, 0x01), 0x01)\n        /* \"contracts/BigBank.sol\":1231:1252  deposits[currentAddr] */\n      dup2\n      and\n      0x00\n      swap1\n      dup2\n      mstore\n        /* \"contracts/BigBank.sol\":1231:1239  deposits */\n      0x01\n        /* \"contracts/BigBank.sol\":1231:1252  deposits[currentAddr] */\n      0x20\n      mstore\n      0x40\n      swap1\n      keccak256\n      sload\n        /* \"contracts/BigBank.sol\":1212:1252  depositorBalance > deposits[currentAddr] */\n      dup4\n      gt\n        /* \"contracts/BigBank.sol\":1183:1252  currentAddr == address(0) || depositorBalance > deposits[currentAddr] */\n    tag_98:\n        /* \"contracts/BigBank.sol\":1179:1463  if (currentAddr == address(0) || depositorBalance > deposits[currentAddr]) {... */\n      iszero\n      tag_99\n      jumpi\n        /* \"contracts/BigBank.sol\":1287:1288  2 */\n      0x02\n        /* \"contracts/BigBank.sol\":1272:1380  for (uint8 j = 2; j > i; j--) {... */\n    tag_100:\n        /* \"contracts/BigBank.sol\":1294:1295  i */\n      dup3\n        /* \"contracts/BigBank.sol\":1290:1295  j > i */\n      0xff\n      and\n        /* \"contracts/BigBank.sol\":1290:1291  j */\n      dup2\n        /* \"contracts/BigBank.sol\":1290:1295  j > i */\n      0xff\n      and\n      gt\n        /* \"contracts/BigBank.sol\":1272:1380  for (uint8 j = 2; j > i; j--) {... */\n      iszero\n      tag_101\n      jumpi\n        /* \"contracts/BigBank.sol\":1343:1356  topDepositors */\n      0x02\n        /* \"contracts/BigBank.sol\":1357:1360  j-1 */\n      tag_103\n        /* \"contracts/BigBank.sol\":1359:1360  1 */\n      0x01\n        /* \"contracts/BigBank.sol\":1357:1358  j */\n      dup4\n        /* \"contracts/BigBank.sol\":1357:1360  j-1 */\n      tag_104\n      jump\t// in\n    tag_103:\n        /* \"contracts/BigBank.sol\":1343:1361  topDepositors[j-1] */\n      0xff\n      and\n      0x03\n      dup2\n      lt\n      tag_106\n      jumpi\n      tag_106\n      tag_74\n      jump\t// in\n    tag_106:\n      add\n      sload\n      sub(shl(0xa0, 0x01), 0x01)\n      and\n        /* \"contracts/BigBank.sol\":1324:1337  topDepositors */\n      0x02\n        /* \"contracts/BigBank.sol\":1324:1340  topDepositors[j] */\n      0xff\n      dup4\n      and\n      0x03\n      dup2\n      lt\n      tag_109\n      jumpi\n      tag_109\n      tag_74\n      jump\t// in\n    tag_109:\n      add\n        /* \"contracts/BigBank.sol\":1324:1361  topDepositors[j] = topDepositors[j-1] */\n      dup1\n      sload\n      not(sub(shl(0xa0, 0x01), 0x01))\n      and\n      sub(shl(0xa0, 0x01), 0x01)\n      swap3\n      swap1\n      swap3\n      and\n      swap2\n      swap1\n      swap2\n      or\n      swap1\n      sstore\n        /* \"contracts/BigBank.sol\":1297:1300  j-- */\n      dup1\n      tag_111\n      dup2\n      tag_112\n      jump\t// in\n    tag_111:\n      swap2\n      pop\n      pop\n        /* \"contracts/BigBank.sol\":1272:1380  for (uint8 j = 2; j > i; j--) {... */\n      jump(tag_100)\n    tag_101:\n      pop\n        /* \"contracts/BigBank.sol\":1416:1425  depositor */\n      dup4\n        /* \"contracts/BigBank.sol\":1397:1410  topDepositors */\n      0x02\n        /* \"contracts/BigBank.sol\":1411:1412  i */\n      dup4\n        /* \"contracts/BigBank.sol\":1397:1413  topDepositors[i] */\n      0xff\n      and\n      0x03\n      dup2\n      lt\n      tag_114\n      jumpi\n      tag_114\n      tag_74\n      jump\t// in\n    tag_114:\n      add\n        /* \"contracts/BigBank.sol\":1397:1425  topDepositors[i] = depositor */\n      dup1\n      sload\n      not(sub(shl(0xa0, 0x01), 0x01))\n      and\n      sub(shl(0xa0, 0x01), 0x01)\n      swap3\n      swap1\n      swap3\n      and\n      swap2\n      swap1\n      swap2\n      or\n      swap1\n      sstore\n      pop\n      pop\n      pop\n      pop\n        /* \"contracts/BigBank.sol\":766:1479  function updateTopDepositors(address depositor) internal {... */\n      jump\t// out\n        /* \"contracts/BigBank.sol\":1179:1463  if (currentAddr == address(0) || depositorBalance > deposits[currentAddr]) {... */\n    tag_99:\n      pop\n        /* \"contracts/BigBank.sol\":1108:1111  i++ */\n      0x01\n      add\n        /* \"contracts/BigBank.sol\":1075:1473  for (uint8 i = 0; i < TOP_COUNT; i++) {... */\n      jump(tag_92)\n        /* \"contracts/BigBank.sol\":1485:1991  function _updateRankings()internal {... */\n    tag_91:\n        /* \"contracts/BigBank.sol\":1545:1546  1 */\n      0x01\n        /* \"contracts/BigBank.sol\":1530:1985  for (uint8 i = 1; i < TOP_COUNT; i++){... */\n    tag_117:\n        /* \"contracts/BigBank.sol\":422:423  3 */\n      0x03\n        /* \"contracts/BigBank.sol\":1548:1561  i < TOP_COUNT */\n      0xff\n      dup3\n      and\n      lt\n        /* \"contracts/BigBank.sol\":1530:1985  for (uint8 i = 1; i < TOP_COUNT; i++){... */\n      iszero\n      tag_118\n      jumpi\n        /* \"contracts/BigBank.sol\":1581:1592  address key */\n      0x00\n        /* \"contracts/BigBank.sol\":1595:1608  topDepositors */\n      0x02\n        /* \"contracts/BigBank.sol\":1609:1610  i */\n      dup3\n        /* \"contracts/BigBank.sol\":1595:1611  topDepositors[i] */\n      0xff\n      and\n      0x03\n      dup2\n      lt\n      tag_121\n      jumpi\n      tag_121\n      tag_74\n      jump\t// in\n    tag_121:\n      add\n      sload\n      sub(shl(0xa0, 0x01), 0x01)\n      and\n      swap1\n      pop\n      dup1\n        /* \"contracts/BigBank.sol\":1625:1656  if (key == address(0)) continue */\n      tag_123\n      jumpi\n        /* \"contracts/BigBank.sol\":1648:1656  continue */\n      pop\n      jump(tag_119)\n        /* \"contracts/BigBank.sol\":1625:1656  if (key == address(0)) continue */\n    tag_123:\n      sub(shl(0xa0, 0x01), 0x01)\n        /* \"contracts/BigBank.sol\":1693:1706  deposits[key] */\n      dup2\n      and\n        /* \"contracts/BigBank.sol\":1671:1690  uint256 keyDeposits */\n      0x00\n        /* \"contracts/BigBank.sol\":1693:1706  deposits[key] */\n      swap1\n      dup2\n      mstore\n        /* \"contracts/BigBank.sol\":1693:1701  deposits */\n      0x01\n        /* \"contracts/BigBank.sol\":1693:1706  deposits[key] */\n      0x20\n      dup2\n      swap1\n      mstore\n      0x40\n      dup3\n      keccak256\n      sload\n      swap2\n        /* \"contracts/BigBank.sol\":1671:1690  uint256 keyDeposits */\n      swap1\n        /* \"contracts/BigBank.sol\":1730:1735  i - 1 */\n      tag_124\n      swap1\n        /* \"contracts/BigBank.sol\":1730:1731  i */\n      dup6\n        /* \"contracts/BigBank.sol\":1730:1735  i - 1 */\n      tag_104\n      jump\t// in\n    tag_124:\n        /* \"contracts/BigBank.sol\":1720:1735  uint8 j = i - 1 */\n      swap1\n      pop\n        /* \"contracts/BigBank.sol\":1750:1937  while (j >= 0 && (topDepositors[j] == address(0) || deposits[topDepositors[j]] < keyDeposits)){... */\n    tag_125:\n        /* \"contracts/BigBank.sol\":1796:1797  0 */\n      0x00\n        /* \"contracts/BigBank.sol\":1768:1781  topDepositors */\n      0x02\n        /* \"contracts/BigBank.sol\":1768:1784  topDepositors[j] */\n      0xff\n      dup4\n      and\n      0x03\n      dup2\n      lt\n      tag_129\n      jumpi\n      tag_129\n      tag_74\n      jump\t// in\n    tag_129:\n      add\n      sload\n      sub(shl(0xa0, 0x01), 0x01)\n      and\n        /* \"contracts/BigBank.sol\":1768:1798  topDepositors[j] == address(0) */\n      eq\n      dup1\n        /* \"contracts/BigBank.sol\":1768:1842  topDepositors[j] == address(0) || deposits[topDepositors[j]] < keyDeposits */\n      tag_131\n      jumpi\n      pop\n        /* \"contracts/BigBank.sol\":1831:1842  keyDeposits */\n      dup2\n        /* \"contracts/BigBank.sol\":1802:1810  deposits */\n      0x01\n        /* \"contracts/BigBank.sol\":1802:1828  deposits[topDepositors[j]] */\n      0x00\n        /* \"contracts/BigBank.sol\":1811:1824  topDepositors */\n      0x02\n        /* \"contracts/BigBank.sol\":1825:1826  j */\n      dup5\n        /* \"contracts/BigBank.sol\":1811:1827  topDepositors[j] */\n      0xff\n      and\n      0x03\n      dup2\n      lt\n      tag_133\n      jumpi\n      tag_133\n      tag_74\n      jump\t// in\n    tag_133:\n      add\n      sload\n      sub(shl(0xa0, 0x01), 0x01)\n      and\n        /* \"contracts/BigBank.sol\":1802:1828  deposits[topDepositors[j]] */\n      dup2\n      mstore\n      0x20\n      dup2\n      add\n      swap2\n      swap1\n      swap2\n      mstore\n      0x40\n      add\n        /* \"contracts/BigBank.sol\":1811:1827  topDepositors[j] */\n      0x00\n        /* \"contracts/BigBank.sol\":1802:1828  deposits[topDepositors[j]] */\n      keccak256\n      sload\n        /* \"contracts/BigBank.sol\":1802:1842  deposits[topDepositors[j]] < keyDeposits */\n      lt\n        /* \"contracts/BigBank.sol\":1768:1842  topDepositors[j] == address(0) || deposits[topDepositors[j]] < keyDeposits */\n    tag_131:\n        /* \"contracts/BigBank.sol\":1750:1937  while (j >= 0 && (topDepositors[j] == address(0) || deposits[topDepositors[j]] < keyDeposits)){... */\n      iszero\n      tag_126\n      jumpi\n        /* \"contracts/BigBank.sol\":1885:1898  topDepositors */\n      0x02\n        /* \"contracts/BigBank.sol\":1899:1900  j */\n      dup2\n        /* \"contracts/BigBank.sol\":1885:1901  topDepositors[j] */\n      0xff\n      and\n      0x03\n      dup2\n      lt\n      tag_136\n      jumpi\n      tag_136\n      tag_74\n      jump\t// in\n    tag_136:\n      add\n      sload\n      sub(shl(0xa0, 0x01), 0x01)\n      and\n        /* \"contracts/BigBank.sol\":1862:1875  topDepositors */\n      0x02\n        /* \"contracts/BigBank.sol\":1876:1881  j + 1 */\n      tag_138\n        /* \"contracts/BigBank.sol\":1876:1877  j */\n      dup4\n        /* \"contracts/BigBank.sol\":1885:1901  topDepositors[j] */\n      0x01\n        /* \"contracts/BigBank.sol\":1876:1881  j + 1 */\n      tag_139\n      jump\t// in\n    tag_138:\n        /* \"contracts/BigBank.sol\":1862:1882  topDepositors[j + 1] */\n      0xff\n      and\n      0x03\n      dup2\n      lt\n      tag_141\n      jumpi\n      tag_141\n      tag_74\n      jump\t// in\n    tag_141:\n      add\n        /* \"contracts/BigBank.sol\":1862:1901  topDepositors[j + 1] = topDepositors[j] */\n      dup1\n      sload\n      not(sub(shl(0xa0, 0x01), 0x01))\n      and\n      sub(shl(0xa0, 0x01), 0x01)\n      swap3\n      swap1\n      swap3\n      and\n      swap2\n      swap1\n      swap2\n      or\n      swap1\n      sstore\n        /* \"contracts/BigBank.sol\":1919:1922  j-- */\n      dup1\n      tag_143\n      dup2\n      tag_112\n      jump\t// in\n    tag_143:\n      swap2\n      pop\n      pop\n        /* \"contracts/BigBank.sol\":1750:1937  while (j >= 0 && (topDepositors[j] == address(0) || deposits[topDepositors[j]] < keyDeposits)){... */\n      jump(tag_125)\n    tag_126:\n        /* \"contracts/BigBank.sol\":1971:1974  key */\n      dup3\n        /* \"contracts/BigBank.sol\":1950:1963  topDepositors */\n      0x02\n        /* \"contracts/BigBank.sol\":1964:1967  j+1 */\n      tag_144\n        /* \"contracts/BigBank.sol\":1964:1965  j */\n      dup4\n        /* \"contracts/BigBank.sol\":1966:1967  1 */\n      0x01\n        /* \"contracts/BigBank.sol\":1964:1967  j+1 */\n      tag_139\n      jump\t// in\n    tag_144:\n        /* \"contracts/BigBank.sol\":1950:1968  topDepositors[j+1] */\n      0xff\n      and\n      0x03\n      dup2\n      lt\n      tag_146\n      jumpi\n      tag_146\n      tag_74\n      jump\t// in\n    tag_146:\n      add\n        /* \"contracts/BigBank.sol\":1950:1974  topDepositors[j+1] = key */\n      dup1\n      sload\n      not(sub(shl(0xa0, 0x01), 0x01))\n      and\n      sub(shl(0xa0, 0x01), 0x01)\n      swap3\n      swap1\n      swap3\n      and\n      swap2\n      swap1\n      swap2\n      or\n      swap1\n      sstore\n      pop\n      pop\n      pop\n        /* \"contracts/BigBank.sol\":1530:1985  for (uint8 i = 1; i < TOP_COUNT; i++){... */\n    tag_119:\n        /* \"contracts/BigBank.sol\":1563:1566  i++ */\n      0x01\n      add\n        /* \"contracts/BigBank.sol\":1530:1985  for (uint8 i = 1; i < TOP_COUNT; i++){... */\n      jump(tag_117)\n    tag_118:\n      pop\n        /* \"contracts/BigBank.sol\":1485:1991  function _updateRankings()internal {... */\n      jump\t// out\n    tag_64:\n      mload(0x40)\n      dup1\n      0x60\n      add\n      0x40\n      mstore\n      dup1\n      0x03\n      swap1\n      0x20\n      dup3\n      mul\n      dup1\n      calldatasize\n      dup4\n      calldatacopy\n      pop\n      swap2\n      swap3\n      swap2\n      pop\n      pop\n      jump\t// out\n        /* \"#utility.yul\":14:194   */\n    tag_16:\n        /* \"#utility.yul\":73:79   */\n      0x00\n        /* \"#utility.yul\":126:128   */\n      0x20\n        /* \"#utility.yul\":114:123   */\n      dup3\n        /* \"#utility.yul\":105:112   */\n      dup5\n        /* \"#utility.yul\":101:124   */\n      sub\n        /* \"#utility.yul\":97:129   */\n      slt\n        /* \"#utility.yul\":94:146   */\n      iszero\n      tag_151\n      jumpi\n        /* \"#utility.yul\":142:143   */\n      0x00\n        /* \"#utility.yul\":139:140   */\n      0x00\n        /* \"#utility.yul\":132:144   */\n      revert\n        /* \"#utility.yul\":94:146   */\n    tag_151:\n      pop\n        /* \"#utility.yul\":165:188   */\n      calldataload\n      swap2\n        /* \"#utility.yul\":14:194   */\n      swap1\n      pop\n      jump\t// out\n        /* \"#utility.yul\":407:1292   */\n    tag_27:\n        /* \"#utility.yul\":661:664   */\n      0xc0\n        /* \"#utility.yul\":646:665   */\n      dup2\n      add\n        /* \"#utility.yul\":650:659   */\n      dup2\n        /* \"#utility.yul\":742:748   */\n      dup5\n        /* \"#utility.yul\":619:623   */\n      0x00\n        /* \"#utility.yul\":776:973   */\n    tag_154:\n        /* \"#utility.yul\":790:794   */\n      0x03\n        /* \"#utility.yul\":787:788   */\n      dup2\n        /* \"#utility.yul\":784:795   */\n      lt\n        /* \"#utility.yul\":776:973   */\n      iszero\n      tag_156\n      jumpi\n        /* \"#utility.yul\":853:866   */\n      dup2\n      mload\n      sub(shl(0xa0, 0x01), 0x01)\n        /* \"#utility.yul\":849:888   */\n      and\n        /* \"#utility.yul\":837:889   */\n      dup4\n      mstore\n        /* \"#utility.yul\":918:922   */\n      0x20\n        /* \"#utility.yul\":909:923   */\n      swap3\n      dup4\n      add\n      swap3\n        /* \"#utility.yul\":946:963   */\n      swap1\n      swap2\n      add\n      swap1\n        /* \"#utility.yul\":885:886   */\n      0x01\n        /* \"#utility.yul\":803:812   */\n      add\n        /* \"#utility.yul\":776:973   */\n      jump(tag_154)\n    tag_156:\n        /* \"#utility.yul\":780:783   */\n      pop\n      pop\n      pop\n        /* \"#utility.yul\":1010:1012   */\n      0x60\n        /* \"#utility.yul\":999:1008   */\n      dup3\n        /* \"#utility.yul\":995:1013   */\n      add\n        /* \"#utility.yul\":1061:1067   */\n      dup4\n        /* \"#utility.yul\":1087:1088   */\n      0x00\n        /* \"#utility.yul\":1097:1286   */\n    tag_157:\n        /* \"#utility.yul\":1113:1117   */\n      0x03\n        /* \"#utility.yul\":1108:1111   */\n      dup2\n        /* \"#utility.yul\":1105:1118   */\n      lt\n        /* \"#utility.yul\":1097:1286   */\n      iszero\n      tag_159\n      jumpi\n        /* \"#utility.yul\":1178:1193   */\n      dup2\n      mload\n        /* \"#utility.yul\":1164:1194   */\n      dup4\n      mstore\n        /* \"#utility.yul\":1227:1231   */\n      0x20\n        /* \"#utility.yul\":1216:1232   */\n      swap3\n      dup4\n      add\n      swap3\n        /* \"#utility.yul\":1257:1276   */\n      swap1\n      swap2\n      add\n      swap1\n        /* \"#utility.yul\":1137:1138   */\n      0x01\n        /* \"#utility.yul\":1128:1139   */\n      add\n        /* \"#utility.yul\":1097:1286   */\n      jump(tag_157)\n    tag_159:\n        /* \"#utility.yul\":1101:1104   */\n      pop\n      pop\n      pop\n        /* \"#utility.yul\":407:1292   */\n      swap4\n      swap3\n      pop\n      pop\n      pop\n      jump\t// out\n        /* \"#utility.yul\":1297:1583   */\n    tag_37:\n        /* \"#utility.yul\":1356:1362   */\n      0x00\n        /* \"#utility.yul\":1409:1411   */\n      0x20\n        /* \"#utility.yul\":1397:1406   */\n      dup3\n        /* \"#utility.yul\":1388:1395   */\n      dup5\n        /* \"#utility.yul\":1384:1407   */\n      sub\n        /* \"#utility.yul\":1380:1412   */\n      slt\n        /* \"#utility.yul\":1377:1429   */\n      iszero\n      tag_161\n      jumpi\n        /* \"#utility.yul\":1425:1426   */\n      0x00\n        /* \"#utility.yul\":1422:1423   */\n      0x00\n        /* \"#utility.yul\":1415:1427   */\n      revert\n        /* \"#utility.yul\":1377:1429   */\n    tag_161:\n        /* \"#utility.yul\":1451:1474   */\n      dup2\n      calldataload\n      sub(shl(0xa0, 0x01), 0x01)\n        /* \"#utility.yul\":1503:1534   */\n      dup2\n      and\n        /* \"#utility.yul\":1493:1535   */\n      dup2\n      eq\n        /* \"#utility.yul\":1483:1553   */\n      tag_162\n      jumpi\n        /* \"#utility.yul\":1549:1550   */\n      0x00\n        /* \"#utility.yul\":1546:1547   */\n      0x00\n        /* \"#utility.yul\":1539:1551   */\n      revert\n        /* \"#utility.yul\":1483:1553   */\n    tag_162:\n        /* \"#utility.yul\":1572:1577   */\n      swap4\n        /* \"#utility.yul\":1297:1583   */\n      swap3\n      pop\n      pop\n      pop\n      jump\t// out\n        /* \"#utility.yul\":1770:1897   */\n    tag_148:\n        /* \"#utility.yul\":1831:1841   */\n      0x4e487b71\n        /* \"#utility.yul\":1826:1829   */\n      0xe0\n        /* \"#utility.yul\":1822:1842   */\n      shl\n        /* \"#utility.yul\":1819:1820   */\n      0x00\n        /* \"#utility.yul\":1812:1843   */\n      mstore\n        /* \"#utility.yul\":1862:1866   */\n      0x11\n        /* \"#utility.yul\":1859:1860   */\n      0x04\n        /* \"#utility.yul\":1852:1867   */\n      mstore\n        /* \"#utility.yul\":1886:1890   */\n      0x24\n        /* \"#utility.yul\":1883:1884   */\n      0x00\n        /* \"#utility.yul\":1876:1891   */\n      revert\n        /* \"#utility.yul\":1902:2027   */\n    tag_43:\n        /* \"#utility.yul\":1967:1976   */\n      dup1\n      dup3\n      add\n        /* \"#utility.yul\":1988:1998   */\n      dup1\n      dup3\n      gt\n        /* \"#utility.yul\":1985:2021   */\n      iszero\n      tag_167\n      jumpi\n        /* \"#utility.yul\":2001:2019   */\n      tag_167\n      tag_148\n      jump\t// in\n    tag_167:\n        /* \"#utility.yul\":1902:2027   */\n      swap3\n      swap2\n      pop\n      pop\n      jump\t// out\n        /* \"#utility.yul\":3289:3416   */\n    tag_74:\n        /* \"#utility.yul\":3350:3360   */\n      0x4e487b71\n        /* \"#utility.yul\":3345:3348   */\n      0xe0\n        /* \"#utility.yul\":3341:3361   */\n      shl\n        /* \"#utility.yul\":3338:3339   */\n      0x00\n        /* \"#utility.yul\":3331:3362   */\n      mstore\n        /* \"#utility.yul\":3381:3385   */\n      0x32\n        /* \"#utility.yul\":3378:3379   */\n      0x04\n        /* \"#utility.yul\":3371:3386   */\n      mstore\n        /* \"#utility.yul\":3405:3409   */\n      0x24\n        /* \"#utility.yul\":3402:3403   */\n      0x00\n        /* \"#utility.yul\":3395:3410   */\n      revert\n        /* \"#utility.yul\":3421:3572   */\n    tag_104:\n        /* \"#utility.yul\":3511:3515   */\n      0xff\n        /* \"#utility.yul\":3504:3516   */\n      dup3\n      dup2\n      and\n        /* \"#utility.yul\":3490:3502   */\n      dup3\n      dup3\n      and\n        /* \"#utility.yul\":3486:3517   */\n      sub\n      swap1\n        /* \"#utility.yul\":3529:3543   */\n      dup2\n      gt\n        /* \"#utility.yul\":3526:3566   */\n      iszero\n      tag_167\n      jumpi\n        /* \"#utility.yul\":3546:3564   */\n      tag_167\n      tag_148\n      jump\t// in\n        /* \"#utility.yul\":3577:3755   */\n    tag_112:\n        /* \"#utility.yul\":3614:3617   */\n      0x00\n        /* \"#utility.yul\":3658:3662   */\n      0xff\n        /* \"#utility.yul\":3651:3656   */\n      dup3\n        /* \"#utility.yul\":3647:3663   */\n      and\n        /* \"#utility.yul\":3682:3689   */\n      dup1\n        /* \"#utility.yul\":3672:3713   */\n      tag_178\n      jumpi\n        /* \"#utility.yul\":3693:3711   */\n      tag_178\n      tag_148\n      jump\t// in\n    tag_178:\n      not(0x00)\n        /* \"#utility.yul\":3729:3749   */\n      add\n      swap3\n        /* \"#utility.yul\":3577:3755   */\n      swap2\n      pop\n      pop\n      jump\t// out\n        /* \"#utility.yul\":3760:3908   */\n    tag_139:\n        /* \"#utility.yul\":3848:3852   */\n      0xff\n        /* \"#utility.yul\":3827:3839   */\n      dup2\n      dup2\n      and\n        /* \"#utility.yul\":3841:3853   */\n      dup4\n      dup3\n      and\n        /* \"#utility.yul\":3823:3854   */\n      add\n      swap1\n        /* \"#utility.yul\":3866:3879   */\n      dup2\n      gt\n        /* \"#utility.yul\":3863:3902   */\n      iszero\n      tag_167\n      jumpi\n        /* \"#utility.yul\":3882:3900   */\n      tag_167\n      tag_148\n      jump\t// in\n\n    auxdata: 0xa2646970667358221220fea91f796a264e20ae5b1dc88852ae4939e2bbc0ca8a876ee1eed39d489247cc64736f6c634300081f0033\n}\n",
				"bytecode": {
					"linkReferences": {},
					"object": "6080604052348015600e575f5ffd5b505f80546001600160a01b031916331790556108358061002d5f395ff3fe608060405260043610610057575f3560e01c8063308610781461006a5780633ccfd60b146100a657806381454f71146100ba578063d0e30db0146100dc578063f851a440146100e4578063fc7e286d14610102575f5ffd5b366100665761006461013b565b005b5f5ffd5b348015610075575f5ffd5b506100896100843660046106ca565b61016a565b6040516001600160a01b0390911681526020015b60405180910390f35b3480156100b1575f5ffd5b50610064610189565b3480156100c5575f5ffd5b506100ce6102c4565b60405161009d9291906106e1565b610064610388565b3480156100ef575f5ffd5b505f54610089906001600160a01b031681565b34801561010d575f5ffd5b5061012d61011c366004610744565b60016020525f908152604090205481565b60405190815260200161009d565b335f9081526001602052604081208054349290610159908490610785565b90915550610168905033610390565b565b60028160038110610179575f80fd5b01546001600160a01b0316905081565b5f546001600160a01b031633146101e75760405162461bcd60e51b815260206004820152601760248201527f6f6e6c792061646d696e2063616e20776974686472617700000000000000000060448201526064015b60405180910390fd5b478061022e5760405162461bcd60e51b81526020600482015260166024820152756e6f2062616c616e636520746f20776974686472617760501b60448201526064016101de565b5f80546040516001600160a01b039091169083908381818185875af1925050503d805f8114610278576040519150601f19603f3d011682016040523d82523d5f602084013e61027d565b606091505b50509050806102c05760405162461bcd60e51b815260206004820152600f60248201526e1dda5d1a191c985dc819985a5b1959608a1b60448201526064016101de565b5050565b6102cc6106ac565b6102d46106ac565b6102dc6106ac565b5f5b600360ff821610156103405760015f60028360ff16600381106103035761030361079e565b01546001600160a01b0316815260208101919091526040015f20548260ff8316600381106103335761033361079e565b60200201526001016102de565b50604080516060810191829052600291839190839060039082845b81546001600160a01b0316815260019091019060200180831161035b575050505050915092509250509091565b61016861013b565b6001600160a01b0381165f90815260016020526040812054905b600360ff821610156103fb57826001600160a01b031660028260ff16600381106103d6576103d661079e565b01546001600160a01b0316036103f3576103ee61051f565b505050565b6001016103aa565b505f5b600360ff821610156103ee575f60028260ff16600381106104215761042161079e565b01546001600160a01b0316905080158061045157506001600160a01b0381165f9081526001602052604090205483115b156105165760025b8260ff168160ff1611156104d95760026104746001836107b2565b60ff16600381106104875761048761079e565b01546001600160a01b0316600260ff8316600381106104a8576104a861079e565b0180546001600160a01b0319166001600160a01b0392909216919091179055806104d1816107cb565b915050610459565b508360028360ff16600381106104f1576104f161079e565b0180546001600160a01b0319166001600160a01b039290921691909117905550505050565b506001016103fe565b60015b600360ff821610156106a9575f60028260ff16600381106105455761054561079e565b01546001600160a01b031690508061055d57506106a1565b6001600160a01b0381165f908152600160208190526040822054919061058390856107b2565b90505b5f600260ff83166003811061059d5761059d61079e565b01546001600160a01b031614806105e657508160015f60028460ff16600381106105c9576105c961079e565b01546001600160a01b0316815260208101919091526040015f2054105b1561065d5760028160ff16600381106106015761060161079e565b01546001600160a01b031660026106198360016107e6565b60ff166003811061062c5761062c61079e565b0180546001600160a01b0319166001600160a01b039290921691909117905580610655816107cb565b915050610586565b82600261066b8360016107e6565b60ff166003811061067e5761067e61079e565b0180546001600160a01b0319166001600160a01b03929092169190911790555050505b600101610522565b50565b60405180606001604052806003906020820280368337509192915050565b5f602082840312156106da575f5ffd5b5035919050565b60c0810181845f5b60038110156107115781516001600160a01b03168352602092830192909101906001016106e9565b50505060608201835f5b600381101561073a57815183526020928301929091019060010161071b565b5050509392505050565b5f60208284031215610754575f5ffd5b81356001600160a01b038116811461076a575f5ffd5b9392505050565b634e487b7160e01b5f52601160045260245ffd5b8082018082111561079857610798610771565b92915050565b634e487b7160e01b5f52603260045260245ffd5b60ff828116828216039081111561079857610798610771565b5f60ff8216806107dd576107dd610771565b5f190192915050565b60ff81811683821601908111156107985761079861077156fea2646970667358221220fea91f796a264e20ae5b1dc88852ae4939e2bbc0ca8a876ee1eed39d489247cc64736f6c634300081f0033",
					"opcodes": "PUSH1 0x80 PUSH1 0x40 MSTORE CALLVALUE DUP1 ISZERO PUSH1 0xE JUMPI PUSH0 PUSH0 REVERT JUMPDEST POP PUSH0 DUP1 SLOAD PUSH1 0x1 PUSH1 0x1 PUSH1 0xA0 SHL SUB NOT AND CALLER OR SWAP1 SSTORE PUSH2 0x835 DUP1 PUSH2 0x2D PUSH0 CODECOPY PUSH0 RETURN INVALID PUSH1 0x80 PUSH1 0x40 MSTORE PUSH1 0x4 CALLDATASIZE LT PUSH2 0x57 JUMPI PUSH0 CALLDATALOAD PUSH1 0xE0 SHR DUP1 PUSH4 0x30861078 EQ PUSH2 0x6A JUMPI DUP1 PUSH4 0x3CCFD60B EQ PUSH2 0xA6 JUMPI DUP1 PUSH4 0x81454F71 EQ PUSH2 0xBA JUMPI DUP1 PUSH4 0xD0E30DB0 EQ PUSH2 0xDC JUMPI DUP1 PUSH4 0xF851A440 EQ PUSH2 0xE4 JUMPI DUP1 PUSH4 0xFC7E286D EQ PUSH2 0x102 JUMPI PUSH0 PUSH0 REVERT JUMPDEST CALLDATASIZE PUSH2 0x66 JUMPI PUSH2 0x64 PUSH2 0x13B JUMP JUMPDEST STOP JUMPDEST PUSH0 PUSH0 REVERT JUMPDEST CALLVALUE DUP1 ISZERO PUSH2 0x75 JUMPI PUSH0 PUSH0 REVERT JUMPDEST POP PUSH2 0x89 PUSH2 0x84 CALLDATASIZE PUSH1 0x4 PUSH2 0x6CA JUMP JUMPDEST PUSH2 0x16A JUMP JUMPDEST PUSH1 0x40 MLOAD PUSH1 0x1 PUSH1 0x1 PUSH1 0xA0 SHL SUB SWAP1 SWAP2 AND DUP2 MSTORE PUSH1 0x20 ADD JUMPDEST PUSH1 0x40 MLOAD DUP1 SWAP2 SUB SWAP1 RETURN JUMPDEST CALLVALUE DUP1 ISZERO PUSH2 0xB1 JUMPI PUSH0 PUSH0 REVERT JUMPDEST POP PUSH2 0x64 PUSH2 0x189 JUMP JUMPDEST CALLVALUE DUP1 ISZERO PUSH2 0xC5 JUMPI PUSH0 PUSH0 REVERT JUMPDEST POP PUSH2 0xCE PUSH2 0x2C4 JUMP JUMPDEST PUSH1 0x40 MLOAD PUSH2 0x9D SWAP3 SWAP2 SWAP1 PUSH2 0x6E1 JUMP JUMPDEST PUSH2 0x64 PUSH2 0x388 JUMP JUMPDEST CALLVALUE DUP1 ISZERO PUSH2 0xEF JUMPI PUSH0 PUSH0 REVERT JUMPDEST POP PUSH0 SLOAD PUSH2 0x89 SWAP1 PUSH1 0x1 PUSH1 0x1 PUSH1 0xA0 SHL SUB AND DUP2 JUMP JUMPDEST CALLVALUE DUP1 ISZERO PUSH2 0x10D JUMPI PUSH0 PUSH0 REVERT JUMPDEST POP PUSH2 0x12D PUSH2 0x11C CALLDATASIZE PUSH1 0x4 PUSH2 0x744 JUMP JUMPDEST PUSH1 0x1 PUSH1 0x20 MSTORE PUSH0 SWAP1 DUP2 MSTORE PUSH1 0x40 SWAP1 KECCAK256 SLOAD DUP2 JUMP JUMPDEST PUSH1 0x40 MLOAD SWAP1 DUP2 MSTORE PUSH1 0x20 ADD PUSH2 0x9D JUMP JUMPDEST CALLER PUSH0 SWAP1 DUP2 MSTORE PUSH1 0x1 PUSH1 0x20 MSTORE PUSH1 0x40 DUP2 KECCAK256 DUP1 SLOAD CALLVALUE SWAP3 SWAP1 PUSH2 0x159 SWAP1 DUP5 SWAP1 PUSH2 0x785 JUMP JUMPDEST SWAP1 SWAP2 SSTORE POP PUSH2 0x168 SWAP1 POP CALLER PUSH2 0x390 JUMP JUMPDEST JUMP JUMPDEST PUSH1 0x2 DUP2 PUSH1 0x3 DUP2 LT PUSH2 0x179 JUMPI PUSH0 DUP1 REVERT JUMPDEST ADD SLOAD PUSH1 0x1 PUSH1 0x1 PUSH1 0xA0 SHL SUB AND SWAP1 POP DUP2 JUMP JUMPDEST PUSH0 SLOAD PUSH1 0x1 PUSH1 0x1 PUSH1 0xA0 SHL SUB AND CALLER EQ PUSH2 0x1E7 JUMPI PUSH1 0x40 MLOAD PUSH3 0x461BCD PUSH1 0xE5 SHL DUP2 MSTORE PUSH1 0x20 PUSH1 0x4 DUP3 ADD MSTORE PUSH1 0x17 PUSH1 0x24 DUP3 ADD MSTORE PUSH32 0x6F6E6C792061646D696E2063616E207769746864726177000000000000000000 PUSH1 0x44 DUP3 ADD MSTORE PUSH1 0x64 ADD JUMPDEST PUSH1 0x40 MLOAD DUP1 SWAP2 SUB SWAP1 REVERT JUMPDEST SELFBALANCE DUP1 PUSH2 0x22E JUMPI PUSH1 0x40 MLOAD PUSH3 0x461BCD PUSH1 0xE5 SHL DUP2 MSTORE PUSH1 0x20 PUSH1 0x4 DUP3 ADD MSTORE PUSH1 0x16 PUSH1 0x24 DUP3 ADD MSTORE PUSH22 0x6E6F2062616C616E636520746F207769746864726177 PUSH1 0x50 SHL PUSH1 0x44 DUP3 ADD MSTORE PUSH1 0x64 ADD PUSH2 0x1DE JUMP JUMPDEST PUSH0 DUP1 SLOAD PUSH1 0x40 MLOAD PUSH1 0x1 PUSH1 0x1 PUSH1 0xA0 SHL SUB SWAP1 SWAP2 AND SWAP1 DUP4 SWAP1 DUP4 DUP2 DUP2 DUP2 DUP6 DUP8 GAS CALL SWAP3 POP POP POP RETURNDATASIZE DUP1 PUSH0 DUP2 EQ PUSH2 0x278 JUMPI PUSH1 0x40 MLOAD SWAP2 POP PUSH1 0x1F NOT PUSH1 0x3F RETURNDATASIZE ADD AND DUP3 ADD PUSH1 0x40 MSTORE RETURNDATASIZE DUP3 MSTORE RETURNDATASIZE PUSH0 PUSH1 0x20 DUP5 ADD RETURNDATACOPY PUSH2 0x27D JUMP JUMPDEST PUSH1 0x60 SWAP2 POP JUMPDEST POP POP SWAP1 POP DUP1 PUSH2 0x2C0 JUMPI PUSH1 0x40 MLOAD PUSH3 0x461BCD PUSH1 0xE5 SHL DUP2 MSTORE PUSH1 0x20 PUSH1 0x4 DUP3 ADD MSTORE PUSH1 0xF PUSH1 0x24 DUP3 ADD MSTORE PUSH15 0x1DDA5D1A191C985DC819985A5B1959 PUSH1 0x8A SHL PUSH1 0x44 DUP3 ADD MSTORE PUSH1 0x64 ADD PUSH2 0x1DE JUMP JUMPDEST POP POP JUMP JUMPDEST PUSH2 0x2CC PUSH2 0x6AC JUMP JUMPDEST PUSH2 0x2D4 PUSH2 0x6AC JUMP JUMPDEST PUSH2 0x2DC PUSH2 0x6AC JUMP JUMPDEST PUSH0 JUMPDEST PUSH1 0x3 PUSH1 0xFF DUP3 AND LT ISZERO PUSH2 0x340 JUMPI PUSH1 0x1 PUSH0 PUSH1 0x2 DUP4 PUSH1 0xFF AND PUSH1 0x3 DUP2 LT PUSH2 0x303 JUMPI PUSH2 0x303 PUSH2 0x79E JUMP JUMPDEST ADD SLOAD PUSH1 0x1 PUSH1 0x1 PUSH1 0xA0 SHL SUB AND DUP2 MSTORE PUSH1 0x20 DUP2 ADD SWAP2 SWAP1 SWAP2 MSTORE PUSH1 0x40 ADD PUSH0 KECCAK256 SLOAD DUP3 PUSH1 0xFF DUP4 AND PUSH1 0x3 DUP2 LT PUSH2 0x333 JUMPI PUSH2 0x333 PUSH2 0x79E JUMP JUMPDEST PUSH1 0x20 MUL ADD MSTORE PUSH1 0x1 ADD PUSH2 0x2DE JUMP JUMPDEST POP PUSH1 0x40 DUP1 MLOAD PUSH1 0x60 DUP2 ADD SWAP2 DUP3 SWAP1 MSTORE PUSH1 0x2 SWAP2 DUP4 SWAP2 SWAP1 DUP4 SWAP1 PUSH1 0x3 SWAP1 DUP3 DUP5 JUMPDEST DUP2 SLOAD PUSH1 0x1 PUSH1 0x1 PUSH1 0xA0 SHL SUB AND DUP2 MSTORE PUSH1 0x1 SWAP1 SWAP2 ADD SWAP1 PUSH1 0x20 ADD DUP1 DUP4 GT PUSH2 0x35B JUMPI POP POP POP POP POP SWAP2 POP SWAP3 POP SWAP3 POP POP SWAP1 SWAP2 JUMP JUMPDEST PUSH2 0x168 PUSH2 0x13B JUMP JUMPDEST PUSH1 0x1 PUSH1 0x1 PUSH1 0xA0 SHL SUB DUP2 AND PUSH0 SWAP1 DUP2 MSTORE PUSH1 0x1 PUSH1 0x20 MSTORE PUSH1 0x40 DUP2 KECCAK256 SLOAD SWAP1 JUMPDEST PUSH1 0x3 PUSH1 0xFF DUP3 AND LT ISZERO PUSH2 0x3FB JUMPI DUP3 PUSH1 0x1 PUSH1 0x1 PUSH1 0xA0 SHL SUB AND PUSH1 0x2 DUP3 PUSH1 0xFF AND PUSH1 0x3 DUP2 LT PUSH2 0x3D6 JUMPI PUSH2 0x3D6 PUSH2 0x79E JUMP JUMPDEST ADD SLOAD PUSH1 0x1 PUSH1 0x1 PUSH1 0xA0 SHL SUB AND SUB PUSH2 0x3F3 JUMPI PUSH2 0x3EE PUSH2 0x51F JUMP JUMPDEST POP POP POP JUMP JUMPDEST PUSH1 0x1 ADD PUSH2 0x3AA JUMP JUMPDEST POP PUSH0 JUMPDEST PUSH1 0x3 PUSH1 0xFF DUP3 AND LT ISZERO PUSH2 0x3EE JUMPI PUSH0 PUSH1 0x2 DUP3 PUSH1 0xFF AND PUSH1 0x3 DUP2 LT PUSH2 0x421 JUMPI PUSH2 0x421 PUSH2 0x79E JUMP JUMPDEST ADD SLOAD PUSH1 0x1 PUSH1 0x1 PUSH1 0xA0 SHL SUB AND SWAP1 POP DUP1 ISZERO DUP1 PUSH2 0x451 JUMPI POP PUSH1 0x1 PUSH1 0x1 PUSH1 0xA0 SHL SUB DUP2 AND PUSH0 SWAP1 DUP2 MSTORE PUSH1 0x1 PUSH1 0x20 MSTORE PUSH1 0x40 SWAP1 KECCAK256 SLOAD DUP4 GT JUMPDEST ISZERO PUSH2 0x516 JUMPI PUSH1 0x2 JUMPDEST DUP3 PUSH1 0xFF AND DUP2 PUSH1 0xFF AND GT ISZERO PUSH2 0x4D9 JUMPI PUSH1 0x2 PUSH2 0x474 PUSH1 0x1 DUP4 PUSH2 0x7B2 JUMP JUMPDEST PUSH1 0xFF AND PUSH1 0x3 DUP2 LT PUSH2 0x487 JUMPI PUSH2 0x487 PUSH2 0x79E JUMP JUMPDEST ADD SLOAD PUSH1 0x1 PUSH1 0x1 PUSH1 0xA0 SHL SUB AND PUSH1 0x2 PUSH1 0xFF DUP4 AND PUSH1 0x3 DUP2 LT PUSH2 0x4A8 JUMPI PUSH2 0x4A8 PUSH2 0x79E JUMP JUMPDEST ADD DUP1 SLOAD PUSH1 0x1 PUSH1 0x1 PUSH1 0xA0 SHL SUB NOT AND PUSH1 0x1 PUSH1 0x1 PUSH1 0xA0 SHL SUB SWAP3 SWAP1 SWAP3 AND SWAP2 SWAP1 SWAP2 OR SWAP1 SSTORE DUP1 PUSH2 0x4D1 DUP2 PUSH2 0x7CB JUMP JUMPDEST SWAP2 POP POP PUSH2 0x459 JUMP JUMPDEST POP DUP4 PUSH1 0x2 DUP4 PUSH1 0xFF AND PUSH1 0x3 DUP2 LT PUSH2 0x4F1 JUMPI PUSH2 0x4F1 PUSH2 0x79E JUMP JUMPDEST ADD DUP1 SLOAD PUSH1 0x1 PUSH1 0x1 PUSH1 0xA0 SHL SUB NOT AND PUSH1 0x1 PUSH1 0x1 PUSH1 0xA0 SHL SUB SWAP3 SWAP1 SWAP3 AND SWAP2 SWAP1 SWAP2 OR SWAP1 SSTORE POP POP POP POP JUMP JUMPDEST POP PUSH1 0x1 ADD PUSH2 0x3FE JUMP JUMPDEST PUSH1 0x1 JUMPDEST PUSH1 0x3 PUSH1 0xFF DUP3 AND LT ISZERO PUSH2 0x6A9 JUMPI PUSH0 PUSH1 0x2 DUP3 PUSH1 0xFF AND PUSH1 0x3 DUP2 LT PUSH2 0x545 JUMPI PUSH2 0x545 PUSH2 0x79E JUMP JUMPDEST ADD SLOAD PUSH1 0x1 PUSH1 0x1 PUSH1 0xA0 SHL SUB AND SWAP1 POP DUP1 PUSH2 0x55D JUMPI POP PUSH2 0x6A1 JUMP JUMPDEST PUSH1 0x1 PUSH1 0x1 PUSH1 0xA0 SHL SUB DUP2 AND PUSH0 SWAP1 DUP2 MSTORE PUSH1 0x1 PUSH1 0x20 DUP2 SWAP1 MSTORE PUSH1 0x40 DUP3 KECCAK256 SLOAD SWAP2 SWAP1 PUSH2 0x583 SWAP1 DUP6 PUSH2 0x7B2 JUMP JUMPDEST SWAP1 POP JUMPDEST PUSH0 PUSH1 0x2 PUSH1 0xFF DUP4 AND PUSH1 0x3 DUP2 LT PUSH2 0x59D JUMPI PUSH2 0x59D PUSH2 0x79E JUMP JUMPDEST ADD SLOAD PUSH1 0x1 PUSH1 0x1 PUSH1 0xA0 SHL SUB AND EQ DUP1 PUSH2 0x5E6 JUMPI POP DUP2 PUSH1 0x1 PUSH0 PUSH1 0x2 DUP5 PUSH1 0xFF AND PUSH1 0x3 DUP2 LT PUSH2 0x5C9 JUMPI PUSH2 0x5C9 PUSH2 0x79E JUMP JUMPDEST ADD SLOAD PUSH1 0x1 PUSH1 0x1 PUSH1 0xA0 SHL SUB AND DUP2 MSTORE PUSH1 0x20 DUP2 ADD SWAP2 SWAP1 SWAP2 MSTORE PUSH1 0x40 ADD PUSH0 KECCAK256 SLOAD LT JUMPDEST ISZERO PUSH2 0x65D JUMPI PUSH1 0x2 DUP2 PUSH1 0xFF AND PUSH1 0x3 DUP2 LT PUSH2 0x601 JUMPI PUSH2 0x601 PUSH2 0x79E JUMP JUMPDEST ADD SLOAD PUSH1 0x1 PUSH1 0x1 PUSH1 0xA0 SHL SUB AND PUSH1 0x2 PUSH2 0x619 DUP4 PUSH1 0x1 PUSH2 0x7E6 JUMP JUMPDEST PUSH1 0xFF AND PUSH1 0x3 DUP2 LT PUSH2 0x62C JUMPI PUSH2 0x62C PUSH2 0x79E JUMP JUMPDEST ADD DUP1 SLOAD PUSH1 0x1 PUSH1 0x1 PUSH1 0xA0 SHL SUB NOT AND PUSH1 0x1 PUSH1 0x1 PUSH1 0xA0 SHL SUB SWAP3 SWAP1 SWAP3 AND SWAP2 SWAP1 SWAP2 OR SWAP1 SSTORE DUP1 PUSH2 0x655 DUP2 PUSH2 0x7CB JUMP JUMPDEST SWAP2 POP POP PUSH2 0x586 JUMP JUMPDEST DUP3 PUSH1 0x2 PUSH2 0x66B DUP4 PUSH1 0x1 PUSH2 0x7E6 JUMP JUMPDEST PUSH1 0xFF AND PUSH1 0x3 DUP2 LT PUSH2 0x67E JUMPI PUSH2 0x67E PUSH2 0x79E JUMP JUMPDEST ADD DUP1 SLOAD PUSH1 0x1 PUSH1 0x1 PUSH1 0xA0 SHL SUB NOT AND PUSH1 0x1 PUSH1 0x1 PUSH1 0xA0 SHL SUB SWAP3 SWAP1 SWAP3 AND SWAP2 SWAP1 SWAP2 OR SWAP1 SSTORE POP POP POP JUMPDEST PUSH1 0x1 ADD PUSH2 0x522 JUMP JUMPDEST POP JUMP JUMPDEST PUSH1 0x40 MLOAD DUP1 PUSH1 0x60 ADD PUSH1 0x40 MSTORE DUP1 PUSH1 0x3 SWAP1 PUSH1 0x20 DUP3 MUL DUP1 CALLDATASIZE DUP4 CALLDATACOPY POP SWAP2 SWAP3 SWAP2 POP POP JUMP JUMPDEST PUSH0 PUSH1 0x20 DUP3 DUP5 SUB SLT ISZERO PUSH2 0x6DA JUMPI PUSH0 PUSH0 REVERT JUMPDEST POP CALLDATALOAD SWAP2 SWAP1 POP JUMP JUMPDEST PUSH1 0xC0 DUP2 ADD DUP2 DUP5 PUSH0 JUMPDEST PUSH1 0x3 DUP2 LT ISZERO PUSH2 0x711 JUMPI DUP2 MLOAD PUSH1 0x1 PUSH1 0x1 PUSH1 0xA0 SHL SUB AND DUP4 MSTORE PUSH1 0x20 SWAP3 DUP4 ADD SWAP3 SWAP1 SWAP2 ADD SWAP1 PUSH1 0x1 ADD PUSH2 0x6E9 JUMP JUMPDEST POP POP POP PUSH1 0x60 DUP3 ADD DUP4 PUSH0 JUMPDEST PUSH1 0x3 DUP2 LT ISZERO PUSH2 0x73A JUMPI DUP2 MLOAD DUP4 MSTORE PUSH1 0x20 SWAP3 DUP4 ADD SWAP3 SWAP1 SWAP2 ADD SWAP1 PUSH1 0x1 ADD PUSH2 0x71B JUMP JUMPDEST POP POP POP SWAP4 SWAP3 POP POP POP JUMP JUMPDEST PUSH0 PUSH1 0x20 DUP3 DUP5 SUB SLT ISZERO PUSH2 0x754 JUMPI PUSH0 PUSH0 REVERT JUMPDEST DUP2 CALLDATALOAD PUSH1 0x1 PUSH1 0x1 PUSH1 0xA0 SHL SUB DUP2 AND DUP2 EQ PUSH2 0x76A JUMPI PUSH0 PUSH0 REVERT JUMPDEST SWAP4 SWAP3 POP POP POP JUMP JUMPDEST PUSH4 0x4E487B71 PUSH1 0xE0 SHL PUSH0 MSTORE PUSH1 0x11 PUSH1 0x4 MSTORE PUSH1 0x24 PUSH0 REVERT JUMPDEST DUP1 DUP3 ADD DUP1 DUP3 GT ISZERO PUSH2 0x798 JUMPI PUSH2 0x798 PUSH2 0x771 JUMP JUMPDEST SWAP3 SWAP2 POP POP JUMP JUMPDEST PUSH4 0x4E487B71 PUSH1 0xE0 SHL PUSH0 MSTORE PUSH1 0x32 PUSH1 0x4 MSTORE PUSH1 0x24 PUSH0 REVERT JUMPDEST PUSH1 0xFF DUP3 DUP2 AND DUP3 DUP3 AND SUB SWAP1 DUP2 GT ISZERO PUSH2 0x798 JUMPI PUSH2 0x798 PUSH2 0x771 JUMP JUMPDEST PUSH0 PUSH1 0xFF DUP3 AND DUP1 PUSH2 0x7DD JUMPI PUSH2 0x7DD PUSH2 0x771 JUMP JUMPDEST PUSH0 NOT ADD SWAP3 SWAP2 POP POP JUMP JUMPDEST PUSH1 0xFF DUP2 DUP2 AND DUP4 DUP3 AND ADD SWAP1 DUP2 GT ISZERO PUSH2 0x798 JUMPI PUSH2 0x798 PUSH2 0x771 JUMP INVALID LOG2 PUSH5 0x6970667358 0x22 SLT KECCAK256 INVALID 0xA9 0x1F PUSH26 0x6A264E20AE5B1DC88852AE4939E2BBC0CA8A876EE1EED39D4892 SELFBALANCE 0xCC PUSH5 0x736F6C6343 STOP ADDMOD 0x1F STOP CALLER "
				},
				"gasEstimates": {
					"creation": {
						"codeDepositCost": "420200",
						"executionCost": "24687",
						"totalCost": "444887"
					},
					"external": {
						"admin()": "2390",
						"deposit()": "infinite",
						"deposits(address)": "2569",
						"getTopDepositors()": "infinite",
						"topDepositors(uint256)": "2422",
						"withdraw()": "infinite"
					},
					"internal": {
						"_updateRankings()": "infinite",
						"handleDeposit()": "infinite",
						"updateTopDepositors(address)": "infinite"
					}
				},
				"methodIdentifiers": {
					"admin()": "f851a440",
					"deposit()": "d0e30db0",
					"deposits(address)": "fc7e286d",
					"getTopDepositors()": "81454f71",
					"topDepositors(uint256)": "30861078",
					"withdraw()": "3ccfd60b"
				}
			},
			"storageLayout": {
				"storage": [
					{
						"astId": 23,
						"contract": "contracts/BigBank.sol:Bank",
						"label": "admin",
						"offset": 0,
						"slot": "0",
						"type": "t_address"
					},
					{
						"astId": 27,
						"contract": "contracts/BigBank.sol:Bank",
						"label": "deposits",
						"offset": 0,
						"slot": "1",
						"type": "t_mapping(t_address,t_uint256)"
					},
					{
						"astId": 31,
						"contract": "contracts/BigBank.sol:Bank",
						"label": "topDepositors",
						"offset": 0,
						"slot": "2",
						"type": "t_array(t_address)3_storage"
					}
				],
				"types": {
					"t_address": {
						"encoding": "inplace",
						"label": "address",
						"numberOfBytes": "20"
					},
					"t_array(t_address)3_storage": {
						"base": "t_address",
						"encoding": "inplace",
						"label": "address[3]",
						"numberOfBytes": "96"
					},
					"t_mapping(t_address,t_uint256)": {
						"encoding": "mapping",
						"key": "t_address",
						"label": "mapping(address => uint256)",
						"numberOfBytes": "32",
						"value": "t_uint256"
					},
					"t_uint256": {
						"encoding": "inplace",
						"label": "uint256",
						"numberOfBytes": "32"
					}
				}
			},
			"userdoc": {
				"kind": "user",
				"methods": {},
				"version": 1
			}
		}
	}
}