{
	"data": {
		"bytecode": {
			"linkReferences": {},
			"object": "60a0604052348015600e575f5ffd5b503360805260805161057861002a5f395f60a901526105785ff3fe608060405260043610610041575f3560e01c80633086107814610054578063d0e30db014610090578063f851a44014610098578063fc7e286d146100cb575f5ffd5b366100505761004e610104565b005b5f5ffd5b34801561005f575f5ffd5b5061007361006e366004610470565b610133565b6040516001600160a01b0390911681526020015b60405180910390f35b61004e610152565b3480156100a3575f5ffd5b506100737f000000000000000000000000000000000000000000000000000000000000000081565b3480156100d6575f5ffd5b506100f66100e5366004610487565b5f6020819052908152604090205481565b604051908152602001610087565b335f90815260208190526040812080543492906101229084906104c8565b9091555061013190503361015a565b565b60018160038110610142575f80fd5b01546001600160a01b0316905081565b610131610104565b6001600160a01b0381165f90815260208190526040812054905b600360ff821610156101c557826001600160a01b031660018260ff16600381106101a0576101a06104e1565b01546001600160a01b0316036101bd576101b86102e8565b505050565b600101610174565b505f5b600360ff821610156101b8575f60018260ff16600381106101eb576101eb6104e1565b01546001600160a01b0316905080158061021b57506001600160a01b0381165f9081526020819052604090205483115b156102df5760025b8260ff168160ff1611156102a257600161023d81836104f5565b60ff1660038110610250576102506104e1565b01546001600160a01b0316600160ff831660038110610271576102716104e1565b0180546001600160a01b0319166001600160a01b03929092169190911790558061029a8161050e565b915050610223565b508360018360ff16600381106102ba576102ba6104e1565b0180546001600160a01b0319166001600160a01b039290921691909117905550505050565b506001016101c8565b60015b600360ff8216101561046d575f60018260ff166003811061030e5761030e6104e1565b01546001600160a01b03169050806103265750610465565b6001600160a01b0381165f908152602081905260408120549061034a6001856104f5565b90505b5f600160ff831660038110610364576103646104e1565b01546001600160a01b031614806103ac5750815f5f60018460ff166003811061038f5761038f6104e1565b01546001600160a01b0316815260208101919091526040015f2054105b156104225760018160ff16600381106103c7576103c76104e1565b01546001600160a01b031660016103de8382610529565b60ff16600381106103f1576103f16104e1565b0180546001600160a01b0319166001600160a01b03929092169190911790558061041a8161050e565b91505061034d565b82600161042f8382610529565b60ff1660038110610442576104426104e1565b0180546001600160a01b0319166001600160a01b03929092169190911790555050505b6001016102eb565b50565b5f60208284031215610480575f5ffd5b5035919050565b5f60208284031215610497575f5ffd5b81356001600160a01b03811681146104ad575f5ffd5b9392505050565b634e487b7160e01b5f52601160045260245ffd5b808201808211156104db576104db6104b4565b92915050565b634e487b7160e01b5f52603260045260245ffd5b60ff82811682821603908111156104db576104db6104b4565b5f60ff821680610520576105206104b4565b5f190192915050565b60ff81811683821601908111156104db576104db6104b456fea2646970667358221220c04b7bfa12be96a533d66afec17b3af6abcabcd2ced2ad8094994b4710e7847e64736f6c634300081f0033",
			"opcodes": "PUSH1 0xA0 PUSH1 0x40 MSTORE CALLVALUE DUP1 ISZERO PUSH1 0xE JUMPI PUSH0 PUSH0 REVERT JUMPDEST POP CALLER PUSH1 0x80 MSTORE PUSH1 0x80 MLOAD PUSH2 0x578 PUSH2 0x2A PUSH0 CODECOPY PUSH0 PUSH1 0xA9 ADD MSTORE PUSH2 0x578 PUSH0 RETURN INVALID PUSH1 0x80 PUSH1 0x40 MSTORE PUSH1 0x4 CALLDATASIZE LT PUSH2 0x41 JUMPI PUSH0 CALLDATALOAD PUSH1 0xE0 SHR DUP1 PUSH4 0x30861078 EQ PUSH2 0x54 JUMPI DUP1 PUSH4 0xD0E30DB0 EQ PUSH2 0x90 JUMPI DUP1 PUSH4 0xF851A440 EQ PUSH2 0x98 JUMPI DUP1 PUSH4 0xFC7E286D EQ PUSH2 0xCB JUMPI PUSH0 PUSH0 REVERT JUMPDEST CALLDATASIZE PUSH2 0x50 JUMPI PUSH2 0x4E PUSH2 0x104 JUMP JUMPDEST STOP JUMPDEST PUSH0 PUSH0 REVERT JUMPDEST CALLVALUE DUP1 ISZERO PUSH2 0x5F JUMPI PUSH0 PUSH0 REVERT JUMPDEST POP PUSH2 0x73 PUSH2 0x6E CALLDATASIZE PUSH1 0x4 PUSH2 0x470 JUMP JUMPDEST PUSH2 0x133 JUMP JUMPDEST PUSH1 0x40 MLOAD PUSH1 0x1 PUSH1 0x1 PUSH1 0xA0 SHL SUB SWAP1 SWAP2 AND DUP2 MSTORE PUSH1 0x20 ADD JUMPDEST PUSH1 0x40 MLOAD DUP1 SWAP2 SUB SWAP1 RETURN JUMPDEST PUSH2 0x4E PUSH2 0x152 JUMP JUMPDEST CALLVALUE DUP1 ISZERO PUSH2 0xA3 JUMPI PUSH0 PUSH0 REVERT JUMPDEST POP PUSH2 0x73 PUSH32 0x0 DUP2 JUMP JUMPDEST CALLVALUE DUP1 ISZERO PUSH2 0xD6 JUMPI PUSH0 PUSH0 REVERT JUMPDEST POP PUSH2 0xF6 PUSH2 0xE5 CALLDATASIZE PUSH1 0x4 PUSH2 0x487 JUMP JUMPDEST PUSH0 PUSH1 0x20 DUP2 SWAP1 MSTORE SWAP1 DUP2 MSTORE PUSH1 0x40 SWAP1 KECCAK256 SLOAD DUP2 JUMP JUMPDEST PUSH1 0x40 MLOAD SWAP1 DUP2 MSTORE PUSH1 0x20 ADD PUSH2 0x87 JUMP JUMPDEST CALLER PUSH0 SWAP1 DUP2 MSTORE PUSH1 0x20 DUP2 SWAP1 MSTORE PUSH1 0x40 DUP2 KECCAK256 DUP1 SLOAD CALLVALUE SWAP3 SWAP1 PUSH2 0x122 SWAP1 DUP5 SWAP1 PUSH2 0x4C8 JUMP JUMPDEST SWAP1 SWAP2 SSTORE POP PUSH2 0x131 SWAP1 POP CALLER PUSH2 0x15A JUMP JUMPDEST JUMP JUMPDEST PUSH1 0x1 DUP2 PUSH1 0x3 DUP2 LT PUSH2 0x142 JUMPI PUSH0 DUP1 REVERT JUMPDEST ADD SLOAD PUSH1 0x1 PUSH1 0x1 PUSH1 0xA0 SHL SUB AND SWAP1 POP DUP2 JUMP JUMPDEST PUSH2 0x131 PUSH2 0x104 JUMP JUMPDEST PUSH1 0x1 PUSH1 0x1 PUSH1 0xA0 SHL SUB DUP2 AND PUSH0 SWAP1 DUP2 MSTORE PUSH1 0x20 DUP2 SWAP1 MSTORE PUSH1 0x40 DUP2 KECCAK256 SLOAD SWAP1 JUMPDEST PUSH1 0x3 PUSH1 0xFF DUP3 AND LT ISZERO PUSH2 0x1C5 JUMPI DUP3 PUSH1 0x1 PUSH1 0x1 PUSH1 0xA0 SHL SUB AND PUSH1 0x1 DUP3 PUSH1 0xFF AND PUSH1 0x3 DUP2 LT PUSH2 0x1A0 JUMPI PUSH2 0x1A0 PUSH2 0x4E1 JUMP JUMPDEST ADD SLOAD PUSH1 0x1 PUSH1 0x1 PUSH1 0xA0 SHL SUB AND SUB PUSH2 0x1BD JUMPI PUSH2 0x1B8 PUSH2 0x2E8 JUMP JUMPDEST POP POP POP JUMP JUMPDEST PUSH1 0x1 ADD PUSH2 0x174 JUMP JUMPDEST POP PUSH0 JUMPDEST PUSH1 0x3 PUSH1 0xFF DUP3 AND LT ISZERO PUSH2 0x1B8 JUMPI PUSH0 PUSH1 0x1 DUP3 PUSH1 0xFF AND PUSH1 0x3 DUP2 LT PUSH2 0x1EB JUMPI PUSH2 0x1EB PUSH2 0x4E1 JUMP JUMPDEST ADD SLOAD PUSH1 0x1 PUSH1 0x1 PUSH1 0xA0 SHL SUB AND SWAP1 POP DUP1 ISZERO DUP1 PUSH2 0x21B JUMPI POP PUSH1 0x1 PUSH1 0x1 PUSH1 0xA0 SHL SUB DUP2 AND PUSH0 SWAP1 DUP2 MSTORE PUSH1 0x20 DUP2 SWAP1 MSTORE PUSH1 0x40 SWAP1 KECCAK256 SLOAD DUP4 GT JUMPDEST ISZERO PUSH2 0x2DF JUMPI PUSH1 0x2 JUMPDEST DUP3 PUSH1 0xFF AND DUP2 PUSH1 0xFF AND GT ISZERO PUSH2 0x2A2 JUMPI PUSH1 0x1 PUSH2 0x23D DUP2 DUP4 PUSH2 0x4F5 JUMP JUMPDEST PUSH1 0xFF AND PUSH1 0x3 DUP2 LT PUSH2 0x250 JUMPI PUSH2 0x250 PUSH2 0x4E1 JUMP JUMPDEST ADD SLOAD PUSH1 0x1 PUSH1 0x1 PUSH1 0xA0 SHL SUB AND PUSH1 0x1 PUSH1 0xFF DUP4 AND PUSH1 0x3 DUP2 LT PUSH2 0x271 JUMPI PUSH2 0x271 PUSH2 0x4E1 JUMP JUMPDEST ADD DUP1 SLOAD PUSH1 0x1 PUSH1 0x1 PUSH1 0xA0 SHL SUB NOT AND PUSH1 0x1 PUSH1 0x1 PUSH1 0xA0 SHL SUB SWAP3 SWAP1 SWAP3 AND SWAP2 SWAP1 SWAP2 OR SWAP1 SSTORE DUP1 PUSH2 0x29A DUP2 PUSH2 0x50E JUMP JUMPDEST SWAP2 POP POP PUSH2 0x223 JUMP JUMPDEST POP DUP4 PUSH1 0x1 DUP4 PUSH1 0xFF AND PUSH1 0x3 DUP2 LT PUSH2 0x2BA JUMPI PUSH2 0x2BA PUSH2 0x4E1 JUMP JUMPDEST ADD DUP1 SLOAD PUSH1 0x1 PUSH1 0x1 PUSH1 0xA0 SHL SUB NOT AND PUSH1 0x1 PUSH1 0x1 PUSH1 0xA0 SHL SUB SWAP3 SWAP1 SWAP3 AND SWAP2 SWAP1 SWAP2 OR SWAP1 SSTORE POP POP POP POP JUMP JUMPDEST POP PUSH1 0x1 ADD PUSH2 0x1C8 JUMP JUMPDEST PUSH1 0x1 JUMPDEST PUSH1 0x3 PUSH1 0xFF DUP3 AND LT ISZERO PUSH2 0x46D JUMPI PUSH0 PUSH1 0x1 DUP3 PUSH1 0xFF AND PUSH1 0x3 DUP2 LT PUSH2 0x30E JUMPI PUSH2 0x30E PUSH2 0x4E1 JUMP JUMPDEST ADD SLOAD PUSH1 0x1 PUSH1 0x1 PUSH1 0xA0 SHL SUB AND SWAP1 POP DUP1 PUSH2 0x326 JUMPI POP PUSH2 0x465 JUMP JUMPDEST PUSH1 0x1 PUSH1 0x1 PUSH1 0xA0 SHL SUB DUP2 AND PUSH0 SWAP1 DUP2 MSTORE PUSH1 0x20 DUP2 SWAP1 MSTORE PUSH1 0x40 DUP2 KECCAK256 SLOAD SWAP1 PUSH2 0x34A PUSH1 0x1 DUP6 PUSH2 0x4F5 JUMP JUMPDEST SWAP1 POP JUMPDEST PUSH0 PUSH1 0x1 PUSH1 0xFF DUP4 AND PUSH1 0x3 DUP2 LT PUSH2 0x364 JUMPI PUSH2 0x364 PUSH2 0x4E1 JUMP JUMPDEST ADD SLOAD PUSH1 0x1 PUSH1 0x1 PUSH1 0xA0 SHL SUB AND EQ DUP1 PUSH2 0x3AC JUMPI POP DUP2 PUSH0 PUSH0 PUSH1 0x1 DUP5 PUSH1 0xFF AND PUSH1 0x3 DUP2 LT PUSH2 0x38F JUMPI PUSH2 0x38F PUSH2 0x4E1 JUMP JUMPDEST ADD SLOAD PUSH1 0x1 PUSH1 0x1 PUSH1 0xA0 SHL SUB AND DUP2 MSTORE PUSH1 0x20 DUP2 ADD SWAP2 SWAP1 SWAP2 MSTORE PUSH1 0x40 ADD PUSH0 KECCAK256 SLOAD LT JUMPDEST ISZERO PUSH2 0x422 JUMPI PUSH1 0x1 DUP2 PUSH1 0xFF AND PUSH1 0x3 DUP2 LT PUSH2 0x3C7 JUMPI PUSH2 0x3C7 PUSH2 0x4E1 JUMP JUMPDEST ADD SLOAD PUSH1 0x1 PUSH1 0x1 PUSH1 0xA0 SHL SUB AND PUSH1 0x1 PUSH2 0x3DE DUP4 DUP3 PUSH2 0x529 JUMP JUMPDEST PUSH1 0xFF AND PUSH1 0x3 DUP2 LT PUSH2 0x3F1 JUMPI PUSH2 0x3F1 PUSH2 0x4E1 JUMP JUMPDEST ADD DUP1 SLOAD PUSH1 0x1 PUSH1 0x1 PUSH1 0xA0 SHL SUB NOT AND PUSH1 0x1 PUSH1 0x1 PUSH1 0xA0 SHL SUB SWAP3 SWAP1 SWAP3 AND SWAP2 SWAP1 SWAP2 OR SWAP1 SSTORE DUP1 PUSH2 0x41A DUP2 PUSH2 0x50E JUMP JUMPDEST SWAP2 POP POP PUSH2 0x34D JUMP JUMPDEST DUP3 PUSH1 0x1 PUSH2 0x42F DUP4 DUP3 PUSH2 0x529 JUMP JUMPDEST PUSH1 0xFF AND PUSH1 0x3 DUP2 LT PUSH2 0x442 JUMPI PUSH2 0x442 PUSH2 0x4E1 JUMP JUMPDEST ADD DUP1 SLOAD PUSH1 0x1 PUSH1 0x1 PUSH1 0xA0 SHL SUB NOT AND PUSH1 0x1 PUSH1 0x1 PUSH1 0xA0 SHL SUB SWAP3 SWAP1 SWAP3 AND SWAP2 SWAP1 SWAP2 OR SWAP1 SSTORE POP POP POP JUMPDEST PUSH1 0x1 ADD PUSH2 0x2EB JUMP JUMPDEST POP JUMP JUMPDEST PUSH0 PUSH1 0x20 DUP3 DUP5 SUB SLT ISZERO PUSH2 0x480 JUMPI PUSH0 PUSH0 REVERT JUMPDEST POP CALLDATALOAD SWAP2 SWAP1 POP JUMP JUMPDEST PUSH0 PUSH1 0x20 DUP3 DUP5 SUB SLT ISZERO PUSH2 0x497 JUMPI PUSH0 PUSH0 REVERT JUMPDEST DUP2 CALLDATALOAD PUSH1 0x1 PUSH1 0x1 PUSH1 0xA0 SHL SUB DUP2 AND DUP2 EQ PUSH2 0x4AD JUMPI PUSH0 PUSH0 REVERT JUMPDEST SWAP4 SWAP3 POP POP POP JUMP JUMPDEST PUSH4 0x4E487B71 PUSH1 0xE0 SHL PUSH0 MSTORE PUSH1 0x11 PUSH1 0x4 MSTORE PUSH1 0x24 PUSH0 REVERT JUMPDEST DUP1 DUP3 ADD DUP1 DUP3 GT ISZERO PUSH2 0x4DB JUMPI PUSH2 0x4DB PUSH2 0x4B4 JUMP JUMPDEST SWAP3 SWAP2 POP POP JUMP JUMPDEST PUSH4 0x4E487B71 PUSH1 0xE0 SHL PUSH0 MSTORE PUSH1 0x32 PUSH1 0x4 MSTORE PUSH1 0x24 PUSH0 REVERT JUMPDEST PUSH1 0xFF DUP3 DUP2 AND DUP3 DUP3 AND SUB SWAP1 DUP2 GT ISZERO PUSH2 0x4DB JUMPI PUSH2 0x4DB PUSH2 0x4B4 JUMP JUMPDEST PUSH0 PUSH1 0xFF DUP3 AND DUP1 PUSH2 0x520 JUMPI PUSH2 0x520 PUSH2 0x4B4 JUMP JUMPDEST PUSH0 NOT ADD SWAP3 SWAP2 POP POP JUMP JUMPDEST PUSH1 0xFF DUP2 DUP2 AND DUP4 DUP3 AND ADD SWAP1 DUP2 GT ISZERO PUSH2 0x4DB JUMPI PUSH2 0x4DB PUSH2 0x4B4 JUMP INVALID LOG2 PUSH5 0x6970667358 0x22 SLT KECCAK256 0xC0 0x4B PUSH28 0xFA12BE96A533D66AFEC17B3AF6ABCABCD2CED2AD8094994B4710E784 PUSH31 0x64736F6C634300081F00330000000000000000000000000000000000000000 "
		},
		"gasEstimates": {
			"creation": {
				"codeDepositCost": "280000",
				"executionCost": "infinite",
				"totalCost": "infinite"
			},
			"external": {
				"admin()": "infinite",
				"deposit()": "infinite",
				"deposits(address)": "2528",
				"topDepositors(uint256)": "2422"
			},
			"internal": {
				"_updateRankings()": "infinite",
				"handleDeposit()": "infinite",
				"updateTopDepositors(address)": "infinite"
			}
		},
		"methodIdentifiers": {
			"admin()": "f851a440",
			"deposit()": "d0e30db0",
			"deposits(address)": "fc7e286d",
			"topDepositors(uint256)": "30861078"
		}
	},
	"abi": [
		{
			"inputs": [],
			"stateMutability": "nonpayable",
			"type": "constructor"
		},
		{
			"inputs": [],
			"name": "admin",
			"outputs": [
				{
					"internalType": "address",
					"name": "",
					"type": "address"
				}
			],
			"stateMutability": "view",
			"type": "function"
		},
		{
			"inputs": [],
			"name": "deposit",
			"outputs": [],
			"stateMutability": "payable",
			"type": "function"
		},
		{
			"inputs": [
				{
					"internalType": "address",
					"name": "",
					"type": "address"
				}
			],
			"name": "deposits",
			"outputs": [
				{
					"internalType": "uint256",
					"name": "",
					"type": "uint256"
				}
			],
			"stateMutability": "view",
			"type": "function"
		},
		{
			"inputs": [
				{
					"internalType": "uint256",
					"name": "",
					"type": "uint256"
				}
			],
			"name": "topDepositors",
			"outputs": [
				{
					"internalType": "address",
					"name": "",
					"type": "address"
				}
			],
			"stateMutability": "view",
			"type": "function"
		},
		{
			"stateMutability": "payable",
			"type": "receive"
		}
	]
}