{
	"data": {
		"bytecode": {
			"linkReferences": {},
			"object": "60a0604052348015600e575f5ffd5b505f80546001600160a01b03191633908117909155608052608051610a1d61003e5f395f6101410152610a1d5ff3fe60806040526004361061007c575f3560e01c80638f2839701161004c5780638f28397014610163578063d0e30db014610182578063f851a4401461018a578063fc7e286d146101a8575f5ffd5b806330861078146100be5780633ccfd60b146100fa57806381454f711461010e5780638da5cb5b14610130575f5ffd5b366100ba5766038d7ea4c6800034116100b05760405162461bcd60e51b81526004016100a79061086c565b60405180910390fd5b6100b86101e1565b005b5f5ffd5b3480156100c9575f5ffd5b506100dd6100d83660046108b2565b610210565b6040516001600160a01b0390911681526020015b60405180910390f35b348015610105575f5ffd5b506100b861022f565b348015610119575f5ffd5b50610122610365565b6040516100f19291906108c9565b34801561013b575f5ffd5b506100dd7f000000000000000000000000000000000000000000000000000000000000000081565b34801561016e575f5ffd5b506100b861017d36600461092c565b610429565b6100b8610503565b348015610195575f5ffd5b505f546100dd906001600160a01b031681565b3480156101b3575f5ffd5b506101d36101c236600461092c565b60016020525f908152604090205481565b6040519081526020016100f1565b335f90815260016020526040812080543492906101ff90849061096d565b9091555061020e905033610532565b565b6002816003811061021f575f80fd5b01546001600160a01b0316905081565b5f546001600160a01b031633146102885760405162461bcd60e51b815260206004820152601760248201527f6f6e6c792061646d696e2063616e20776974686472617700000000000000000060448201526064016100a7565b47806102cf5760405162461bcd60e51b81526020600482015260166024820152756e6f2062616c616e636520746f20776974686472617760501b60448201526064016100a7565b5f80546040516001600160a01b039091169083908381818185875af1925050503d805f8114610319576040519150601f19603f3d011682016040523d82523d5f602084013e61031e565b606091505b50509050806103615760405162461bcd60e51b815260206004820152600f60248201526e1dda5d1a191c985dc819985a5b1959608a1b60448201526064016100a7565b5050565b61036d61084e565b61037561084e565b61037d61084e565b5f5b600360ff821610156103e15760015f60028360ff16600381106103a4576103a4610986565b01546001600160a01b0316815260208101919091526040015f20548260ff8316600381106103d4576103d4610986565b602002015260010161037f565b50604080516060810191829052600291839190839060039082845b81546001600160a01b031681526001909101906020018083116103fc575050505050915092509250509091565b5f546001600160a01b031633146104825760405162461bcd60e51b815260206004820152601b60248201527f4f6e6c792061646d696e2063616e206368616e67652061646d696e000000000060448201526064016100a7565b6001600160a01b0381166104e25760405162461bcd60e51b815260206004820152602160248201527f4e65772061646d696e2063616e206e6f74206265207a65726f206164647265736044820152607360f81b60648201526084016100a7565b5f80546001600160a01b0319166001600160a01b0392909216919091179055565b66038d7ea4c6800034101561052a5760405162461bcd60e51b81526004016100a79061086c565b61020e6101e1565b6001600160a01b0381165f90815260016020526040812054905b600360ff8216101561059d57826001600160a01b031660028260ff166003811061057857610578610986565b01546001600160a01b031603610595576105906106c1565b505050565b60010161054c565b505f5b600360ff82161015610590575f60028260ff16600381106105c3576105c3610986565b01546001600160a01b031690508015806105f357506001600160a01b0381165f9081526001602052604090205483115b156106b85760025b8260ff168160ff16111561067b57600261061660018361099a565b60ff166003811061062957610629610986565b01546001600160a01b0316600260ff83166003811061064a5761064a610986565b0180546001600160a01b0319166001600160a01b039290921691909117905580610673816109b3565b9150506105fb565b508360028360ff166003811061069357610693610986565b0180546001600160a01b0319166001600160a01b039290921691909117905550505050565b506001016105a0565b60015b600360ff8216101561084b575f60028260ff16600381106106e7576106e7610986565b01546001600160a01b03169050806106ff5750610843565b6001600160a01b0381165f9081526001602081905260408220549190610725908561099a565b90505b5f600260ff83166003811061073f5761073f610986565b01546001600160a01b0316148061078857508160015f60028460ff166003811061076b5761076b610986565b01546001600160a01b0316815260208101919091526040015f2054105b156107ff5760028160ff16600381106107a3576107a3610986565b01546001600160a01b031660026107bb8360016109ce565b60ff16600381106107ce576107ce610986565b0180546001600160a01b0319166001600160a01b0392909216919091179055806107f7816109b3565b915050610728565b82600261080d8360016109ce565b60ff166003811061082057610820610986565b0180546001600160a01b0319166001600160a01b03929092169190911790555050505b6001016106c4565b50565b60405180606001604052806003906020820280368337509192915050565b60208082526026908201527f6465706f73697420616d6f756e74206d7573742065786365656420302e3030316040820152651032ba3432b960d11b606082015260800190565b5f602082840312156108c2575f5ffd5b5035919050565b60c0810181845f5b60038110156108f95781516001600160a01b03168352602092830192909101906001016108d1565b50505060608201835f5b6003811015610922578151835260209283019290910190600101610903565b5050509392505050565b5f6020828403121561093c575f5ffd5b81356001600160a01b0381168114610952575f5ffd5b9392505050565b634e487b7160e01b5f52601160045260245ffd5b8082018082111561098057610980610959565b92915050565b634e487b7160e01b5f52603260045260245ffd5b60ff828116828216039081111561098057610980610959565b5f60ff8216806109c5576109c5610959565b5f190192915050565b60ff81811683821601908111156109805761098061095956fea264697066735822122097d945f892e9430bd69fbc86eba2b29ab3b31a7e5d615413b7a70aad0bb47bbc64736f6c634300081f0033",
			"opcodes": "PUSH1 0xA0 PUSH1 0x40 MSTORE CALLVALUE DUP1 ISZERO PUSH1 0xE JUMPI PUSH0 PUSH0 REVERT JUMPDEST POP PUSH0 DUP1 SLOAD PUSH1 0x1 PUSH1 0x1 PUSH1 0xA0 SHL SUB NOT AND CALLER SWAP1 DUP2 OR SWAP1 SWAP2 SSTORE PUSH1 0x80 MSTORE PUSH1 0x80 MLOAD PUSH2 0xA1D PUSH2 0x3E PUSH0 CODECOPY PUSH0 PUSH2 0x141 ADD MSTORE PUSH2 0xA1D PUSH0 RETURN INVALID PUSH1 0x80 PUSH1 0x40 MSTORE PUSH1 0x4 CALLDATASIZE LT PUSH2 0x7C JUMPI PUSH0 CALLDATALOAD PUSH1 0xE0 SHR DUP1 PUSH4 0x8F283970 GT PUSH2 0x4C JUMPI DUP1 PUSH4 0x8F283970 EQ PUSH2 0x163 JUMPI DUP1 PUSH4 0xD0E30DB0 EQ PUSH2 0x182 JUMPI DUP1 PUSH4 0xF851A440 EQ PUSH2 0x18A JUMPI DUP1 PUSH4 0xFC7E286D EQ PUSH2 0x1A8 JUMPI PUSH0 PUSH0 REVERT JUMPDEST DUP1 PUSH4 0x30861078 EQ PUSH2 0xBE JUMPI DUP1 PUSH4 0x3CCFD60B EQ PUSH2 0xFA JUMPI DUP1 PUSH4 0x81454F71 EQ PUSH2 0x10E JUMPI DUP1 PUSH4 0x8DA5CB5B EQ PUSH2 0x130 JUMPI PUSH0 PUSH0 REVERT JUMPDEST CALLDATASIZE PUSH2 0xBA JUMPI PUSH7 0x38D7EA4C68000 CALLVALUE GT PUSH2 0xB0 JUMPI PUSH1 0x40 MLOAD PUSH3 0x461BCD PUSH1 0xE5 SHL DUP2 MSTORE PUSH1 0x4 ADD PUSH2 0xA7 SWAP1 PUSH2 0x86C JUMP JUMPDEST PUSH1 0x40 MLOAD DUP1 SWAP2 SUB SWAP1 REVERT JUMPDEST PUSH2 0xB8 PUSH2 0x1E1 JUMP JUMPDEST STOP JUMPDEST PUSH0 PUSH0 REVERT JUMPDEST CALLVALUE DUP1 ISZERO PUSH2 0xC9 JUMPI PUSH0 PUSH0 REVERT JUMPDEST POP PUSH2 0xDD PUSH2 0xD8 CALLDATASIZE PUSH1 0x4 PUSH2 0x8B2 JUMP JUMPDEST PUSH2 0x210 JUMP JUMPDEST PUSH1 0x40 MLOAD PUSH1 0x1 PUSH1 0x1 PUSH1 0xA0 SHL SUB SWAP1 SWAP2 AND DUP2 MSTORE PUSH1 0x20 ADD JUMPDEST PUSH1 0x40 MLOAD DUP1 SWAP2 SUB SWAP1 RETURN JUMPDEST CALLVALUE DUP1 ISZERO PUSH2 0x105 JUMPI PUSH0 PUSH0 REVERT JUMPDEST POP PUSH2 0xB8 PUSH2 0x22F JUMP JUMPDEST CALLVALUE DUP1 ISZERO PUSH2 0x119 JUMPI PUSH0 PUSH0 REVERT JUMPDEST POP PUSH2 0x122 PUSH2 0x365 JUMP JUMPDEST PUSH1 0x40 MLOAD PUSH2 0xF1 SWAP3 SWAP2 SWAP1 PUSH2 0x8C9 JUMP JUMPDEST CALLVALUE DUP1 ISZERO PUSH2 0x13B JUMPI PUSH0 PUSH0 REVERT JUMPDEST POP PUSH2 0xDD PUSH32 0x0 DUP2 JUMP JUMPDEST CALLVALUE DUP1 ISZERO PUSH2 0x16E JUMPI PUSH0 PUSH0 REVERT JUMPDEST POP PUSH2 0xB8 PUSH2 0x17D CALLDATASIZE PUSH1 0x4 PUSH2 0x92C JUMP JUMPDEST PUSH2 0x429 JUMP JUMPDEST PUSH2 0xB8 PUSH2 0x503 JUMP JUMPDEST CALLVALUE DUP1 ISZERO PUSH2 0x195 JUMPI PUSH0 PUSH0 REVERT JUMPDEST POP PUSH0 SLOAD PUSH2 0xDD SWAP1 PUSH1 0x1 PUSH1 0x1 PUSH1 0xA0 SHL SUB AND DUP2 JUMP JUMPDEST CALLVALUE DUP1 ISZERO PUSH2 0x1B3 JUMPI PUSH0 PUSH0 REVERT JUMPDEST POP PUSH2 0x1D3 PUSH2 0x1C2 CALLDATASIZE PUSH1 0x4 PUSH2 0x92C JUMP JUMPDEST PUSH1 0x1 PUSH1 0x20 MSTORE PUSH0 SWAP1 DUP2 MSTORE PUSH1 0x40 SWAP1 KECCAK256 SLOAD DUP2 JUMP JUMPDEST PUSH1 0x40 MLOAD SWAP1 DUP2 MSTORE PUSH1 0x20 ADD PUSH2 0xF1 JUMP JUMPDEST CALLER PUSH0 SWAP1 DUP2 MSTORE PUSH1 0x1 PUSH1 0x20 MSTORE PUSH1 0x40 DUP2 KECCAK256 DUP1 SLOAD CALLVALUE SWAP3 SWAP1 PUSH2 0x1FF SWAP1 DUP5 SWAP1 PUSH2 0x96D JUMP JUMPDEST SWAP1 SWAP2 SSTORE POP PUSH2 0x20E SWAP1 POP CALLER PUSH2 0x532 JUMP JUMPDEST JUMP JUMPDEST PUSH1 0x2 DUP2 PUSH1 0x3 DUP2 LT PUSH2 0x21F JUMPI PUSH0 DUP1 REVERT JUMPDEST ADD SLOAD PUSH1 0x1 PUSH1 0x1 PUSH1 0xA0 SHL SUB AND SWAP1 POP DUP2 JUMP JUMPDEST PUSH0 SLOAD PUSH1 0x1 PUSH1 0x1 PUSH1 0xA0 SHL SUB AND CALLER EQ PUSH2 0x288 JUMPI PUSH1 0x40 MLOAD PUSH3 0x461BCD PUSH1 0xE5 SHL DUP2 MSTORE PUSH1 0x20 PUSH1 0x4 DUP3 ADD MSTORE PUSH1 0x17 PUSH1 0x24 DUP3 ADD MSTORE PUSH32 0x6F6E6C792061646D696E2063616E207769746864726177000000000000000000 PUSH1 0x44 DUP3 ADD MSTORE PUSH1 0x64 ADD PUSH2 0xA7 JUMP JUMPDEST SELFBALANCE DUP1 PUSH2 0x2CF JUMPI PUSH1 0x40 MLOAD PUSH3 0x461BCD PUSH1 0xE5 SHL DUP2 MSTORE PUSH1 0x20 PUSH1 0x4 DUP3 ADD MSTORE PUSH1 0x16 PUSH1 0x24 DUP3 ADD MSTORE PUSH22 0x6E6F2062616C616E636520746F207769746864726177 PUSH1 0x50 SHL PUSH1 0x44 DUP3 ADD MSTORE PUSH1 0x64 ADD PUSH2 0xA7 JUMP JUMPDEST PUSH0 DUP1 SLOAD PUSH1 0x40 MLOAD PUSH1 0x1 PUSH1 0x1 PUSH1 0xA0 SHL SUB SWAP1 SWAP2 AND SWAP1 DUP4 SWAP1 DUP4 DUP2 DUP2 DUP2 DUP6 DUP8 GAS CALL SWAP3 POP POP POP RETURNDATASIZE DUP1 PUSH0 DUP2 EQ PUSH2 0x319 JUMPI PUSH1 0x40 MLOAD SWAP2 POP PUSH1 0x1F NOT PUSH1 0x3F RETURNDATASIZE ADD AND DUP3 ADD PUSH1 0x40 MSTORE RETURNDATASIZE DUP3 MSTORE RETURNDATASIZE PUSH0 PUSH1 0x20 DUP5 ADD RETURNDATACOPY PUSH2 0x31E JUMP JUMPDEST PUSH1 0x60 SWAP2 POP JUMPDEST POP POP SWAP1 POP DUP1 PUSH2 0x361 JUMPI PUSH1 0x40 MLOAD PUSH3 0x461BCD PUSH1 0xE5 SHL DUP2 MSTORE PUSH1 0x20 PUSH1 0x4 DUP3 ADD MSTORE PUSH1 0xF PUSH1 0x24 DUP3 ADD MSTORE PUSH15 0x1DDA5D1A191C985DC819985A5B1959 PUSH1 0x8A SHL PUSH1 0x44 DUP3 ADD MSTORE PUSH1 0x64 ADD PUSH2 0xA7 JUMP JUMPDEST POP POP JUMP JUMPDEST PUSH2 0x36D PUSH2 0x84E JUMP JUMPDEST PUSH2 0x375 PUSH2 0x84E JUMP JUMPDEST PUSH2 0x37D PUSH2 0x84E JUMP JUMPDEST PUSH0 JUMPDEST PUSH1 0x3 PUSH1 0xFF DUP3 AND LT ISZERO PUSH2 0x3E1 JUMPI PUSH1 0x1 PUSH0 PUSH1 0x2 DUP4 PUSH1 0xFF AND PUSH1 0x3 DUP2 LT PUSH2 0x3A4 JUMPI PUSH2 0x3A4 PUSH2 0x986 JUMP JUMPDEST ADD SLOAD PUSH1 0x1 PUSH1 0x1 PUSH1 0xA0 SHL SUB AND DUP2 MSTORE PUSH1 0x20 DUP2 ADD SWAP2 SWAP1 SWAP2 MSTORE PUSH1 0x40 ADD PUSH0 KECCAK256 SLOAD DUP3 PUSH1 0xFF DUP4 AND PUSH1 0x3 DUP2 LT PUSH2 0x3D4 JUMPI PUSH2 0x3D4 PUSH2 0x986 JUMP JUMPDEST PUSH1 0x20 MUL ADD MSTORE PUSH1 0x1 ADD PUSH2 0x37F JUMP JUMPDEST POP PUSH1 0x40 DUP1 MLOAD PUSH1 0x60 DUP2 ADD SWAP2 DUP3 SWAP1 MSTORE PUSH1 0x2 SWAP2 DUP4 SWAP2 SWAP1 DUP4 SWAP1 PUSH1 0x3 SWAP1 DUP3 DUP5 JUMPDEST DUP2 SLOAD PUSH1 0x1 PUSH1 0x1 PUSH1 0xA0 SHL SUB AND DUP2 MSTORE PUSH1 0x1 SWAP1 SWAP2 ADD SWAP1 PUSH1 0x20 ADD DUP1 DUP4 GT PUSH2 0x3FC JUMPI POP POP POP POP POP SWAP2 POP SWAP3 POP SWAP3 POP POP SWAP1 SWAP2 JUMP JUMPDEST PUSH0 SLOAD PUSH1 0x1 PUSH1 0x1 PUSH1 0xA0 SHL SUB AND CALLER EQ PUSH2 0x482 JUMPI PUSH1 0x40 MLOAD PUSH3 0x461BCD PUSH1 0xE5 SHL DUP2 MSTORE PUSH1 0x20 PUSH1 0x4 DUP3 ADD MSTORE PUSH1 0x1B PUSH1 0x24 DUP3 ADD MSTORE PUSH32 0x4F6E6C792061646D696E2063616E206368616E67652061646D696E0000000000 PUSH1 0x44 DUP3 ADD MSTORE PUSH1 0x64 ADD PUSH2 0xA7 JUMP JUMPDEST PUSH1 0x1 PUSH1 0x1 PUSH1 0xA0 SHL SUB DUP2 AND PUSH2 0x4E2 JUMPI PUSH1 0x40 MLOAD PUSH3 0x461BCD PUSH1 0xE5 SHL DUP2 MSTORE PUSH1 0x20 PUSH1 0x4 DUP3 ADD MSTORE PUSH1 0x21 PUSH1 0x24 DUP3 ADD MSTORE PUSH32 0x4E65772061646D696E2063616E206E6F74206265207A65726F20616464726573 PUSH1 0x44 DUP3 ADD MSTORE PUSH1 0x73 PUSH1 0xF8 SHL PUSH1 0x64 DUP3 ADD MSTORE PUSH1 0x84 ADD PUSH2 0xA7 JUMP JUMPDEST PUSH0 DUP1 SLOAD PUSH1 0x1 PUSH1 0x1 PUSH1 0xA0 SHL SUB NOT AND PUSH1 0x1 PUSH1 0x1 PUSH1 0xA0 SHL SUB SWAP3 SWAP1 SWAP3 AND SWAP2 SWAP1 SWAP2 OR SWAP1 SSTORE JUMP JUMPDEST PUSH7 0x38D7EA4C68000 CALLVALUE LT ISZERO PUSH2 0x52A JUMPI PUSH1 0x40 MLOAD PUSH3 0x461BCD PUSH1 0xE5 SHL DUP2 MSTORE PUSH1 0x4 ADD PUSH2 0xA7 SWAP1 PUSH2 0x86C JUMP JUMPDEST PUSH2 0x20E PUSH2 0x1E1 JUMP JUMPDEST PUSH1 0x1 PUSH1 0x1 PUSH1 0xA0 SHL SUB DUP2 AND PUSH0 SWAP1 DUP2 MSTORE PUSH1 0x1 PUSH1 0x20 MSTORE PUSH1 0x40 DUP2 KECCAK256 SLOAD SWAP1 JUMPDEST PUSH1 0x3 PUSH1 0xFF DUP3 AND LT ISZERO PUSH2 0x59D JUMPI DUP3 PUSH1 0x1 PUSH1 0x1 PUSH1 0xA0 SHL SUB AND PUSH1 0x2 DUP3 PUSH1 0xFF AND PUSH1 0x3 DUP2 LT PUSH2 0x578 JUMPI PUSH2 0x578 PUSH2 0x986 JUMP JUMPDEST ADD SLOAD PUSH1 0x1 PUSH1 0x1 PUSH1 0xA0 SHL SUB AND SUB PUSH2 0x595 JUMPI PUSH2 0x590 PUSH2 0x6C1 JUMP JUMPDEST POP POP POP JUMP JUMPDEST PUSH1 0x1 ADD PUSH2 0x54C JUMP JUMPDEST POP PUSH0 JUMPDEST PUSH1 0x3 PUSH1 0xFF DUP3 AND LT ISZERO PUSH2 0x590 JUMPI PUSH0 PUSH1 0x2 DUP3 PUSH1 0xFF AND PUSH1 0x3 DUP2 LT PUSH2 0x5C3 JUMPI PUSH2 0x5C3 PUSH2 0x986 JUMP JUMPDEST ADD SLOAD PUSH1 0x1 PUSH1 0x1 PUSH1 0xA0 SHL SUB AND SWAP1 POP DUP1 ISZERO DUP1 PUSH2 0x5F3 JUMPI POP PUSH1 0x1 PUSH1 0x1 PUSH1 0xA0 SHL SUB DUP2 AND PUSH0 SWAP1 DUP2 MSTORE PUSH1 0x1 PUSH1 0x20 MSTORE PUSH1 0x40 SWAP1 KECCAK256 SLOAD DUP4 GT JUMPDEST ISZERO PUSH2 0x6B8 JUMPI PUSH1 0x2 JUMPDEST DUP3 PUSH1 0xFF AND DUP2 PUSH1 0xFF AND GT ISZERO PUSH2 0x67B JUMPI PUSH1 0x2 PUSH2 0x616 PUSH1 0x1 DUP4 PUSH2 0x99A JUMP JUMPDEST PUSH1 0xFF AND PUSH1 0x3 DUP2 LT PUSH2 0x629 JUMPI PUSH2 0x629 PUSH2 0x986 JUMP JUMPDEST ADD SLOAD PUSH1 0x1 PUSH1 0x1 PUSH1 0xA0 SHL SUB AND PUSH1 0x2 PUSH1 0xFF DUP4 AND PUSH1 0x3 DUP2 LT PUSH2 0x64A JUMPI PUSH2 0x64A PUSH2 0x986 JUMP JUMPDEST ADD DUP1 SLOAD PUSH1 0x1 PUSH1 0x1 PUSH1 0xA0 SHL SUB NOT AND PUSH1 0x1 PUSH1 0x1 PUSH1 0xA0 SHL SUB SWAP3 SWAP1 SWAP3 AND SWAP2 SWAP1 SWAP2 OR SWAP1 SSTORE DUP1 PUSH2 0x673 DUP2 PUSH2 0x9B3 JUMP JUMPDEST SWAP2 POP POP PUSH2 0x5FB JUMP JUMPDEST POP DUP4 PUSH1 0x2 DUP4 PUSH1 0xFF AND PUSH1 0x3 DUP2 LT PUSH2 0x693 JUMPI PUSH2 0x693 PUSH2 0x986 JUMP JUMPDEST ADD DUP1 SLOAD PUSH1 0x1 PUSH1 0x1 PUSH1 0xA0 SHL SUB NOT AND PUSH1 0x1 PUSH1 0x1 PUSH1 0xA0 SHL SUB SWAP3 SWAP1 SWAP3 AND SWAP2 SWAP1 SWAP2 OR SWAP1 SSTORE POP POP POP POP JUMP JUMPDEST POP PUSH1 0x1 ADD PUSH2 0x5A0 JUMP JUMPDEST PUSH1 0x1 JUMPDEST PUSH1 0x3 PUSH1 0xFF DUP3 AND LT ISZERO PUSH2 0x84B JUMPI PUSH0 PUSH1 0x2 DUP3 PUSH1 0xFF AND PUSH1 0x3 DUP2 LT PUSH2 0x6E7 JUMPI PUSH2 0x6E7 PUSH2 0x986 JUMP JUMPDEST ADD SLOAD PUSH1 0x1 PUSH1 0x1 PUSH1 0xA0 SHL SUB AND SWAP1 POP DUP1 PUSH2 0x6FF JUMPI POP PUSH2 0x843 JUMP JUMPDEST PUSH1 0x1 PUSH1 0x1 PUSH1 0xA0 SHL SUB DUP2 AND PUSH0 SWAP1 DUP2 MSTORE PUSH1 0x1 PUSH1 0x20 DUP2 SWAP1 MSTORE PUSH1 0x40 DUP3 KECCAK256 SLOAD SWAP2 SWAP1 PUSH2 0x725 SWAP1 DUP6 PUSH2 0x99A JUMP JUMPDEST SWAP1 POP JUMPDEST PUSH0 PUSH1 0x2 PUSH1 0xFF DUP4 AND PUSH1 0x3 DUP2 LT PUSH2 0x73F JUMPI PUSH2 0x73F PUSH2 0x986 JUMP JUMPDEST ADD SLOAD PUSH1 0x1 PUSH1 0x1 PUSH1 0xA0 SHL SUB AND EQ DUP1 PUSH2 0x788 JUMPI POP DUP2 PUSH1 0x1 PUSH0 PUSH1 0x2 DUP5 PUSH1 0xFF AND PUSH1 0x3 DUP2 LT PUSH2 0x76B JUMPI PUSH2 0x76B PUSH2 0x986 JUMP JUMPDEST ADD SLOAD PUSH1 0x1 PUSH1 0x1 PUSH1 0xA0 SHL SUB AND DUP2 MSTORE PUSH1 0x20 DUP2 ADD SWAP2 SWAP1 SWAP2 MSTORE PUSH1 0x40 ADD PUSH0 KECCAK256 SLOAD LT JUMPDEST ISZERO PUSH2 0x7FF JUMPI PUSH1 0x2 DUP2 PUSH1 0xFF AND PUSH1 0x3 DUP2 LT PUSH2 0x7A3 JUMPI PUSH2 0x7A3 PUSH2 0x986 JUMP JUMPDEST ADD SLOAD PUSH1 0x1 PUSH1 0x1 PUSH1 0xA0 SHL SUB AND PUSH1 0x2 PUSH2 0x7BB DUP4 PUSH1 0x1 PUSH2 0x9CE JUMP JUMPDEST PUSH1 0xFF AND PUSH1 0x3 DUP2 LT PUSH2 0x7CE JUMPI PUSH2 0x7CE PUSH2 0x986 JUMP JUMPDEST ADD DUP1 SLOAD PUSH1 0x1 PUSH1 0x1 PUSH1 0xA0 SHL SUB NOT AND PUSH1 0x1 PUSH1 0x1 PUSH1 0xA0 SHL SUB SWAP3 SWAP1 SWAP3 AND SWAP2 SWAP1 SWAP2 OR SWAP1 SSTORE DUP1 PUSH2 0x7F7 DUP2 PUSH2 0x9B3 JUMP JUMPDEST SWAP2 POP POP PUSH2 0x728 JUMP JUMPDEST DUP3 PUSH1 0x2 PUSH2 0x80D DUP4 PUSH1 0x1 PUSH2 0x9CE JUMP JUMPDEST PUSH1 0xFF AND PUSH1 0x3 DUP2 LT PUSH2 0x820 JUMPI PUSH2 0x820 PUSH2 0x986 JUMP JUMPDEST ADD DUP1 SLOAD PUSH1 0x1 PUSH1 0x1 PUSH1 0xA0 SHL SUB NOT AND PUSH1 0x1 PUSH1 0x1 PUSH1 0xA0 SHL SUB SWAP3 SWAP1 SWAP3 AND SWAP2 SWAP1 SWAP2 OR SWAP1 SSTORE POP POP POP JUMPDEST PUSH1 0x1 ADD PUSH2 0x6C4 JUMP JUMPDEST POP JUMP JUMPDEST PUSH1 0x40 MLOAD DUP1 PUSH1 0x60 ADD PUSH1 0x40 MSTORE DUP1 PUSH1 0x3 SWAP1 PUSH1 0x20 DUP3 MUL DUP1 CALLDATASIZE DUP4 CALLDATACOPY POP SWAP2 SWAP3 SWAP2 POP POP JUMP JUMPDEST PUSH1 0x20 DUP1 DUP3 MSTORE PUSH1 0x26 SWAP1 DUP3 ADD MSTORE PUSH32 0x6465706F73697420616D6F756E74206D7573742065786365656420302E303031 PUSH1 0x40 DUP3 ADD MSTORE PUSH6 0x1032BA3432B9 PUSH1 0xD1 SHL PUSH1 0x60 DUP3 ADD MSTORE PUSH1 0x80 ADD SWAP1 JUMP JUMPDEST PUSH0 PUSH1 0x20 DUP3 DUP5 SUB SLT ISZERO PUSH2 0x8C2 JUMPI PUSH0 PUSH0 REVERT JUMPDEST POP CALLDATALOAD SWAP2 SWAP1 POP JUMP JUMPDEST PUSH1 0xC0 DUP2 ADD DUP2 DUP5 PUSH0 JUMPDEST PUSH1 0x3 DUP2 LT ISZERO PUSH2 0x8F9 JUMPI DUP2 MLOAD PUSH1 0x1 PUSH1 0x1 PUSH1 0xA0 SHL SUB AND DUP4 MSTORE PUSH1 0x20 SWAP3 DUP4 ADD SWAP3 SWAP1 SWAP2 ADD SWAP1 PUSH1 0x1 ADD PUSH2 0x8D1 JUMP JUMPDEST POP POP POP PUSH1 0x60 DUP3 ADD DUP4 PUSH0 JUMPDEST PUSH1 0x3 DUP2 LT ISZERO PUSH2 0x922 JUMPI DUP2 MLOAD DUP4 MSTORE PUSH1 0x20 SWAP3 DUP4 ADD SWAP3 SWAP1 SWAP2 ADD SWAP1 PUSH1 0x1 ADD PUSH2 0x903 JUMP JUMPDEST POP POP POP SWAP4 SWAP3 POP POP POP JUMP JUMPDEST PUSH0 PUSH1 0x20 DUP3 DUP5 SUB SLT ISZERO PUSH2 0x93C JUMPI PUSH0 PUSH0 REVERT JUMPDEST DUP2 CALLDATALOAD PUSH1 0x1 PUSH1 0x1 PUSH1 0xA0 SHL SUB DUP2 AND DUP2 EQ PUSH2 0x952 JUMPI PUSH0 PUSH0 REVERT JUMPDEST SWAP4 SWAP3 POP POP POP JUMP JUMPDEST PUSH4 0x4E487B71 PUSH1 0xE0 SHL PUSH0 MSTORE PUSH1 0x11 PUSH1 0x4 MSTORE PUSH1 0x24 PUSH0 REVERT JUMPDEST DUP1 DUP3 ADD DUP1 DUP3 GT ISZERO PUSH2 0x980 JUMPI PUSH2 0x980 PUSH2 0x959 JUMP JUMPDEST SWAP3 SWAP2 POP POP JUMP JUMPDEST PUSH4 0x4E487B71 PUSH1 0xE0 SHL PUSH0 MSTORE PUSH1 0x32 PUSH1 0x4 MSTORE PUSH1 0x24 PUSH0 REVERT JUMPDEST PUSH1 0xFF DUP3 DUP2 AND DUP3 DUP3 AND SUB SWAP1 DUP2 GT ISZERO PUSH2 0x980 JUMPI PUSH2 0x980 PUSH2 0x959 JUMP JUMPDEST PUSH0 PUSH1 0xFF DUP3 AND DUP1 PUSH2 0x9C5 JUMPI PUSH2 0x9C5 PUSH2 0x959 JUMP JUMPDEST PUSH0 NOT ADD SWAP3 SWAP2 POP POP JUMP JUMPDEST PUSH1 0xFF DUP2 DUP2 AND DUP4 DUP3 AND ADD SWAP1 DUP2 GT ISZERO PUSH2 0x980 JUMPI PUSH2 0x980 PUSH2 0x959 JUMP INVALID LOG2 PUSH5 0x6970667358 0x22 SLT KECCAK256 SWAP8 0xD9 GASLIMIT EXTCALL SWAP3 0xE9 NUMBER SIGNEXTEND 0xD6 SWAP16 0xBC DUP7 0xEB LOG2 0xB2 SWAP11 0xB3 0xB3 BYTE PUSH31 0x5D615413B7A70AAD0BB47BBC64736F6C634300081F00330000000000000000 "
		},
		"gasEstimates": {
			"creation": {
				"codeDepositCost": "517800",
				"executionCost": "infinite",
				"totalCost": "infinite"
			},
			"external": {
				"admin()": "2368",
				"changeAdmin(address)": "26707",
				"deposit()": "infinite",
				"deposits(address)": "2547",
				"getTopDepositors()": "infinite",
				"owner()": "infinite",
				"topDepositors(uint256)": "2445",
				"withdraw()": "infinite"
			}
		},
		"methodIdentifiers": {
			"admin()": "f851a440",
			"changeAdmin(address)": "8f283970",
			"deposit()": "d0e30db0",
			"deposits(address)": "fc7e286d",
			"getTopDepositors()": "81454f71",
			"owner()": "8da5cb5b",
			"topDepositors(uint256)": "30861078",
			"withdraw()": "3ccfd60b"
		}
	},
	"abi": [
		{
			"inputs": [],
			"stateMutability": "nonpayable",
			"type": "constructor"
		},
		{
			"inputs": [],
			"name": "admin",
			"outputs": [
				{
					"internalType": "address",
					"name": "",
					"type": "address"
				}
			],
			"stateMutability": "view",
			"type": "function"
		},
		{
			"inputs": [
				{
					"internalType": "address",
					"name": "newAdmin",
					"type": "address"
				}
			],
			"name": "changeAdmin",
			"outputs": [],
			"stateMutability": "nonpayable",
			"type": "function"
		},
		{
			"inputs": [],
			"name": "deposit",
			"outputs": [],
			"stateMutability": "payable",
			"type": "function"
		},
		{
			"inputs": [
				{
					"internalType": "address",
					"name": "",
					"type": "address"
				}
			],
			"name": "deposits",
			"outputs": [
				{
					"internalType": "uint256",
					"name": "",
					"type": "uint256"
				}
			],
			"stateMutability": "view",
			"type": "function"
		},
		{
			"inputs": [],
			"name": "getTopDepositors",
			"outputs": [
				{
					"internalType": "address[3]",
					"name": "",
					"type": "address[3]"
				},
				{
					"internalType": "uint256[3]",
					"name": "",
					"type": "uint256[3]"
				}
			],
			"stateMutability": "view",
			"type": "function"
		},
		{
			"inputs": [],
			"name": "owner",
			"outputs": [
				{
					"internalType": "address",
					"name": "",
					"type": "address"
				}
			],
			"stateMutability": "view",
			"type": "function"
		},
		{
			"inputs": [
				{
					"internalType": "uint256",
					"name": "",
					"type": "uint256"
				}
			],
			"name": "topDepositors",
			"outputs": [
				{
					"internalType": "address",
					"name": "",
					"type": "address"
				}
			],
			"stateMutability": "view",
			"type": "function"
		},
		{
			"inputs": [],
			"name": "withdraw",
			"outputs": [],
			"stateMutability": "nonpayable",
			"type": "function"
		},
		{
			"stateMutability": "payable",
			"type": "receive"
		}
	]
}