{
	"data": {
		"bytecode": {
			"linkReferences": {},
			"object": "608060405234801561000f575f5ffd5b5060408051808201909152601b81527f4f776e657220636f6e7472616374206465706c6f7965642062793a0000000000602082015261004e9033610091565b5f80546001600160a01b0319163390811782556040519091907f342827c97908e5e2f71151c08502a66d44b6f758e3ac2f1de95f02eb95f0a735908290a361015a565b6100da82826040516024016100a7929190610113565b60408051601f198184030181529190526020810180516001600160e01b0390811663319af33360e01b179091526100de16565b5050565b6100f1816100f460201b61017f1760201c565b50565b5f6a636f6e736f6c652e6c6f6790505f5f835160208501845afa505050565b604081525f83518060408401528060208601606085015e5f60608285018101919091526001600160a01b03949094166020840152601f01601f191690910190910192915050565b61021f806101675f395ff3fe608060405234801561000f575f5ffd5b5060043610610034575f3560e01c8063893d20e814610038578063a6f9dae114610056575b5f5ffd5b5f54604080516001600160a01b039092168252519081900360200190f35b6100696100643660046101a8565b61006b565b005b5f546001600160a01b031633146100bf5760405162461bcd60e51b815260206004820152601360248201527221b0b63632b91034b9903737ba1037bbb732b960691b60448201526064015b60405180910390fd5b6001600160a01b0381166101265760405162461bcd60e51b815260206004820152602860248201527f4e6577206f776e65722073686f756c64206e6f7420626520746865207a65726f604482015267206164647265737360c01b60648201526084016100b6565b5f80546040516001600160a01b03808516939216917f342827c97908e5e2f71151c08502a66d44b6f758e3ac2f1de95f02eb95f0a73591a35f80546001600160a01b0319166001600160a01b0392909216919091179055565b5f6a636f6e736f6c652e6c6f6790505f5f835160208501845afa505050565b6101a66101d5565b565b5f602082840312156101b8575f5ffd5b81356001600160a01b03811681146101ce575f5ffd5b9392505050565b634e487b7160e01b5f52605160045260245ffdfea2646970667358221220593f3eef1f952da58e06271c26e10b84e86f9e0e16a70c32c96774359875abd764736f6c634300081f0033",
			"opcodes": "PUSH1 0x80 PUSH1 0x40 MSTORE CALLVALUE DUP1 ISZERO PUSH2 0xF JUMPI PUSH0 PUSH0 REVERT JUMPDEST POP PUSH1 0x40 DUP1 MLOAD DUP1 DUP3 ADD SWAP1 SWAP2 MSTORE PUSH1 0x1B DUP2 MSTORE PUSH32 0x4F776E657220636F6E7472616374206465706C6F7965642062793A0000000000 PUSH1 0x20 DUP3 ADD MSTORE PUSH2 0x4E SWAP1 CALLER PUSH2 0x91 JUMP JUMPDEST PUSH0 DUP1 SLOAD PUSH1 0x1 PUSH1 0x1 PUSH1 0xA0 SHL SUB NOT AND CALLER SWAP1 DUP2 OR DUP3 SSTORE PUSH1 0x40 MLOAD SWAP1 SWAP2 SWAP1 PUSH32 0x342827C97908E5E2F71151C08502A66D44B6F758E3AC2F1DE95F02EB95F0A735 SWAP1 DUP3 SWAP1 LOG3 PUSH2 0x15A JUMP JUMPDEST PUSH2 0xDA DUP3 DUP3 PUSH1 0x40 MLOAD PUSH1 0x24 ADD PUSH2 0xA7 SWAP3 SWAP2 SWAP1 PUSH2 0x113 JUMP JUMPDEST PUSH1 0x40 DUP1 MLOAD PUSH1 0x1F NOT DUP2 DUP5 SUB ADD DUP2 MSTORE SWAP2 SWAP1 MSTORE PUSH1 0x20 DUP2 ADD DUP1 MLOAD PUSH1 0x1 PUSH1 0x1 PUSH1 0xE0 SHL SUB SWAP1 DUP2 AND PUSH4 0x319AF333 PUSH1 0xE0 SHL OR SWAP1 SWAP2 MSTORE PUSH2 0xDE AND JUMP JUMPDEST POP POP JUMP JUMPDEST PUSH2 0xF1 DUP2 PUSH2 0xF4 PUSH1 0x20 SHL PUSH2 0x17F OR PUSH1 0x20 SHR JUMP JUMPDEST POP JUMP JUMPDEST PUSH0 PUSH11 0x636F6E736F6C652E6C6F67 SWAP1 POP PUSH0 PUSH0 DUP4 MLOAD PUSH1 0x20 DUP6 ADD DUP5 GAS STATICCALL POP POP POP JUMP JUMPDEST PUSH1 0x40 DUP2 MSTORE PUSH0 DUP4 MLOAD DUP1 PUSH1 0x40 DUP5 ADD MSTORE DUP1 PUSH1 0x20 DUP7 ADD PUSH1 0x60 DUP6 ADD MCOPY PUSH0 PUSH1 0x60 DUP3 DUP6 ADD DUP2 ADD SWAP2 SWAP1 SWAP2 MSTORE PUSH1 0x1 PUSH1 0x1 PUSH1 0xA0 SHL SUB SWAP5 SWAP1 SWAP5 AND PUSH1 0x20 DUP5 ADD MSTORE PUSH1 0x1F ADD PUSH1 0x1F NOT AND SWAP1 SWAP2 ADD SWAP1 SWAP2 ADD SWAP3 SWAP2 POP POP JUMP JUMPDEST PUSH2 0x21F DUP1 PUSH2 0x167 PUSH0 CODECOPY PUSH0 RETURN INVALID PUSH1 0x80 PUSH1 0x40 MSTORE CALLVALUE DUP1 ISZERO PUSH2 0xF JUMPI PUSH0 PUSH0 REVERT JUMPDEST POP PUSH1 0x4 CALLDATASIZE LT PUSH2 0x34 JUMPI PUSH0 CALLDATALOAD PUSH1 0xE0 SHR DUP1 PUSH4 0x893D20E8 EQ PUSH2 0x38 JUMPI DUP1 PUSH4 0xA6F9DAE1 EQ PUSH2 0x56 JUMPI JUMPDEST PUSH0 PUSH0 REVERT JUMPDEST PUSH0 SLOAD PUSH1 0x40 DUP1 MLOAD PUSH1 0x1 PUSH1 0x1 PUSH1 0xA0 SHL SUB SWAP1 SWAP3 AND DUP3 MSTORE MLOAD SWAP1 DUP2 SWAP1 SUB PUSH1 0x20 ADD SWAP1 RETURN JUMPDEST PUSH2 0x69 PUSH2 0x64 CALLDATASIZE PUSH1 0x4 PUSH2 0x1A8 JUMP JUMPDEST PUSH2 0x6B JUMP JUMPDEST STOP JUMPDEST PUSH0 SLOAD PUSH1 0x1 PUSH1 0x1 PUSH1 0xA0 SHL SUB AND CALLER EQ PUSH2 0xBF JUMPI PUSH1 0x40 MLOAD PUSH3 0x461BCD PUSH1 0xE5 SHL DUP2 MSTORE PUSH1 0x20 PUSH1 0x4 DUP3 ADD MSTORE PUSH1 0x13 PUSH1 0x24 DUP3 ADD MSTORE PUSH19 0x21B0B63632B91034B9903737BA1037BBB732B9 PUSH1 0x69 SHL PUSH1 0x44 DUP3 ADD MSTORE PUSH1 0x64 ADD JUMPDEST PUSH1 0x40 MLOAD DUP1 SWAP2 SUB SWAP1 REVERT JUMPDEST PUSH1 0x1 PUSH1 0x1 PUSH1 0xA0 SHL SUB DUP2 AND PUSH2 0x126 JUMPI PUSH1 0x40 MLOAD PUSH3 0x461BCD PUSH1 0xE5 SHL DUP2 MSTORE PUSH1 0x20 PUSH1 0x4 DUP3 ADD MSTORE PUSH1 0x28 PUSH1 0x24 DUP3 ADD MSTORE PUSH32 0x4E6577206F776E65722073686F756C64206E6F7420626520746865207A65726F PUSH1 0x44 DUP3 ADD MSTORE PUSH8 0x2061646472657373 PUSH1 0xC0 SHL PUSH1 0x64 DUP3 ADD MSTORE PUSH1 0x84 ADD PUSH2 0xB6 JUMP JUMPDEST PUSH0 DUP1 SLOAD PUSH1 0x40 MLOAD PUSH1 0x1 PUSH1 0x1 PUSH1 0xA0 SHL SUB DUP1 DUP6 AND SWAP4 SWAP3 AND SWAP2 PUSH32 0x342827C97908E5E2F71151C08502A66D44B6F758E3AC2F1DE95F02EB95F0A735 SWAP2 LOG3 PUSH0 DUP1 SLOAD PUSH1 0x1 PUSH1 0x1 PUSH1 0xA0 SHL SUB NOT AND PUSH1 0x1 PUSH1 0x1 PUSH1 0xA0 SHL SUB SWAP3 SWAP1 SWAP3 AND SWAP2 SWAP1 SWAP2 OR SWAP1 SSTORE JUMP JUMPDEST PUSH0 PUSH11 0x636F6E736F6C652E6C6F67 SWAP1 POP PUSH0 PUSH0 DUP4 MLOAD PUSH1 0x20 DUP6 ADD DUP5 GAS STATICCALL POP POP POP JUMP JUMPDEST PUSH2 0x1A6 PUSH2 0x1D5 JUMP JUMPDEST JUMP JUMPDEST PUSH0 PUSH1 0x20 DUP3 DUP5 SUB SLT ISZERO PUSH2 0x1B8 JUMPI PUSH0 PUSH0 REVERT JUMPDEST DUP2 CALLDATALOAD PUSH1 0x1 PUSH1 0x1 PUSH1 0xA0 SHL SUB DUP2 AND DUP2 EQ PUSH2 0x1CE JUMPI PUSH0 PUSH0 REVERT JUMPDEST SWAP4 SWAP3 POP POP POP JUMP JUMPDEST PUSH4 0x4E487B71 PUSH1 0xE0 SHL PUSH0 MSTORE PUSH1 0x51 PUSH1 0x4 MSTORE PUSH1 0x24 PUSH0 REVERT INVALID LOG2 PUSH5 0x6970667358 0x22 SLT KECCAK256 MSIZE EXTCODEHASH RETURNDATACOPY 0xEF 0x1F SWAP6 0x2D 0xA5 DUP15 MOD 0x27 SHR 0x26 RJUMPI 0xB84 0xE8 PUSH16 0x9E0E16A70C32C96774359875ABD76473 PUSH16 0x6C634300081F00330000000000000000 "
		},
		"gasEstimates": {
			"creation": {
				"codeDepositCost": "108600",
				"executionCost": "infinite",
				"totalCost": "infinite"
			},
			"external": {
				"changeOwner(address)": "30360",
				"getOwner()": "2268"
			}
		},
		"methodIdentifiers": {
			"changeOwner(address)": "a6f9dae1",
			"getOwner()": "893d20e8"
		}
	},
	"abi": [
		{
			"inputs": [],
			"stateMutability": "nonpayable",
			"type": "constructor"
		},
		{
			"anonymous": false,
			"inputs": [
				{
					"indexed": true,
					"internalType": "address",
					"name": "oldOwner",
					"type": "address"
				},
				{
					"indexed": true,
					"internalType": "address",
					"name": "newOwner",
					"type": "address"
				}
			],
			"name": "OwnerSet",
			"type": "event"
		},
		{
			"inputs": [
				{
					"internalType": "address",
					"name": "newOwner",
					"type": "address"
				}
			],
			"name": "changeOwner",
			"outputs": [],
			"stateMutability": "nonpayable",
			"type": "function"
		},
		{
			"inputs": [],
			"name": "getOwner",
			"outputs": [
				{
					"internalType": "address",
					"name": "",
					"type": "address"
				}
			],
			"stateMutability": "view",
			"type": "function"
		}
	]
}